:020000040800F2
:10000000800A002095020008CD340008173200084D
:10001000C9340008651C00081F3B000800000000F0
:10002000000000000000000000000000D3340008C1
:10003000691C000800000000D1340008D534000815
:10004000AF020008AF020008AF020008AF020008CC
:10005000AF020008AF020008AF020008AF020008BC
:10006000AF020008AF020008AF020008AF020008AC
:10007000AF020008AF020008AF020008AF0200089C
:10008000AF020008AF020008AF0200080000000045
:10009000000000000000000000000000AF020008A7
:1000A000AF020008AF020008AF020008AF0200086C
:1000B000AF020008AF020008AF020008AF0200085C
:1000C000AF020008AF020008AF020008AF0200084C
:1000D000AF020008AF020008AF02000800000000F5
:1000E000AF020008AF020008AF02000800000000E5
:1000F000000000000000000000000000AF02000847
:1001000000000000AF020008AF020008AF020008C4
:1001100000000000000000000000000000000000DF
:10012000AF020008AF020008AF020008AF020008EB
:10013000AF02000800000000000000000000000006
:10014000000000000000000000000000AF020008F6
:10015000AF020008AF020008AF020008AF020008BB
:10016000AF020008AF02000800000000000000001D
:10017000000000000000000000000000000000007F
:1001800000000000AF0200080000000000000000B6
:10019000AF02000800F002F800F053F80AA090E85F
:1001A000000C82448344AAF10107DA4501D100F032
:1001B00048F8AFF2090EBAE80F0013F0010F18BFAC
:1001C000FB1A43F001031847A04B0000C04B00008E
:1001D000103A24BF78C878C1FAD8520724BF30C873
:1001E00030C144BF04680C60704700000023002445
:1001F00000250026103A28BF78C1FBD8520728BF37
:1002000030C148BF0B607047662904F03F8500206D
:1002100070471FB504F035FD9DE8030000F03EFF78
:1002200000F079F900F0D4FB04000020002104F074
:10023000CFFBE06000F0E4FC1FBD10B500F049FD0D
:1002400010BD00F0B1FD1146FFF7E3FF03F0B6FF6C
:1002500000F0B6FE03B4FFF7F0FF03BC01F0B6F800
:100260000B49D1F800C04A685CF8043B1068184498
:1002700042F8040B8C4528BFA1F1DC0C8A4228BF50
:10028000A1F1DC02C1F800C04A6020F000407047D4
:100290001C0300200948804709480047FEE7FEE7A5
:1002A000FEE7FEE7FEE7FEE7FEE7FEE7FEE7FEE726
:1002B00004480549054A064B70470000953500087B
:1002C0009501000880040020800A0020800600209C
:1002D0008006002053EA020C00F069802DE9F04B03
:1002E0004FF00006002B1FBFB3FA83F503FA05F4A5
:1002F00024FA05F65E4012BF1643B2FA82F502FAFE
:1003000005F4C5F120051EBF22FA05FC44EA0C04E1
:10031000203556EA044C4FEA144418BF641C4FF0D1
:1003200000084FF00009904271EB030C39D300290B
:1003300019BFB1FA81F701FA07F6B0FA80F700FAAF
:1003400007F6C7F120071EBF20FA07FC46EA0C0695
:100350002037B6FBF4FCA7EB0507103F07F01F0B97
:10036000CBF120060CFA0BFB2CFA06F644BFB34681
:100370000026202FA4BF5E464FF0000B5BEA060C60
:1003800008BF4FF0010B19EB0B09ABFB027C48EBEC
:100390000608C01B06FB02CC0BFB03CC71EB0C0167
:1003A000C1E70B46024641464846BDE8F08B13B50F
:1003B0004FF000004FF00001AFF30080BDE81C409B
:1003C000704700000FB4044910B503AA029800F06A
:1003D000EDFA10BC5DF814FB780300202DE9F0471E
:1003E0004FF0000A89460446C0F820A02046E16884
:1003F0008847002876D0252806D0D4E901219047E7
:10040000206A401C2062F1E7E16820460025884709
:10041000C4F81CA006460027C4F818A02A2E09D04C
:10042000304603F045FE38B304EB8708303EC8F889
:10043000186019E059F8041B204604EB870291610B
:10044000E1688847012F064618D1E069002820DAC4
:1004500025F020051DE0D8F8180000EB800006EB21
:1004600040003038C8F818002046E1688847064642
:1004700003F01EFE0028EED1012F0AD02E2E08D147
:100480002046E16888477F1C0646022F45F020057C
:10049000C4DBA069002803DA404245F00105A061F1
:1004A000E80701D025F01005B6B1A6F141001928E2
:1004B00002D8203645F400654A463146204625607C
:1004C0004D46FFF7A1FE58B1012806D0ED1D25F0DD
:1004D000070000F1080989E704E005F1040985E750
:1004E00030468AE7206ABDE8F08700000B4910B566
:1004F000A1F17C020A4CC2E93712372106E000EB79
:10050000104342F82130074B00FB03400B1EA1F1C2
:100510000101F4DC10BD0120E8E70000BC0200206E
:10052000E119D666CD0D01004FF0000200B513466B
:1005300094469646203922BFA0E80C50A0E80C5003
:10054000B1F12001BFF4F7AF090728BFA0E80C50B4
:1005500048BF0CC05DF804EB890028BF40F8042BAD
:1005600008BF704748BF20F8022B11F0804F18BF1A
:1005700000F8012B704770477047704710B500F0C6
:100580002BFA006810BD10B5044600F025FA04608F
:1005900010BD70472DE9FF4F0C461E464FF0FF3748
:1005A0008BB0D2E90001DDF860800A908A46C1F381
:1005B0000A5505B93D46002108464FF00000BAF142
:1005C000000F00F4400005DA00EB80004FF440011A
:1005D00001EA50004FEA9059B9F1010F00DDB94628
:1005E0000A9850EA4A000ED044F61050A5F2FF35A2
:1005F00045432F14B8F1000F1ED07542291E1EDD91
:10060000C9F100021CE0B8F1010F4FF0000001D069
:10061000302103E0F24305E02154401CB042FBDBF3
:1006200030460022002121540B99C1F80880C1E90D
:1006300000200FB0BDE8F08FBD1B6D1CDEE74A4601
:1006400000DA694206A800F069FA06AB93E80700F1
:1006500003AB83E8070050460A9900F048FF8DE895
:100660000700A0F500501F3800900398002D09DD09
:1006700042F21F014A46084403A90390684601F06C
:10068000A7F908E0A0F500504A461F3803A90390D7
:10069000684601F0B1F98DE807000004000C03D0B2
:1006A0004FF0FF30410800E01046B8F1000F03D0D2
:1006B0000022009215461EE0751E05D400F090F948
:1006C000303262556D1EF9D5B3460122084302D07F
:1006D00000227F1C04E02078302801D100227F1EF8
:1006E000002A099786D01DE0112D07DA00F078F96D
:1006F000303262556D1C50EA0102F5D1084302D038
:100700000098C8B10EE00021681E05E0235C625C21
:1007100063542254401E491C8142F7DBAB46A81BA0
:10072000401E0990002004F80B000B98099AC0F8AD
:100730000880C0E9002B7CE711264FF0000859E73C
:100740002DE9F04F88460446D21D22F0070191B0F2
:10075000D1E90001CDE90A0103F0E3F902460B9863
:10076000C00F01D02D2007E02068810701D52B2084
:1007700002E0202101EAC000032A099001D0072AE3
:1007800005DB03464146204600F088F90BE120785E
:10079000800601D5E06900E00620B8F1650F8146CA
:1007A00006D0B8F1660F18D0B8F1670F70D131E0FC
:1007B0000020B9F1110F009001DB112301E009F1D4
:1007C00001030AAA01A90CA8FFF7E4FEDDE90C70F9
:1007D000002609F10105834647E001204B460090C1
:1007E0004FF000470AAA01A90CA8FFF7D3FEDDE9E4
:1007F0000DB00C995D46002610B909F101000D18E5
:10080000B9EB050003D4C0F1FF3609F10105A5EBF2
:1008100009002BE0B9F1010F01DA4FF001090020C6
:10082000B9F1110F0090484601DD112300E00346A5
:100830000AAA01A90CA8FFF7ADFEDDE90C704D4630
:1008400000268346207800070AD4AB4500DA5D46CF
:1008500001A8012D04DD411911F8011C302907D030
:100860004F4502DA17F1040F04DA012082460FE047
:100870006D1EEEE7002F02DCED1B3E4403E0781C0A
:10088000A84200DD7D1CB81B00F1010A4FF00047B3
:100890002078000703D4AA4501DB4FF0FF3A00217E
:1008A000B7F1004F0DF143088DF8431024D002201A
:1008B0002B23002F01DA7F422D230A21021EA0F1F3
:1008C000010000DC5FB197FBF1FC97FBF1F201FB4B
:1008D0001C7C17460CF1300C08F801CDEEE7A8F1AE
:1008E000010003702188090501D5452100E065213B
:1008F000A0F1010800F8011C09980FA9A1EB080755
:10090000FF1D00B10120411901EBEA70A1693844D3
:10091000081A401EA0612078C00602D42046AFF31A
:100920000080099828B1D4E901219047206A401C31
:1009300020622078C00622D52046AFF300801EE05A
:10094000002E04DBB34502DD01A8805D00E030200D
:10095000D4E901219047206A401C2062761CAAF14C
:1009600001005FEA000A0AD100F032F8C0680168AD
:10097000405CD4E901219047206A401C2062281E77
:10098000A5F10105DCDC07E0D4E9012118F8010B31
:100990009047206A401C2062381EA7F10107F3DC53
:1009A0002046AFF30080032011B043E6074B70B53B
:1009B0000D467B4400F05FF80446284600F01CF921
:1009C00010B14FF0FF3070BD204670BDEB37000016
:1009D0000048704740040020004870472004002071
:1009E00030B5B0F10A024FEA900E71F100034EEA01
:1009F000817EB0EB0E0061EB91014FEA101E4EEAD2
:100A0000017E10EB0E0041EB11114FEA102E4EEA61
:100A1000016E10EB0E0041EB11214FEA104E4EEA31
:100A2000014E10EB0E0041EB1141401841F1000165
:100A30004FEAD00040EA41704FEAD10110EB800547
:100A40004FEA810444EA907444EB01046D1944EBCD
:100A50000404521BA3414FF0000348BF0A3200D5E3
:100A600030BD401C41F1000130BD000001694A1C4D
:100A700002610878704700B58FB0CDE901310021DF
:100A8000059105497944CDE9031011466846FFF701
:100A9000A5FC0FB000BD0000E5FFFFFF2DE9F04110
:100AA0001F46044603260168072A01F4006004DBA0
:100AB00008B116A505E016A503E008B115A500E0EC
:100AC00015A521F010002060A069C01EA0610FB123
:100AD000401EA0612046AFF300804FB1D4E9012150
:100AE00038469047206A401C2062C01C206206E005
:100AF000206AFAE7D4E9012115F8010B9047761E28
:100B0000F8D22046AFF30080BDE8F0814E414E00A0
:100B10006E616E00494E4600696E66002DE9F04731
:100B2000814616468AB0334878440DC88DE80D00DA
:100B300030487844801C03AC0DC884E80D0041F6B1
:100B40009B300844372190FBF1F290FBF1F5A5F1C1
:100B5000800501FB12041B3C02D56442012000E029
:100B60000020DFF890A080460027FA44AAF1BE0AD0
:100B70000DE0E00709D03246684607EB47010AEB73
:100B8000810100F039FF8DE8070064107F1C002C04
:100B9000EFD1184F7F44AC3F18E0E80714D007EBC3
:100BA00004100DF1180A90E80E008AE80E00C068E3
:100BB000F04201D198190890324606A903A800F026
:100BC0001BFF03AB83E807006D10641C002DE4D10C
:100BD00032466946B8F1000F03A802D000F0F8FED3
:100BE00001E000F009FFC9E90001C9F808200AB0D6
:100BF000BDE8F08718420000007B00F080007047DD
:100C000010B542485421FFF78FFC41485421FFF7AB
:100C10008BFC40485421FFF787FC3F493B483C4A46
:100C20003F4B08603D490A603A491960531C03650F
:100C3000481C1065012008653B48344A39A17844B6
:100C400000F022F920B9384878440A3800F0C1F998
:100C500037482F4A35A1784400F016F920B93448B6
:100C600078440A3800F0B5F932482A4A2FA178446E
:100C700000F00AF920B92F4878440A3800F0A9F9A1
:100C800040232248DC000021224600F0D9F820B1A0
:100C900025487844543800F09CF91D4822464023EA
:100CA000002100F0CDF820B121487844543800F0FC
:100CB00090F9184822461023002100F0C1F80028BE
:100CC00006D01C487844BDE81040563800F081B981
:100CD00010BD104870B5006D20F001040B4800F005
:100CE00049F90B4800F046F90A4800F043F909E0D9
:100CF000206D20F00105204600F03CF9204600F070
:100D000078F82C46002CF3D170BD0000240300209D
:100D100078030020CC030020280000202C000020B5
:100D200030000020720000001A410000770000002F
:100D300006410000F24000000EB5CDE9000100F0D0
:100D400026FB029069460120ABBE0EBD08B5694680
:100D500000900220ABBE08BD1FB58DE807006946B4
:100D60000520ABBE04B010BD1FB58DE80F0069466D
:100D70000620ABBEF6E708B5694600900920ABBE79
:100D800008BD1CB5CDE9000169460A20ABBE1CBDFB
:100D9000704708B5694600900C20ABBE08BD000046
:100DA00000487047200400207546FFF7F9FFAE4663
:100DB00005006946534620F00700854618B020B567
:100DC000FFF776FABDE820404FF000064FF000072D
:100DD0004FF000084FF0000B21F00701AC46ACE8E3
:100DE000C009ACE8C009ACE8C009ACE8C0098D4650
:100DF000704770B50446051F00F034F90068002CF8
:100E000014BF446870BD002C18BFAC423CBF2046E4
:100E10006468F8D301680A18AA4218BF456003D174
:100E20002A6805461144016028684119A1421CBF87
:100E30006C6070BD6168696021680844286070BD9D
:100E400070B5C468A50713D0650211D4B2F5807FD0
:100E500009D0B2F5007F06D0B2F5806F08D101232A
:100E600000F1240106E05D1E6FF07F46B54201D31C
:100E7000012070BD0161C361416024F470611143C0
:100E8000C160002070BD00002DE9F0410C4607460E
:100E90001646104600F06EF82078611C61280AD0D2
:100EA000722802D077283CD102E00125002405E019
:100EB0000225042402E0082448F2020511F8010B7F
:100EC0002B2806D0622809D011F8010C74280AD00A
:100ED0000BE045F0030544F00204EFE745F004059C
:100EE00044F00104EAE744F0100438462146FFF7D5
:100EF00023FF411C15D00021316171604FF4007156
:100F0000F560F1617061200704D5304602220021AE
:100F100000F022F9306D40F0010030653046BDE848
:100F2000F0810020FBE72DE9F0410D460646104C0C
:100F3000206DC10704D0410804D020F00104F7E778
:100F400022460EE0542000F0D8F807000ED0206DA5
:100F500047F001010843542120653846FFF7E4FAC1
:100F60003A4629463046BDE8F0418DE70020D6E7F5
:100F7000240300202DE9F04704464FF000094FF00C
:100F8000FF37C568D4E90486A80707D0204600F0DB
:100F900093F93046FFF7DAFE002802DA3846BDE85A
:100FA000F087280502D54046FFF723FF4C21204655
:100FB000FFF7BAFA206D20F0010020654846EEE701
:100FC00010B50446AFF300802046BDE81040FFF79F
:100FD00041B910B500F0BAF9BDE8104000F0B0B961
:100FE0004FF0013C50F8042B51F8043B9A4221D1B8
:100FF000A2EB0C03934313EACC1317D150F8042B44
:1010000051F8043B9A4215D1A2EB0C03934313EA27
:10101000CC130BD150F8042B51F8043B9A4209D160
:10102000A2EB0C03934313EACC13DBD04FF0000088
:10103000704700BFD01A01BAB1FA81F101F018016E
:1010400022FA01F0CB40C1F12001DBB2C0B2C01ADC
:101050002CFA01F3D11A914311EAC311E6D170477A
:101060007047000000487047280400207047704710
:101070007047704738B504460A4600206946AFF30A
:101080000080002808BF38BD02460099204600F0C5
:10109000AAF9012038BD012000F072B9F8B5AFF30C
:1010A0000080054600200C46102000BF0646A81907
:1010B000A0420DD9324669460020AFF300800700F8
:1010C00008BF00F05DF90098A04218BF0546C4199A
:1010D000FFF7C8FF05600746F01D20F0070046191E
:1010E000284600F079F9B44208BFF8BDA21B31468A
:1010F0003868BDE8F84000F076B970B50646FFF7ED
:10110000B1FF056806F10B0020F00704B4429CBF54
:10111000002070BD2B466A68BAB11068A04210D397
:1011200004F1080188423CBF5068586007D35168F9
:10113000101941601168091B016058601460101D8E
:1011400070BD13465268002AE7D121462846FFF7B2
:1011500091FF0028DED170BD2DE9F041044616460E
:101160000D464769007B80072ED03846FFF703FE07
:1011700050BB3EB3012E02D0022E25D104E0204602
:1011800000F04BF905441DE03846FFF702FEE16828
:10119000002841F01001E16005DA204600F058F81F
:1011A0000120BDE8F081C9030BD56268E16A914274
:1011B00000D81146A26911442269891A814200DDD2
:1011C00008460544002D01DA0220EAE7E16A60687A
:1011D000E268814206D29103E06203D522F4003135
:1011E00041F01002A6690027AE4213DCE16A814299
:1011F00001D90B4600E0034603EB060C2369ACEB78
:10120000030CAC4506DD814201D98C4600E08446E2
:101210009C4505D1A760276042F02000A5620DE043
:10122000AD1BE669AE1B8142A66000D90846C01A14
:10123000281A20605819606022F0200003490840F5
:10124000E060002084F84870ABE70000BFCFD7FF14
:10125000C16821F4001141F08001C160002181606A
:10126000016070472DE9F047814614460E464FF065
:10127000FF383248D5685769054209D03846A16918
:10128000FFF77FFD002811DB2C48C0430540E560D7
:101290002B46324649463846FFF75EFDA16920F0ED
:1012A0000042B21A11440028A16103D02046FFF782
:1012B000CFFF4046BDE8F08770B504460569C06AB7
:1012C0006168884200D80846E16821F42011E16095
:1012D000C90312D5A84208D02246411B2846FFF771
:1012E000C1FF10B14FF0FF3070BD0020E562C4E9CE
:1012F0000150E06820F48030E060002070BD10B53F
:101300000446C06820F02000E060A16AA06988421D
:101310000DD02046FFF7D0FFE06820F4405040F0A9
:101320001000E060A06AA0612069E062606044F2A1
:101330004001E0688843E06010BD0000100002003A
:10134000002801D000F042B87047000010B50146F7
:1013500002A000F083F8012010BD0000534947525D
:10136000545245443A2052656469726563743A2068
:1013700063616E2774206F70656E3A200000000074
:1013800010B500F085F8BDE81040FFF7D9BF10B5E3
:10139000431C02E010F8011B71B18107FAD14FF034
:1013A000013202C88C1A8C4314EAC211F9D0C01A57
:1013B0000A0603D0C01E10BDC01A10BD0A0401D019
:1013C000801E10BD0902FCD0401E10BD014918202E
:1013D000ABBEFEE72600020000210160C0E901105B
:1013E000704710207047034640688C46002818BF9D
:1013F00088423CBF03464068F8D3186818448842C6
:1014000007D00CF1030020F00700001D411A521A0A
:101410000146081D0A60FFF7ECBC10B50146C26822
:10142000900703D0900607D5886A0AE0FFF7D4FA40
:1014300001210160881E10BD8B69486818440B6942
:10144000C01A91F848301BB191F84910401A10BDEC
:101450001103FCD50028FADD401E10BD70B505460D
:101460000C460A2000E06D1C00F03AF835B12878EF
:101470000028F8D102E0641C00F032F814B12078A2
:101480000028F8D1BDE870400A2000F029B800001B
:1014900010B5012805D0002103A0FFF7DFFF0120D0
:1014A00010BD09A1F8E7000053494752544D454D7E
:1014B0003A204F7574206F662068656170206D65F5
:1014C0006D6F7279000000003A2048656170206DF0
:1014D000656D6F727920636F7272757074656400E8
:1014E00008B569468DF800000320ABBE08BD5FEA71
:1014F000400C08BF91F0000F4FEA8C234FEAC12245
:1015000043EA51514FEA1C5018BF00F5F0404FEA32
:10151000300018BF41F000415FEA6C5C00F02980A8
:10152000BCF1FF3F08BF40F080407047130C06BF7E
:1015300012044FF0100C4FF0000C130E04BF1202F7
:101540000CF1080C130F04BF12010CF1040C930FE3
:1015500004BF92000CF1020CD30F04BF52000CF137
:10156000010C11464FF00002A0F11F00A0EB0C008F
:10157000704711F0004F08BF704731F000413FF451
:10158000D5AF0B0C06BF09044FF0100C4FF0000C48
:101590000B0E04BF09020CF1080C0B0F04BF09016C
:1015A0000CF1040C8B0F04BF89000CF1020CCB0F63
:1015B00004BF49000CF1010CCCF12003A0EB0C009E
:1015C00022FA03F302FA0CF241EA030100F10100EE
:1015D000704720F07F4C80EA030023F07F47ACEB9C
:1015E000070303F57C5300F0004003F1FF032DE9EE
:1015F00080494FEA154B09B44FEA144325EA0B4ED4
:1016000024EA03480FF2042606EB132749083E7824
:101610005FEA320203FB0667C7F5000707FB06F621
:101620004FEA54374FEAD64606F1020607FB066C2E
:10163000CCF1005C4FEA1C472CEA074C07FB06F490
:101640000CFB06F504EB15464FEA961634BF002056
:101650004FF000404FEAD13706FB07FC4FEA1C4C25
:101660000CFB0BF7D21B03FB0CF761EB07010CFB28
:101670000EF7B0EB074072EB17420CFB08F734BFD4
:10168000A2EB0742B2EB074261EB17414FEA0C4471
:101690004FEA910706FB07FC4FEA1C4C0CFB0BF7CB
:1016A000B0EBC74072EB573203FB0CF734BFA2EB31
:1016B000C742B2EBC74261EB57310CFB0EF7B0EB00
:1016C000C70072EB57720CFB08F734BFA2EBC702DE
:1016D000B2EBC70261EB5771039F4FEA816141EAA8
:1016E000921104EBCC044FEAD1374FEA826206FB39
:1016F00007FC42EA90124FEA80604FEA1C4C0CFB58
:101700000BF7D21B03FB0CF761EB07010CFB0EF789
:10171000B0EB074072EB17420CFB08F734BFA2EBAB
:101720000742B2EB074261EB17414FEA8C554FEA93
:10173000910704EB9C2406FB07FC4FEA1C4C0CFBB6
:101740000BF7B0EBC74072EB573203FB0CF734BF1B
:10175000A2EBC742B2EBC74261EB57310CFB0EF76D
:10176000B0EBC70072EB57720CFB08F734BFA2EB6B
:10177000C702B2EBC70261EB577115EB4C254FEA7C
:10178000816141EA92114FEA82624FEAD13742EA1F
:10179000901206FB07FC44F100044FEA80604FEA18
:1017A0001C4C0CFB0BF7D21B03FB0CF761EB070186
:1017B0000CFB0EF7B0EB074072EB17420CFB08F77F
:1017C00034BFA2EB0742B2EB074261EB174115EBC6
:1017D0001C154FEA813141EA92414FEA823242EAD6
:1017E00090424FEA80304FEA0C7644F1000448EA18
:1017F00003434EEA0B484FF0000EB2EB080C71EBBE
:10180000030724BF624639464EEB0E0E4FF0000B25
:101810000018524149414BEB0B0BB2EB080C71EB3A
:1018200003077BF1000B24BF624639464EEB0E0ED8
:101830004FF0000B0018524149414BEB0B0BB2EB40
:10184000080C71EB03077BF1000B24BF624639469D
:101850004EEB0E0E51EA020718BF46F0010616EBDA
:101860000E7655F1000254F1000103D5BDE889015F
:10187000BDE80088BDE88901BDE80048B6195241BD
:1018800041EB0101A3F10103704780807F7E7D7CE5
:101890007B7A7978777676757473727171706F6E02
:1018A0006E6D6C6C6B6A6A696868676666656464AD
:1018B000636362616160605F5F5E5E5D5D5C5C5B37
:1018C0005B5A5A59595858575756565555555454A6
:1018D000535352525251515050504F4F4F4E4E4D04
:1018E0004D4D4C4C4C4B4B4B4A4A4A494949484850
:1018F0004847474747464646454545444444444390
:1019000043434342424242414141002B26D47700A7
:1019100021D01CB54FEA370703B44FF010004FF049
:1019200010014FF000000FBCBDE810400BF1010B9F
:10193000BBF1010F08BF5FEA170722BF12F10102D6
:1019400011F101014FF0004143F1000300F00040AC
:1019500043EA00007047F9D35708DAE746EA06463B
:1019600013F1400F4FEA16461FDD13F1200FDFBFC2
:1019700016430A46002120335B42C8D0C3F120073A
:1019800046EA064602FA07F74FEA164646EA07060F
:10199000C3F1200722FA03F201FA07F721FA03F153
:1019A0004FF0000342EA0702B1E746EA020646EAC0
:1019B00006464FEA164646EA0106BCBF46EA064618
:1019C000360C4FF000034FF000024FF000019EE78D
:1019D0002DE9C048934630B491E8380007C831EA91
:1019E000400C48BF34EA430C03D5FFF7F2FDFFF784
:1019F0008CFFF0BCBDE800882DE9C048934630B4A8
:101A000091E8380007C810F0804F08BF13F0804FEE
:101A100003D100F005F8FFF778FFF0BCBDE80088BF
:101A200020F07F4780EA030023F07F4C07EB0C0394
:101A3000A3F57C5300F00040A3F1FE0392F0000FE9
:101A400000F0B38095F0000F00F077802DE9014998
:101A50004FEA11404FEA144621EA004800FB06FC19
:101A600024EA064708FB06F607FB08F800FB07F721
:101A700018EB06484CEB164C4FEA124B18EB074894
:101A80004FEA15464CEB174022EA0B4E0BFB06FCC7
:101A900025EA06470EFB06F607FB0EFE0BFB07F7D3
:101AA0001EEB064E4CEB164C4FF000061EEB074E9D
:101AB0004CEB174B18EB0B0840F1000018EB0E0B2A
:101AC00058EB000840F100008F1A4FF000013CBFB6
:101AD000C943661B14BFB5EB040C00213CBFC943CE
:101AE000F61B4FEA17444EEA8E0E27EA04454FEAEA
:101AF0001C4704FB07622CEA074C05FB07F70CFBAD
:101B000005F604FB0CFC16EB074642EB174216EBFE
:101B10000C4642EB1C421BEB060658EB020241410D
:101B200046EA9E0601D5BDE80189B619524141EB4E
:101B30000101A3F10103BDE801894FEA14454FEA11
:101B4000114724EA054621EA074C05FB07F406FB8A
:101B500007F70CFB06F105FB0CFC11EB074144EB0E
:101B600017444FEA124711EB0C4144EB1C4422EAA4
:101B7000074C05FB07F206FB07F70CFB06F605FB17
:101B80000CFC16EB074642EB174216EB0C4642EBF9
:101B90001C456A1854F1000148BF7047B6195241FC
:101BA00041EB0101A3F10103704795F0000F37D01D
:101BB0004FEA11424FEA144721EA024624EA074C51
:101BC00002FB07F106FB07F70CFB06F402FB0CFC1B
:101BD00014EB074441EB17414FEA154714EB0C4453
:101BE00041EB1C4125EA074C02FB07F506FB07F712
:101BF0000CFB06F602FB0CFC16EB074645EB174503
:101C000016EB0C4645EB1C42121951F1000148BF7E
:101C10007047B619524141EB0101A3F1010370472E
:101C20004FEA14454FEA114724EA054621EA074CDA
:101C300005FB07F106FB07F70CFB06F24FF0000669
:101C400005FB0CFC12EB074241EB174112EB0C4277
:101C500051EB1C4148BF7047921841EB0101A3F1C1
:101C60000103704700BFFEE7704772B600BFFEE792
:101C700070B5044600F0F4F806462546681C10B11D
:101C800004480078054400BF00F0EAF8801BA84231
:101C9000FAD370BD20000020F8B502460B4600259F
:101CA000002400200021C7E0012606FA01F51E6885
:101CB00006EA0504AC4274D11E7906F00306012E33
:101CC00004D01E7906F00306022E13D190684F004F
:101CD0000326BE40B0434F00DE68BE4030439060F4
:101CE000506801268E40B0431E79C6F300168E4020
:101CF000304350601E7906F00306032E09D0D068E9
:101D00004F000326BE40B0434F009E68BE403043A4
:101D1000D0601E7906F00306022E13D1CF0802F11F
:101D2000200656F827004E07F70E0F26BE40B04398
:101D30004F07FF0E1E69BE403043CF0802F1200658
:101D400046F8270010684F000326BE40B0431E79B6
:101D500006F003064F00BE40304310605E6806F494
:101D60004036002E67D000BF00260096344E3668FD
:101D700046F48046324F3E603E46366806F4804662
:101D8000009600BF00BF2F4E8F0856F827008E0721
:101D9000370F0F26BE40B0432B4EB24202D1002671
:101DA00015E048E0294EB24201D101260FE0284E4D
:101DB000B24201D102260AE0264EB24201D10326E8
:101DC00005E0254EB24201D1042600E007268F0728
:101DD0003F0FBE4030431B4E8F0846F827001F4E72
:101DE0003068A0435E6806F4801606B120431B4E9F
:101DF0003060361D3068A0435E6806F4001606B1F8
:101E00002043164E361D3060144E361F3068A043F6
:101E10005E6806F4003606B12043104E361F30606F
:101E2000361F3068A0435E6806F4803606B1204352
:101E30000A4E083E3060491C1029FFF435AFF8BD4A
:101E400044380240083801400000024000040240CB
:101E500000080240000C024000100240083C014013
:101E600001480068704700001800002070B5044663
:101E70000CB9012070BD94F83D0028B9002084F809
:101E80003C00204600F0DAF8242084F83D00206869
:101E9000006820F00100216808602068006840F4B4
:101EA0000040216808602068006820F40040216834
:101EB000086000F0D9FA05465C496068884206D897
:101EC0005B48854201D2012007E0002005E0594827
:101ED000854201D2012000E00020012800D1C9E79D
:101EE0005548B5FBF0F62068406820F03F003043CD
:101EF000216848604D496068884201D8701C07E03D
:101F00004FF4967070434FF47A71B0FBF1F0401CBF
:101F10002168096A21F03F010843216808624349AA
:101F20006068884214D8681E61684900B0FBF1F00F
:101F3000401CC0F30B00042801D204203DE0681EC1
:101F400061684900B0FBF1F0401CC0F30B0034E0C5
:101F5000A06838B9681E616801EB4101B0FBF1F07F
:101F6000401C0AE0681E616801EBC10202EB01112E
:101F7000B0FBF1F0401C40F48040C0F30B0008B906
:101F800001201AE0A06848B9681E616801EB4101B0
:101F9000B0FBF1F0401CC0F30B000CE0681E616860
:101FA00001EBC10202EB0111B0FBF1F0401CC0F3E8
:101FB0000B0040F4804040F400402168C9694CF6B1
:101FC000FF72914308432168C861D4E907010843BF
:101FD0002168096821F0C001084321680860D4E93C
:101FE000031008432168896848F2FF32914308438F
:101FF00021688860D4E9050108432168C96821F097
:10200000FF0108432168C8602068006840F00100B3
:102010002168086000202064202084F83D00002012
:10202000206384F83E0000BF24E70000A086010082
:1020300080841E0000093D0040420F0010B586B0AC
:102040000446142101A8FEF76FFA3C492068884233
:1020500030D100BF002000903948006840F00200F5
:10206000374908600846006800F00200009000BF91
:1020700000BF4FF4C0700190122002900020039026
:10208000032004900420059001A92E48FFF704FEC8
:1020900000BF002000902A481030006840F4001073
:1020A0002749103108600846006800F400100090CD
:1020B00000BF41E02449206888423DD100BF002094
:1020C00000901F48006840F002001D490860084663
:1020D000006800F00200009000BF00BF08150190EA
:1020E0001220029000200390032004900420059009
:1020F00001A91448FFF7D0FD08200190122002909A
:1021000000200390032004900920059001A90D48A8
:10211000FFF7C2FD00BF00200090094810300068A2
:1021200040F480000649103108600846006800F459
:102130008000009000BF00BF06B010BD00540040FA
:102140003038024000040240005800400348006854
:1021500003490978084401490860704718000020C5
:102160002000002010B50D48006840F400700B49B5
:1021700008600846006840F480600860084600680F
:1021800040F480700860032000F092F80F2000F007
:1021900007F800F02BF8002010BD0000003C0240C2
:1021A00070B504460E4800784FF47A71B1FBF0F038
:1021B0000C490968B1FBF0F5284600F01BFC08B19A
:1021C000012070BD102C07D200222146501E00F0C5
:1021D00031F80548046001E00120F2E70020F0E753
:1021E00020000020240000201C00002008B500BFB3
:1021F000002000900E48006840F480400C490860C0
:102200000846006800F48040009000BF00BF00BF97
:1022100000200090081F006840F08050091F0860EF
:102220000846006800F08050009000BF00BF08BD65
:10223000443802402DE9F05F80460D4616460027DF
:1022400001F09AFC074639462A46334601F007005A
:10225000C0F1070ABAF1040F02D94FF0040A01E0F5
:10226000C0F1070AD14600F1040ABAF1070F02D201
:102270004FF0000A01E0A0F1030AD4464FF0010A32
:102280000AFA09FAAAF1010A0AEA020A0AFA0CFA97
:102290004FF0010B0BFA0CFBABF1010B0BEA030B3C
:1022A0004AEA0B042146404601F06EFCBDE8F09F6F
:1022B00000BF00F00702064B19684FF6FF031940F4
:1022C000044B0B4343EA0221014B196000BF7047E6
:1022D0000CED00E00000FA0570B504460D460CB99F
:1022E000012070BD5848006800F00700A84209D2DC
:1022F00055490D700846006800F00700A84201D05B
:102300000120EEE7207800F0020002281DD120789D
:1023100000F00400042805D14C48006840F4E05067
:102320004A490860207800F00800082805D147488D
:10233000006840F46040454908604448006820F067
:10234000F000A168084341490860207800F00100CE
:10235000A8B36068012807D13C4808380068C0F37A
:102360004040B8B90120BCE76068022802D060682C
:10237000032807D1354808380068C0F3406048B9E1
:102380000120AEE7314808380068C0F3400008B9C2
:102390000120A6E72D48006820F00300616808438B
:1023A0002A490860FFF75CFD064609E0FFF758FD83
:1023B000801B41F28831884202D9032091E707E06F
:1023C0002248006800F00C006168B0EB810FEDD18D
:1023D0001D48006800F00700A84209D91A490D708D
:1023E0000846006800F00700A84201D0012078E705
:1023F000207800F00400042807D11448006820F475
:10240000E050E168084311490860207800F00800B6
:10241000082808D10D48006820F46040216940EA8E
:10242000C1000A49086000F03FF808490968C1F393
:102430000311074A515CC840064908600648006815
:10244000FFF7AEFE00204CE7003C02400838024097
:10245000904C0008240000201C0000200148006867
:10246000704700002400002000B5FFF7F7FF044983
:102470000968C1F38221034A515CC84000BD0000D5
:1024800008380240A04C000800B5FFF7E7FF0449F8
:102490000968C1F34231034A515CC84000BD0000E5
:1024A00008380240A04C00082DE9F0470024002520
:1024B0000026A1462548006800F00C0020B1042841
:1024C00005D008283AD105E0DFF8849039E0DFF83C
:1024D000849036E01D48001F006800F03F041B4850
:1024E000001F006800F4800078B11A481749091FDE
:1024F0000968C1F38811A0FB017001462246002340
:102500003846FDF7E7FE05460EE011480F49091F62
:102510000968C1F38811A0FB01700146224600231F
:102520003846FDF7D7FE05460848001F0068C0F38F
:102530000140401C4600B5FBF6F902E0DFF81090C0
:1025400000BF00BF4846BDE8F087000008380240E1
:102550000024F40040787D01F8B504460CB9012050
:10256000F8BD207800F00100002874D0F948006818
:1025700000F00C0004280DD0F648006800F00C00B4
:10258000082813D1F348001F006800F48000B0F55C
:10259000800F0BD1EF4808380068C0F34040002896
:1025A00059D06068002856D10120D9E700BF606883
:1025B000B0F5803F08D1E7480838006840F4803023
:1025C000E449083908601EE06068B0F5A02F0DD11D
:1025D000E0480838006840F48020DE490839086087
:1025E0000846006840F4803008600CE0D94808389C
:1025F000006820F48030D749083908600846006830
:1026000020F48020086000BF606890B1FFF728FCCC
:10261000054606E0FFF724FC401B642801D903208F
:102620009EE7CC4808380068C0F340400028F1D04D
:1026300011E0FFF715FC054606E0FFF711FC401B13
:10264000642801D903208BE7C24808380068C0F32A
:1026500040400028F1D1207800F0020002285FD12C
:10266000BC48006800F00C0058B1BA48006800F09F
:102670000C0008281CD1B748001F006800F4800037
:10268000B0B9B44808380068C0F3400020B1E06831
:10269000012801D0012063E7AE480838006820F027
:1026A000F800216940EAC100AA490839086037E00A
:1026B000E06800B30120A8490860FFF7D1FB054698
:1026C00006E0FFF7CDFB401B022801D9032047E7B6
:1026D000A04808380068C0F340000028F1D09D48A9
:1026E0000838006820F0F800216940EAC1009949E3
:1026F0000839086014E0002097490860FFF7B0FB34
:10270000054606E0FFF7ACFB401B022801D9032079
:1027100026E7904808380068C0F340000028F1D14F
:10272000207800F0080008282CD16069A8B10120A9
:102730008A490860FFF794FB054606E0FFF790FB27
:10274000401B022801D903200AE782486C30006848
:10275000C0F340000028F1D014E000207F49086059
:10276000FFF77EFB054606E0FFF77AFB401B0228D9
:1027700001D90320F4E677486C300068C0F34000CC
:102780000028F1D1207800F00400042870D100273F
:1027900070483830006800F0805090B900BF0020C9
:1027A00000906C483830006840F0805069493831FA
:1027B00008600846006800F08050009000BF00BF2D
:1027C00001276748006800F48070B0B96448006869
:1027D00040F4807062490860FFF742FB054606E05E
:1027E000FFF73EFB401B022801D90320B8E65C48F6
:1027F000006800F480700028F2D000BFA0680128B3
:1028000008D154486830006840F0010051496831EF
:1028100008601DE0A06805280DD14E4868300068AA
:1028200040F004004B49683108600846006840F0F9
:10283000010008600CE047486830006820F00100A3
:102840004449683108600846006820F004000860C8
:1028500000BFA068A8B1FFF703FB054609E0FFF73A
:10286000FFFA401B41F28831884202D9032077E603
:1028700026E0384868300068C0F340000028EED0F9
:1028800013E0FFF7EDFA054608E0FFF7E9FA401B11
:1028900041F28831884201D9032061E62D48683031
:1028A0000068C0F340000028EFD1012F07D129486C
:1028B0003830006820F0805026493831086000BF69
:1028C000A069002845D02348006800F00C000828C3
:1028D0005DD0A069022845D100201F490866FFF796
:1028E000BFFA054606E0FFF7BBFA401B022801D9F4
:1028F000032035E6174808380068C0F34060002818
:10290000F1D1D4E907010843616A40EA811101224B
:10291000A06AC2EB500041EA00412C20005D41EA70
:1029200000600C49091F086001200B490866FFF789
:1029300097FA054606E0FFF793FA401B022801D9F3
:1029400003200DE6034808380068C0F34060002803
:10295000F1D049E00838024000004742800E47426B
:1029600000700040002021490866FFF779FA05460B
:1029700006E0FFF775FA401B022801D90320EFE5B6
:102980001B480068C0F340600028F2D12CE0A06929
:10299000012800D1E4E51648001D0668A069012859
:1029A00020D006F48001E06981421BD106F03F018E
:1029B000206A814216D147F6C0703040616AB0EBA0
:1029C000811F0FD106F440310122A06AC2EB5000F2
:1029D000B1EB004F06D106F070612C20005DB1EB29
:1029E000006F01D00120BBE50020B9E5000047429F
:1029F0000038024070B504462546681EB0F1807F5D
:102A000001D301200FE0681E4FF0E02148610F2143
:102A10004FF0FF3001F0B8F800204FF0E02188615E
:102A200007200861002070BD10B50346002200BFDA
:102A300093F83C00012801D1022010BD012083F849
:102A40003C0000BF22F0FF00CC6840EA040222F400
:102A500040708C6840EA040222F480604C6840EACE
:102A6000040222F400600C6840EA040222F4805060
:102A70000C6940EA040222F400504C6940EA040266
:102A800022F48040CC6940EA04021868426400BF26
:102A9000002083F83C0000BF00BFCEE730B50246FF
:102AA0000B4600BF92F83C00012801D1022030BD46
:102AB000012082F83C0000BF022082F83D0010682F
:102AC00044681068816824F0700418680443106832
:102AD0004460144D1068A84213D01068B0F1804FC4
:102AE0000FD0114D1068A8420BD0104D1068A842AD
:102AF00007D00F4D1068A84203D00E4D1068A842B1
:102B000005D121F0800158680143106881600120DF
:102B100082F83D0000BF002082F83C0000BF00BFEB
:102B2000C5E700000000014000040040000800402C
:102B3000000C00400040014010B504460CB90120D3
:102B400010BD94F83D0028B9002084F83C002046D0
:102B500000F026F8022084F83D00211D206800F0D6
:102B600023FD012084F8460000BF84F83E000121C7
:102B70003F200155402001554120015500BF00BFB5
:102B8000012084F84200432001554420015545208E
:102B9000015500BF012084F83D000020D0E700006F
:102BA00008B5154A016891420FD100BF002100917C
:102BB0001249096841F00101104A11601146096883
:102BC00001F00101009100BF15E00168B1F1804FF3
:102BD00011D100BF002100910849091F096841F087
:102BE0000101064A121F11601146096801F0010136
:102BF000009100BF00BF08BD000001404438024002
:102C00002DE9F04104460D46002700BF94F83C0032
:102C1000012802D10220BDE8F081012084F83C00A7
:102C200000BF022084F83D002068866826F0770601
:102C300026F47F46206886602868502833D00CDC54
:102C4000202850D004DC00284BD0102851D149E076
:102C5000302849D040284CD139E060282DD0702848
:102C600007D0B0F5805F03D0B0F5005F41D10DE033
:102C700041E0D5E902136A68206800F0F8FC20689A
:102C8000866846F077062068866034E0D5E902134E
:102C90006A68206800F0EBFC2068806840F480409F
:102CA0002168886027E0EA686968206800F0B0FD64
:102CB0005021206800F0E6FC1DE0EA6869682068A1
:102CC00000F0B9FD6021206800F0DCFC13E0EA6848
:102CD0006968206800F09CFD4021206800F0D2FC6B
:102CE00009E000BF00BF00BF2968206800F0CAFCEF
:102CF00001E0012700BF00BF012084F83D0000BFB4
:102D0000002084F83C0000BF384684E710B586B048
:102D10000446142101A8FDF707FC234920688842D6
:102D20001ED100BF002000902048006840F0010044
:102D30001E4908600846006800F00100009000BFCE
:102D400000BF4FF4407001900220029000200390D9
:102D500004900120059001A91548FEF79DFF20E091
:102D60002068B0F1804F1CD100BF002000900F48B8
:102D7000006840F001000D4908600846006800F056
:102D80000100009000BF00BF0320019002200290CC
:102D90000020039004900120059001A90448FEF74B
:102DA0007BFF06B010BD000000000140303802403B
:102DB000000002402DE9F04104460D46164600276A
:102DC00000BF94F83C00012802D10220BDE8F08148
:102DD000012084F83C0000BF36B1042E1BD0082E21
:102DE00031D00C2E5ED145E02946206800F054FC1D
:102DF0002068806940F00800216888612068806947
:102E000020F00400216888612068806929690843EE
:102E10002168886148E02946206800F06DFC206840
:102E2000806940F40060216888612068806920F42E
:102E300080602168886120688069296940EA0120F2
:102E40002168886130E02946206800F089FC20680C
:102E5000C06940F008002168C8612068C06920F09E
:102E600004002168C8612068C06929690843216895
:102E7000C86119E02946206800F0A6FC2068C069F6
:102E800040F400602168C8612068C06920F4806057
:102E90002168C8612068C069296940EA0120216869
:102EA000C86101E0012700BF00BF00BF002084F817
:102EB0003C0000BF384689E710B504460CB9012034
:102EC00010BD94F83D0028B9002084F83C0020464D
:102ED00000F025F8022084F83D00211D206800F054
:102EE00063FB012084F8460000BF84F83E00012106
:102EF0003F200155402001554120015500BF00BF32
:102F0000012084F84200432001554420015545200A
:102F1000015500BF012084F83D000020D0E7704734
:102F200070B504460D4615B994F83E000BE0042D2B
:102F300002D13F20005D06E0082D02D14020005D57
:102F400001E04120005D012801D0012070BD1DB9C4
:102F5000022084F83E000EE0042D03D102213F2020
:102F6000015508E0082D03D102214020015502E05F
:102F700002214120015501222946206800F066FB0C
:102F80001D492068884201D1012000E0002028B1BD
:102F90002068406C40F4004021684864164920686D
:102FA000884213D02068B0F1804F0FD013492068B9
:102FB00088420BD012492068884207D01149206806
:102FC000884203D01049206888420CD1206880686C
:102FD00000F00706062E0CD02068006840F00100C3
:102FE0002168086005E02068006840F00100216861
:102FF00008600020AAE70000000001400004004033
:1030000000080040000C00400040014010B504469C
:103010000CB9012010BDA06900B100E000BF94F818
:103020003D0028B9002084F83C00204600F028F834
:10303000242084F83D002068C06820F400502168F6
:10304000C860204600F00CFC2068006920F4904025
:10305000216808612068406920F02A0021684861E1
:103060002068C06840F400502168C86000202064D7
:10307000202084F83D0084F83E000020CAE70000CC
:1030800010B586B00446142101A8FDF74DFA294970
:10309000206888424CD100BF00200090264800687C
:1030A00040F01000244908600846006800F0100055
:1030B000009000BF00BF00BF002000901E481438E1
:1030C000006840F001001C49143908600846006897
:1030D00000F00100009000BF00BF00BF0020009082
:1030E0000846006840F0020008600846006800F0EA
:1030F0000200009000BF00BF08150190022002905E
:1031000000200390032004900720059001A90B489C
:10311000FEF7C2FD402001900220029000200390A3
:10312000032004900720059001A90548FEF7B4FD8F
:1031300006B010BD001001404438024000000240BB
:10314000000402402DE9F84F04460E461746994602
:103150004FF0000A94F83D0020285AD106B117B963
:103160000120BDE8F88F00BF94F83C00012801D190
:103170000220F6E7012084F83C0000BF0020206414
:10318000212084F83D00FEF76BFE8246A784E78489
:10319000A068B0F5805F04D1206910B90025B04661
:1031A00002E035464FF0000800BF002084F83C00E4
:1031B00000BF1BE05346002280212046CDF800903E
:1031C00000F064FC08B10320CBE745B9B8F8000073
:1031D000C0F308002168486008F1020803E028787D
:1031E000216848606D1CE08C401EE084E08C002863
:1031F000E0D15346002240212046CDF8009000F057
:1032000045FC08B10320ACE7202084F83D000020F5
:10321000A7E70220A5E700BFFEE7000008B500BF52
:10322000002000901548006840F0800013490860B5
:103230000846006800F08000009000BF00BF00BF9B
:10324000002000900846006840F001000860084631
:10325000006800F00100009000BF00BF00BF002028
:1032600000900846006840F00200086008460068C8
:1032700000F00200009000BF00BF08BD30380240DF
:1032800010B50B480B4908600B48486000210948FD
:103290008160C1604FF48041016100214161816121
:1032A000C1610162FEF7E2FD08B1FEF7DEFC10BD70
:1032B000005400404C000020A086010010B50B48CF
:1032C0000B4908600B484860002109488160C160D3
:1032D0004FF480410161002141618161C16101625E
:1032E000FEF7C4FD08B1FEF7C0FC10BD0058004059
:1032F000A0000020A086010000B595B0002011902C
:103300001290139014900F9010901C2108A8FDF7B4
:103310000BF920216846FDF707F92F482F4908606F
:103320000020486000212D4881604FF6FF71C16088
:103330000021016141618161FFF7FEFB08B1FEF7E9
:1033400094FC4FF48050119011A92448FFF758FCC9
:1033500008B1FEF78AFC2148FFF7AEFD08B1FEF781
:1033600084FC00200F9010900FA91C48FFF796FBDB
:1033700008B1FEF77AFC60200890002009900A90BE
:103380000B900C900D900E90002208A91348FFF7A7
:1033900011FD08B1FEF769FC042208A90F48FFF7E8
:1033A00009FD08B1FEF761FC002000900190029039
:1033B000039004904FF40050059000200790694658
:1033C0000648FFF731FB08B1FEF74FFC0348FFF753
:1033D0009DFC15B000BD000000000140F40000207D
:1033E00000B58DB0002009900A900B900C900790CA
:1033F00008901C216846FDF797F84FF0804023495C
:10340000086000204860002120488160491EC1609A
:10341000002101618161FFF78FFB08B1FEF725FCF8
:103420004FF48050099009A91848FFF7E9FB08B14B
:10343000FEF71BFC1548FFF73FFD08B1FEF715FC32
:1034400000200790089007A91048FFF727FB08B154
:10345000FEF70BFC60200090002001900290049089
:10346000002269460948FFF7A5FC08B1FEF7FDFBFD
:10347000042269460548FFF79DFC08B1FEF7F5FBFD
:103480000248FFF743FC0DB000BD00003C010020E6
:1034900010B50B480B4908604FF4E130486000213B
:1034A00008488160C16001610C2141610021816196
:1034B000C161FFF7ABFD08B1FEF7D7FB10BD0000FF
:1034C000001001408401002000BFFEE700BFFEE7BE
:1034D0007047704710B5FEF739FE10BD00B593B0C8
:1034E000302107A8FDF720F8142102A8FDF71CF8E9
:1034F00000BF002001902548006840F0805023491B
:1035000008600846006800F08050019000BF00BFCE
:1035100000BF002001901E48006820F4404040F4A5
:1035200000401B4908600846006800F440400190D4
:1035300000BF00BF0220079001200A9010200B90CE
:1035400002200D9000210E9108210F91542110911D
:10355000022111910421129107A8FEF7FDFF08B185
:10356000FEF783FB0F2002900220039000200490BE
:103570004FF48050059000200690022102A8FEF72B
:10358000ABFE08B1FEF771FB13B000BD403802403E
:10359000007000400348006840F470000149086072
:1035A0007047000088ED00E010B50268204B98429B
:1035B0000BD0B0F1804F08D01E4B984205D01E4B67
:1035C000984202D01D4B984203D122F070024B6802
:1035D0001A43174B984214D0B0F1804F11D0154BBD
:1035E00098420ED0144B98420BD0144B984208D0FE
:1035F000134B984205D0134B984202D0124B98427D
:1036000003D122F44072CB681A4322F080034C6944
:1036100043EA040202608B68C3620B688362044B56
:10362000984201D10B6903630123436110BD00007F
:10363000000001400004004000080040000C004071
:1036400000400140004401400048014030B501F015
:103650001F05012404FA05F3046A9C430462046A0A
:1036600001F01F0502FA05F52C43046230BD30B5A8
:103670000C46816821F47F4142EA03252543294312
:10368000816030BD0A46816821F0700142F0070375
:10369000194381607047000030B5056A25F00105C7
:1036A0000562026A4368846924F0700424F003040C
:1036B0000D682C4322F002028D682A430D4DA8426A
:1036C00006D100BF22F00802CD682A4322F004028E
:1036D000084DA84207D123F4807323F400734D6989
:1036E0002B438D692B43436084614D6845630262BF
:1036F00030BD00000000014030B5056A25F010051E
:103700000562026A4368846924F4E04424F4407446
:103710000D6844EA052422F020028D6842EA051271
:103720000E4DA84207D100BF22F08002CD6842EAC8
:10373000051222F04002094DA84209D123F480630A
:1037400023F400634D6943EA85038D6943EA8503E9
:10375000436084614D688563026230BD00000140B2
:1037600030B5056A25F480750562026A4368C4694C
:1037700024F0700424F003040D682C4322F400723A
:103780008D6842EA05220F4DA84207D100BF22F4FE
:103790000062CD6842EA052222F48062094DA84207
:1037A00009D123F4805323F400534D6943EA0513F0
:1037B0008D6943EA05134360C4614D68C5630262C5
:1037C00030BD00000000014030B5056A25F4805589
:1037D0000562036A4468C26922F4E04222F440723E
:1037E0000D6842EA052223F400538D6843EA05334D
:1037F000064DA84204D124F480444D6944EA85145E
:103800004460C2614D680564036230BD0000014040
:1038100030B50B461446026A056A25F001050562BB
:10382000816921F0F00141EA041122F00A021A43F1
:103830008161026230BD30B50B461446056A25F041
:10384000100505628169026A21F4704141EA043180
:1038500022F0A00242EA03128161026230BD000040
:103860002DE9F84F04462068006920F44050E168D3
:103870000843216808612169A06808436169084319
:10388000E169084300902068C06849F20C618843F0
:10389000009908432168C8602068406920F440709E
:1038A000A16908432168486176492068884203D0AD
:1038B00075492068884203D1FEF7E6FD814602E0A3
:1038C000FEF7D2FD8146E069B0F5004F6CD10220D1
:1038D0006168A0FB015003461920A9FB0070014656
:1038E0002A463846FCF7F6FC6421B0FBF1F04FEABB
:1038F000001A02206168A0FB01510B461920A9FBA8
:1039000000712A463846FCF7E5FC834602206168D0
:10391000A0FB015003461920A9FB00712A46384636
:10392000FCF7D8FC6421B0FBF1F000EBC00101EB27
:103930000010ABEB8000322101EBC0006421B0FB32
:10394000F1F000F0F8000AEB400A02206168A0FBE9
:10395000015003461920A9FB007001462A4638464B
:10396000FCF7B8FC834602206168A0FB01500346C7
:103970001920A9FB00712A463846FCF7ABFC6421EC
:10398000B0FBF1F000EBC00101EB0010ABEB8000ED
:10399000322101EBC0006421B0FBF1F000F0070020
:1039A0005044216888606AE004206168A0FB0150EF
:1039B00003461920A9FB007001462A463846FCF749
:1039C00089FC824604206168A0FB0150034619204F
:1039D000A9FB007001462A463846FCF77BFC6421AF
:1039E000B0FBF1F000EBC00101EB0010AAEB80008E
:1039F000322101EB00106421B0FBF1F000F0F00A7D
:103A000004206168A0FB017003461920A9FB005146
:103A10003A462846FCF75EFC6421B0FBF1F00AEB65
:103A2000001A04206168A0FB01510B461920A9FB74
:103A300000712A463846FCF74DFC83460420616835
:103A4000A0FB015003461920A9FB007001462A463D
:103A50003846FCF73FFC6421B0FBF1F000EBC001FD
:103A600001EB0010ABEB8000322101EB0010642170
:103A7000B0FBF1F000F00F00504421688860BDE811
:103A8000F88F000000100140001401402DE9F041C2
:103A900004460D4617469846069E34E0701C88B3CF
:103AA0002EB1FEF7DDF9A0EB0800B0422BD900BF24
:103AB00000BF21680C3151E8001F21F4D07021684B
:103AC0000C3141E80002002AF3D100BF00BF00BF63
:103AD0002168143151E8001F21F0010021681431E0
:103AE00041E80002002AF3D100BF202084F83D0005
:103AF00084F83E0000BF002084F83C0000BF032093
:103B0000BDE8F081FFE7206800682840A84201D1A5
:103B1000012000E00020B842C0D00020F0E700BF44
:103B2000FEE703B401984100009850EAC12018BF95
:103B300004204A0D18BF40F0010040F2FF72B2EBC2
:103B4000515F08BF40F00200012808BF052002B005
:103B500070474100080218BF04200A0E18BF40F049
:103B600001004FF07F4232EA010108BF40F002003D
:103B7000012808BF0520704702480068C0F30220F2
:103B8000704700000CED00E010B5002804DB0A07C8
:103B9000130E054A135406E00A07140E034A00F0F8
:103BA0000F031B1FD45410BD00E400E018ED00E02B
:103BB00010EE101A08B5444A6846B2EB410F28D9F6
:103BC0004FF0E640B0EB410F94BF00204FF0FF30C4
:103BD00000900098002861DB60EE000A10F0010FF1
:103BE00045D010F0020FDFED391A9FED391A00EEC3
:103BF000E11ADFED381A40EE811A21EEA01AF0EE3C
:103C0000400A40EE010A08BFF1EE600AB0EE600A19
:103C100008BD314B21F0004293423CD911F0004FD6
:103C2000DFED2E0A20EE201ADFED2D0A19BF31EE4E
:103C3000601A71EE200A31EE201A71EE600ABDEEB4
:103C4000E01A11EE100A9FED271A00F0030000EEB3
:103C5000C10A9FED251A009000EEC10A9FED231ABC
:103C600000EEC10A9FED221A00EEC10AB1E79FEDF6
:103C7000211A9FED210A10F0020F00EE810A9FED3C
:103C80001F1A00EE801AB7EE000A00EE810A18BF74
:103C9000B1EE400A08BD00F061F99AE710EE100A93
:103CA0004000B0F17F4F3CBFB7EE000A08BD07D11E
:103CB0004FF00100FCF767FCBDE8084000F03EB99A
:103CC000BDE8084000F036B9B61F927E336D4C391E
:103CD000DA82083CA0AA2ABE490E494683F9223F4F
:103CE0000000004B0000C93F00A0FD390020A233B6
:103CF0001A61342CB93AB2BACA9F2A3DDDFFFFBE21
:103D00002DED020B019820F0004001909DED000B7D
:103D100002B0704710B52DED028BB0EE608AF0EE68
:103D2000408A18EE101A18EE900A00F03BFF00F0DF
:103D30007040B0F1005F0CD018EE100A20F0004087
:103D4000C0F1FF40C00F02BFB0EE480ABDEC028BCD
:103D500010BDB0EE680ABDEC028B10BD10B52DEDA4
:103D6000028BB0EE608AF0EE408A18EE101A18EE60
:103D7000900A00F017FF00F07040B0F1004F0CD037
:103D800018EE100A20F00040C0F1FF40C00F02BF43
:103D9000B0EE480ABDEC028B10BDB0EE680ABDEC77
:103DA000028B10BD00B510EE101A2DED028B81B004
:103DB000524A6846B2EB410F2ED94FF0E640B0EBC5
:103DC000410F94BF00204FF0FF3000900098B0EEFC
:103DD000408A00286ADB10F0010F4BD068EE080A19
:103DE0009FED471A9FED470A00EE810A9FED461AA4
:103DF00010F0020F00EE801AB7EE000A00EE810A02
:103E000002BF01B0BDEC028B00BD00BF01B0B1EE3E
:103E1000400ABDEC028B00BD3C4B21F000429342B6
:103E200041D911F0004FDFED3A0A20EE201ADFED04
:103E3000390A19BF31EE601A71EE200A31EE201AEC
:103E400071EE600ABDEEE01A11EE100A9FED321A13
:103E500000F0030000EEC10A9FED301A009000EE62
:103E6000C10A9FED2F1A00EEC10A9FED2E1A00EE37
:103E7000C10AABE728EE080A9FED2B1ADFED2B0AEB
:103E800010F0020F40EE410A9FED291A00EE201AB1
:103E900061EE000AB0EE480A08EE200AB6D101B081
:103EA000BDEC028B00BD00F059F88FE718EE100A48
:103EB0004000B0F17F4F0DD218EE100AFFF749FE17
:103EC000042808BF00F042F8B0EE480A01B0BDEC8B
:103ED000028B00BD09D10120FCF755FB01B0BDEC00
:103EE000028B5DF804EB00F029B801B0B0EE480A8F
:103EF000BDEC028B5DF804EB00F01CB8B61F927E9F
:103F0000B93AB2BACA9F2A3DDDFFFFBE490E494603
:103F100083F9223F0000004B0000C93F00A0FD399B
:103F20000020A2331A61342C336D4C39DA82083CFC
:103F3000A0AA2ABE30EE000A70470000DFED020A98
:103F400080EEA00A70470000000000009FED020A0A
:103F500020EE000A70470000000000102DE9F0017B
:103F60004FF07F42B2EB410F9FBF4FF0FF31016036
:103F7000BDE8F00170474FF0004242EA0123C1F36F
:103F8000C752783A551112F01F0C434CCCF1200661
:103F90007C44C1F3C752A2F178024FEA621204EBEB
:103FA000820254F8254008BFD2E9015612D0556864
:103FB00004FA0CF425FA06F73C43976805FA0CF569
:103FC00027FA06F8D26807FA0CFCF24045EA080521
:103FD0004CEA0206A4FB034CA5FB0352A6FB0363B9
:103FE0001D449D4234BF012600261319334416B1E7
:103FF000934202D903E0934201D2012200E0002261
:10400000624402F1200C9206DC0C42EA443200EEDB
:10401000102A5B03DFED210AF8EEC01A00EE103A19
:104020004FEA9C1C11F0004FB8EE400AC0F800C0E7
:1040300020EE201A00EE105ADFED190AB8EE400A01
:1040400020EE200A71EE810A70EE800A10EE902AAE
:1040500002F500626FF30B0200EE902A70EEE11A97
:1040600031EEC11ADFED101A30EE411A9FED0D0A44
:1040700020EE800A01EE210A9FED0C1A00EE810A63
:1040800004BFBDE8F0017047CCF180510160BDE88C
:10409000F001B1EE400A7047140D00000000003638
:1040A0000000802C22AAFD29DB0FC92F0000C92F98
:1040B00030380A2801D201207047002070470000E4
:1040C00010B500F0BDF9DFED251AB6EE001ADFEDF0
:1040D000240AB0EE000A234800F09EF9DFED1F1A13
:1040E000B6EE001ADFED1E0AB0EE000A1E4800F020
:1040F00093F9DFED1E1A9FED1E1ADFED1E0AB7EED3
:10410000080A1D4800F088F9F7EE001A9FED1B1A07
:10411000DFED1B0A9FED1B0A1B4800F07DF9F7EE4F
:10412000001A9FED161ADFED160A9FED160A1748C2
:1041300000F072F940F2DC51002000F0C1F940F2C9
:10414000DC51012000F0BCF940F24C41022000F0AB
:1041500099F901200E49087010BD0000000034429A
:10416000CDCC4C3DC8010020E00100200000B4424D
:104170009A99993E0AD7A33CF8010020CDCC4C3E39
:104180000AD7233CCDCC4C3F10020020280200204F
:104190000600002010B504462046FDF769FD10BD5D
:1041A00013B50C464FF0FF33012269460248FEF773
:1041B000C9FF00981CBD0000840100202DED068B76
:1041C00084B0FDF7CFFFFFF789F9FFF727F8FFF776
:1041D00057F8FFF773F8FFF78FF8FFF701F9FFF7CC
:1041E00057F9FDF73DFE0446FCF780F930A0FCF7D7
:1041F000E9F8FFF765FF36A0FCF7E4F857E041481F
:1042000000F080F93F49404800F0F8F93F4A3E4944
:104210003C4800F027FB3B4890ED020A10EE101AD4
:10422000084600F087FC41EC180B364890ED010A77
:1042300010EE101A084600F07DFC41EC190B3148D5
:1042400090ED000A10EE101A084600F073FC41ECE5
:104250001A0B8DED028B8DED009B53EC1A2B2CA0CD
:10426000FCF7B0F82848007AD8B1274890ED010A49
:1042700010EE101A084600F05DFC41EC180B2248C5
:1042800090ED000A10EE101A084600F053FC41ECC5
:10429000190B8DED008B53EC192B28A0FCF792F82D
:1042A00002E030A0FCF78EF80A20FFF773FFA6E7C4
:1042B0000A0DE9A39EE99596E9A39EE68EA7E7B3CA
:1042C000BBE7BB9FE590AFE58AA82E2E2E0A0D0016
:1042D000E7B3BBE7BB9FE5889DE5A78BE58C96E53B
:1042E000AE8CE68890EFBC8CE5BC80E5A78BE68EB3
:1042F000A7E588B6E5BEAAE78EAF2E2E2E0A0D0AD8
:104300000D000000340000204000002000000020CC
:10431000E5A7BFE680813A20526F6C6C3D252E31B7
:10432000662C2050697463683D252E31662C205917
:1043300061773D252E3166207C200000E79BAEE6AC
:10434000A0873A20583D252E32662C20593D252E37
:104350003266205BE6A380E6B58BE588B05D0A0D8A
:1043600000000000E79BAEE6A0873A20E69CAAE6A4
:10437000A380E6B58BE588B00A0D0000F0EE401A88
:10438000B0EE602A71EEC24AF0EE640AD0ED004A47
:1043900064EEA04AF0EE642AD0ED034A40EE814A72
:1043A000C0ED034AD0ED014A90ED035A64EE854A10
:1043B000F0EE643AD0ED044A70EEE44A84EE815A9D
:1043C000B0EE453AD0ED024A64EE834AB0EE644A5C
:1043D000C0ED040A72EEA34A74EE844AB0EE640A99
:1043E000D0ED054AF4EEC04AF1EE10FA04D2D0ED59
:1043F000054AB0EE640A0EE0D0ED054AF1EE644ADB
:10440000F4EEC04AF1EE10FA05DDD0ED054AF1EE0A
:10441000644AB0EE640A704780ED000AC0ED010AFC
:1044200080ED021A9FED052A80ED032A9FED032AF5
:1044300080ED042AC0ED051A70470000000000005E
:1044400010B500210D48FEF76BFD04210B48FEF767
:1044500067FD00210A48FEF763FD40F2DC510020B1
:1044600000F02EF840F2DC51012000F029F84FF462
:104470007A71022000F006F810BD0000F400002060
:104480003C01002030B5B1F57A7F02DA4FF47A7141
:1044900004E0B1F5FA6F01DD4FF4FA61074C2468CE
:1044A000E26A01FB02F444F62065B4FBF5F302284E
:1044B00002D1024C2468636330BD00003C0100203F
:1044C00030B5B1F57A7F02DA4FF47A7104E0B1F5D4
:1044D000FA6F01DD4FF4FA61094C2468E36A01FBCD
:1044E00003F444F62065B4FBF5F218B9044C2468D3
:1044F000626304E0012802D1014C2468A26330BD4C
:10450000F400002010B52DED028B0446364890EDE6
:10451000000ADFED360A30EE200A80ED000A90ED49
:10452000000AFFF73FFCF1EE040A20EE208AFBF7B9
:1045300097FE00EE100AB8EEC00ADFED2D0A80EEFD
:10454000201AB6EE000A31EE400AF0EE000A00EE44
:10455000208A84ED008A2448D0ED000A9FED251AB8
:1045600060EE810AB0EE600AFFF722FBF0EE080A67
:1045700020EE208AFBF774FE00EE100AB8EEC00AA7
:10458000DFED1B0A80EE201AB6EE000A31EE400A7B
:10459000F0EE000A00EE208A84ED018A1248D0ED88
:1045A000000A9FED151A60EE810AB0EE600AFFF76F
:1045B000F9FBF2EE040A20EE208AFBF751FE00EE32
:1045C000100AB8EEC00A9FED0A1AC0EE010AB6EE54
:1045D000000A30EEC00AF1EE040A00EE208A84EDF3
:1045E000028ABDEC028B10BD080000200AD7233CD4
:1045F0000000004F3333333F9A99993E70B52DED4B
:10460000028B04460D46474890ED000ADFED460A4E
:1046100030EE600A80ED000A90ED000AF6EE000A26
:10462000B4EEE00AF1EE10FA2DD2B2EE040A80EDFB
:10463000000AFBF715FE00EE100AF8EEC00A9FED27
:104640003B1A80EE810AF6EE000A30EE600ADFEDDA
:10465000380A20EE200A374880ED000AFBF700FEFA
:1046600000EE100AF8EEC00A9FED301A80EE810AC3
:10467000F6EE000A30EE600ADFED2D0A20EE200A89
:104680002D4880ED000A95ED000ADFED2C0A80EE42
:10469000201A284890ED000A31EE000A84ED000A45
:1046A000D5ED010A9FED251A80EE810A2248D0ED52
:1046B000000A30EEC00A84ED010A94ED000AF0EE23
:1046C000400AB7EE000AFFF749FBB0EE408AF0EE71
:1046D000480ABFEE000AFFF71DFB84ED000A94EDC7
:1046E000010AF0EE400AB7EE000AFFF737FBB0EE22
:1046F000408AF0EE480ABFEE000AFFF70BFB84ED9C
:10470000010A084890ED000AF2EE020AB4EEE00A4F
:10471000F1EE10FA01D2012000E000202072BDEC81
:10472000028B70BD0C000020CDCC4C3D0000004F32
:10473000CDCC4C3F10000020140000200000B442FB
:1047400070B52DED068B06460C4615469FED3E0ACC
:10475000B0EE408A207AE0B394ED000AF0EE400A11
:10476000B0EE481A9FED390A3948FFF707FE94ED7D
:10477000010AF0EE400AB0EE481A9FED340A3548BF
:10478000FFF7FCFD02203449087094ED000A10EE9A
:10479000101A084600F0CEF941EC1A0BB0EE4A0AA6
:1047A000F0EE6A0AFFF7ACFAB0EE409AF0EE609ACB
:1047B0009FED2A0B53EC102B51EC190B00F02AF94A
:1047C00024D294ED010A10EE101A084600F0B2F956
:1047D00000E018E041EC1A0BB0EE4A0AF0EE6A0A6B
:1047E000FFF78EFAB0EE409AF0EE609A9FED1B0B49
:1047F00053EC102B51EC190B00F00CF906D20320EE
:104800001549087002E00120134908701248007829
:10481000012804D0022806D003280CD107E040F27A
:104820004C40A8800BE040F2AA50A88007E04FF46B
:10483000E160A88003E040F24C40A88000BF00BFC8
:10484000BDEC068B70BD00000AD7233C00000000C1
:10485000100200202802002006000020000000A016
:104860009999B93F70B52DED048B06460D46144657
:104870009FED4F0AF0EE409A9FED4E0AB0EE409A3F
:1048800096ED000AF0EE400AB0EE691A9FED490A73
:104890004948FFF773FDB0EE408A96ED010AF0EE4D
:1048A000400AB0EE691A9FED430A4448FFF766FDDF
:1048B000F0EE408A287AE8B195ED000AF0EE400A61
:1048C000B0EE691A9FED3B0A3D48FFF757FD95EDA5
:1048D000010AF0EE400AB0EE691A9FED360A394837
:1048E000FFF74CFDB0EE409A224629463046FFF7CE
:1048F00027FF02E040F24C40A0809FED330A28EEF3
:10490000000ADFED320A80EE201ABDEEC10A10EE79
:10491000100A00F2DC519FED2C0A29EE000ABDEED0
:10492000C00A10EE100A091A9FED270A28EE800A25
:10493000DFED260A80EE201ABDEEC10A10EE100A45
:10494000084420809FED200A28EE000ADFED1F0AB0
:1049500080EE201ABDEEC10A10EE100A40F2DC51C2
:10496000091A9FED190A29EE000ABDEEC00A10EEE1
:10497000100A091A9FED140A28EE800ADFED130AC7
:1049800080EE201ABDEEC10A10EE100A08446080C5
:1049900021880020FFF794FD61880120FFF790FD3A
:1049A000A1880220FFF76EFDBDEC048B70BD0000F6
:1049B0000AD7233C00000000C8010020E0010020CD
:1049C00010020020280200200000FA4300003442B8
:1049D00010B500290AD00878002807D00548784487
:1049E000FCF7FEFA002801D0002010BD02487844F0
:1049F00010BD0000AA030000A2030000491058BF28
:104A0000C1F140415B1058BFC3F140438B42EFF30B
:104A10000080704751EA030C17D41CF5801F58BF63
:104A2000BCF5801F00F10680994218BF704708BF8F
:104A30009042704707D711F5801F58BF13F5801FAC
:104A400019D499427047894270471CF5801F08D5D8
:104A5000BCF5801FF7D58B4218BF704708BF824254
:104A600070474FF4001C1CEB410F38BF1CEB430F89
:104A700001D28B42704770B500F008F892244900CB
:104A80004FF000514FF08053FFF7B8BF0EF1020E08
:104A90002EF0030E5EF8046B364205D4012A43EB78
:104AA000030515F5001F12D8012841EB010C1CF578
:104AB000001F0CD80ED14FEAD17C15F5001F0CEB6E
:104AC0004C0C0CF1020C08BF4CEBD37C04E04FF013
:104AD000080C01E04FEAD37C0CEB4C0526FA05F6F6
:104AE00006F00706B6F1040C06D20EEB860CBDE804
:104AF00070404CF0010C6047DFE80CF0090B02023B
:104B00004FF000414FF00000A1F5002170BD1946A3
:104B10001046012851EB010418BFD4F5001484BFDE
:104B2000002001F0004170BD0808A0F500114FEA17
:104B30003101704743004FEAD30C4FEA3C0C43402D
:104B40001FBF40070CF1605113F0FE4F70471CF07F
:104B5000006F03D100200CF0004170470CF00043BF
:104B600043EA507010B540EACC0000F044F800BFB2
:104B7000000000924FEA0001FFF7D6BF4FF000415E
:104B80004FF00000A1F500217047000000EE100A70
:104B900000EE901AB4EE600AF1EE10FA78BF70479A
:104BA00000F00DB810B5FFF7F1FFEFF3008020F033
:104BB000104038BF40F0004080F3008810BDBDE8D1
:104BC000104010B500F017F80000000900F007B819
:104BD0004FF0404010F1004FEFF30080704740105D
:104BE00058BFC0F14040491058BFC1F14041814217
:104BF000EFF3008070470EF1020E2EF0030E5EF808
:104C0000044B244204D44FEA4102B2F17F4F11D841
:104C10004FEA4003B3F17F4F0CD80ED14FEAD07C5E
:104C2000B2F17F4F0CEB4C0C0CF1020C08BF4CEBBB
:104C3000D17C04E04FF0080C01E04FEAD17C0CEB92
:104C40004C0324FA03F404F00704B4F1040C06D274
:104C50000EEB840CBDE810404CF0010C6047DFE81F
:104C60000CF0070802024FF00040A0F5800010BDD4
:104C70000846420018BFD2F1807288BF00F00040A1
:104C800010BD4FF04070E1EE100A7047FBF758BDC1
:104C900000000000000000000102030406070809EC
:104CA0000000000001020304000000006E83F9A26E
:104CB0002915444ED15727FCC0DD34F5999562DBA8
:104CC0004190433CAB6351FE02400000000000A055
:104CD0000000000005400000000000C800000000C7
:104CE0000C4000000000409C000000001940000043
:104CF0000020BCBE0000000034400000BFC91B8E75
:104D000000000004B5400000504BCFD06607E2CF52
:104D1000010000006C4100003E8251AADFEEA73482
:104D200001000000D9420000DCB5A0E23A301F9734
:104D3000FFFFFFFFB4450000FD25A0C8E9A3C14F58
:104D4000FFFFFFFFFF3F00000000008000000000A9
:104D5000FF3F000000000080000000003A74740073
:104D60003A7474003A747400A44D000800000020E6
:104D700034000000D0010008D84D000834000020A5
:104D80004C0A0000EC0100081C0000004300000079
:104D9000F8FFFFFF0C0000000E0000000F000000F5
:104DA0002E000000000000000000000000000000D5
:104DB000000020419A99993ECDCC4C3E0000000065
:104DC00010000000010000000024F40000000000BA
:084DD0000000000000000000DB
:040000050800019559
:00000001FF
