:020000040800F2
:10000000480D002029030008C54E00089B41000848
:10001000C14E0008F92600087758000800000000CB
:100020000000000000000000000000004F52000827
:10003000FD260008000000004D5200085152000843
:100040004303000843030008430300084303000878
:100050004303000843030008430300084303000868
:100060004303000843030008430300084303000858
:100070004303000843030008430300084303000848
:100080004303000843030008430300080000000086
:100090000000000000000000000000004303000812
:1000A0004303000843030008430300084303000818
:1000B0004303000843030008430300084303000808
:1000C00043030008430300084303000843030008F8
:1000D0004303000843030008430300080000000036
:1000E0004303000843030008430300080000000026
:1000F00000000000000000000000000043030008B2
:100100000000000043030008430300084303000805
:1001100000000000000000000000000000000000DF
:100120004303000843030008430300084303000897
:100130004303000800000000000000000000000071
:100140000000000000000000000000004303000861
:100150004303000843030008430300084303000867
:1001600043030008430300080000000000000000F3
:10017000000000000000000000000000000000007F
:100180000000000043030008000000000000000021
:100190004303000800F002F800F09CF80AA090E881
:1001A000000C82448344AAF10107DA4501D100F032
:1001B00091F8AFF2090EBAE80F0013F0010F18BF63
:1001C000FB1A43F001031847A86A0000C86A000040
:1001D000103A24BF78C878C1FAD8520724BF30C873
:1001E00030C144BF04680C60704700000023002445
:1001F00000250026103A28BF78C1FBD8520728BF37
:1002000030C148BF0B6070476E2900F07F837029B2
:1002100000F0E986662906F07983652906F0768381
:10022000672906F07383612906F0728303681B0A4D
:1002300028BF41F08001692900F02C83642900F077
:100240002983752900F026836F2900F076867829A6
:1002500000F0B586E92900F01186E42900F00E8649
:10026000F52900F00B86EF2900F07386F82900F0DD
:10027000B4860368DB0928BF41F08001632901F0DF
:100280004D81732901F05281E32901F05D81F32949
:1002900001F06281002070471FB506F032FB9DE837
:1002A000030001F045FC00F0D6F900F0C9FE04009F
:1002B0000020002106F062FA401C6060002000214E
:1002C00006F046FAE06001F0BDF91FBD10B501F07F
:1002D00022FA10BD01F0AAFA1146FFF7DDFF05F082
:1002E0000BFE01F0B7FB03B4FFF7F0FF03BC01F016
:1002F000B7FD00000B49D1F800C04A685CF8043B28
:100300001068184442F8040B8C4528BFA1F1DC0C9E
:100310008A4228BFA1F1DC02C1F800C04A6020F087
:1003200000407047E0050020094880470948004721
:10033000FEE7FEE7FEE7FEE7FEE7FEE7FEE7FEE795
:10034000FEE7FEE704480549054A064B70470000F2
:10035000115300089501000848070020480D0020AF
:10036000480900204809002053EA020C00F0698087
:100370002DE9F04B4FF00006002B1FBFB3FA83F5B9
:1003800003FA05F424FA05F65E4012BF1643B2FAEA
:1003900082F502FA05F4C5F120051EBF22FA05FC1C
:1003A00044EA0C04203556EA044C4FEA144418BFC2
:1003B000641C4FF000084FF00009904271EB030CF1
:1003C00039D3002919BFB1FA81F701FA07F6B0FA5B
:1003D00080F700FA07F6C7F120071EBF20FA07FCD6
:1003E00046EA0C062037B6FBF4FCA7EB0507103FE6
:1003F00007F01F0BCBF120060CFA0BFB2CFA06F6CC
:1004000044BFB3460026202FA4BF5E464FF0000B2A
:100410005BEA060C08BF4FF0010B19EB0B09ABFBB5
:10042000027C48EB0608C01B06FB02CC0BFB03CC8E
:1004300071EB0C01C1E70B46024641464846BDE858
:10044000F08B13B54FF000004FF00001AFF30080C8
:10045000BDE81C40704700007CB51D4616460C00E8
:10046000009001D02044401E074B7B442A46694639
:100470000190304600F071FC05461CB10020694631
:1004800000F07EFC28467CBD1D0900000FB4044925
:1004900010B503AA029800F081FC10BC5DF814FBB3
:1004A0003C0600202DE9F05F894604464FF0000A23
:1004B000DFF874B1FB44C0F820A02046E16888470B
:1004C000002874D0252806D0D4E901219047206A5D
:1004D000401C2062F1E700265F462046E16888471D
:1004E0002028054607DB312D05D2781910F8200C9D
:1004F00008B10643F1E7B00701D526F00406C4F8B9
:100500001CA00027C4F818A02A2D09D0284605F001
:1005100093FB38B304EB8708303DC8F8185019E056
:1005200059F8041B204604EB87029161E168884773
:10053000012F054618D1E069002820DA26F02006B0
:100540001DE0D8F8180000EB800005EB40003038C3
:10055000C8F818002046E1688847054605F06CFB9E
:100560000028EED1012F0AD02E2D08D12046E168B7
:1005700088477F1C0546022F46F02006C4DBA06991
:10058000002803DA404246F00106A061F00701D0DE
:1005900026F010066C2D0BD0682D09D04C2D39D0CB
:1005A0006A2D35D0742D35D07A2D33D016E038E051
:1005B000E1682F4620468847B842054609D16C2F8E
:1005C00026D04FF48060E168064320468847054600
:1005D00004E06C2F1AD04FF4807006430DB3A5F1E0
:1005E0004100192802D8203546F400664A462946BB
:1005F000204626604E46FFF707FE80B101280BD04B
:10060000F61D26F0070000F1080956E74020E4E750
:100610008020D8E70020D6E706F104094DE72846F8
:1006200052E7206ABDE8F09FAE6600000B4910B5A6
:10063000A1F17C020A4CC2E93712372106E000EB37
:10064000104342F82130074B00FB03400B1EA1F181
:100650000101F4DC10BD0120E8E700008005002066
:10066000E119D666CD0D0100032A40F2308010F06A
:10067000030C00F0158011F8013BBCF1020F62443D
:1006800098BF11F801CB00F8013B38BF11F8013BCE
:10069000A2F1040298BF00F801CB38BF00F8013B7B
:1006A00011F0030300F02580083AC0F0088051F8EB
:1006B000043B083A51F804CBA0E80810F5E7121DF6
:1006C0005CBF51F8043B40F8043BAFF30080D20715
:1006D00024BF11F8013B11F801CB48BF11F8012BE1
:1006E00024BF00F8013B00F801CB48BF00F8012B04
:1006F000704710B5203AC0F00B80B1E81850203A8E
:10070000A0E81850B1E81850A0E81850BFF4F5AFB1
:100710005FEA027C24BFB1E81850A0E8185044BF3B
:1007200018C918C0BDE810405FEA827C24BF51F8A8
:10073000043B40F8043B08BF7047D20728BF31F89C
:10074000023B48BF11F8012B28BF20F8023B48BFED
:1007500000F8012B704702F0FF0343EA032242EA4C
:10076000024200F04DBC4FF0000200B51346944623
:100770009646203922BFA0E80C50A0E80C50B1F1F9
:100780002001BFF4F7AF090728BFA0E80C5048BF0D
:100790000CC05DF804EB890028BF40F8042B08BFAB
:1007A000704748BF20F8022B11F0804F18BF00F8A7
:1007B000012B704770477047704710B500F044FC3C
:1007C000006810BD10B5044600F03EFC046010BD8A
:1007D00070B5044685690068C10601D5302600E081
:1007E0002026C00707D070BDD4E9012130469047CC
:1007F000206A401C20626D1EF6D570BD70B504469F
:1008000085690078C00707D170BDD4E90121202097
:100810009047206A401C20626D1EF6D570BD0968A5
:100820004A0501D540B27047C905FCD500B27047F2
:1008300009684A0501D5C0B27047C905FCD580B228
:10084000704770B50C460546012A05D02878800609
:1008500000D5EA69002302E0012305E05B1C934216
:1008600002D2E05C0028F9D1A869E618C01AA86194
:10087000286A184428622846FFF7AAFF04E0D5E951
:10088000012114F8010B9047B442F8D32846FFF732
:10089000B5FF70BD2DE9F0410646002410687529AA
:1008A000314616A510D0FFF7BAFF002802DA404201
:1008B00013A507E031688A0701D512A502E04907B0
:1008C00004D511A5012401E0FFF7B2FF00210A229F
:1008D00006F1240709E0B0FBF2FCB0FBF2F302FBE7
:1008E0001C00303078541846491C0028F3D12346A8
:1008F0002A463046BDE8F04100F0EFBB00000000A2
:100900002D0000002B00000020000000116802688C
:10091000006A530501D508700AE0D30501D50880A7
:1009200006E0130603D5C217C1E9000200E0086023
:100930000120704770472DE9FF4F0C461E464FF0CF
:10094000FF378BB0D2E90001DDF860800A908A465B
:10095000C1F30A5505B93D46002108464FF0000095
:10096000BAF1000F00F4400005DA00EB80004FF40C
:10097000400101EA50004FEA9059B9F1010F00DD42
:10098000B9460A9850EA4A000ED044F61050A5F233
:10099000FF3545432F14B8F1000F1ED07542291EB4
:1009A0001EDDC9F100021CE0B8F1010F4FF000009C
:1009B00001D0302103E0F24305E02154401CB04255
:1009C000FBDB30460022002121540B99C1F808803E
:1009D000C1E900200FB0BDE8F08FBD1B6D1CDEE744
:1009E0004A4600DA694206A800F0BAFD06AB93E871
:1009F000070003AB83E8070050460A9901F0C1FAEB
:100A00008DE80700A0F500501F3800900398002DD6
:100A100009DD42F21F014A46084403A903906846D3
:100A200001F020FD08E0A0F500504A461F3803A958
:100A30000390684601F02AFD8DE807000004000CD1
:100A400003D04FF0FF30410800E01046B8F1000F2E
:100A500003D00022009215461EE0751E05D400F05A
:100A6000F7FA303262556D1EF9D5B34601220843BC
:100A700002D000227F1C04E02078302801D100221F
:100A80007F1E002A099786D01DE0112D07DA00F09D
:100A9000DFFA303262556D1C50EA0102F5D108438D
:100AA00002D00098C8B10EE00021681E05E0235C6A
:100AB000625C63542254401E491C8142F7DBAB4602
:100AC000A81B401E0990002004F80B000B98099AFF
:100AD000C0F80880C0E9002B7CE711264FF0000821
:100AE00059E72DE9F04F88460446D21D22F0070150
:100AF00091B0D1E90001CDE90A0104F0BEFE024641
:100B00000B98C00F01D02D2007E02068810701D588
:100B10002B2002E0202101EAC000032A099001D025
:100B2000072A05DB03464146204600F0ADFC0BE1F9
:100B30002078800601D5E06900E00620B8F1650F55
:100B4000814606D0B8F1660F18D0B8F1670F70D1A2
:100B500031E00020B9F1110F009001DB112301E019
:100B600009F101030AAA01A90CA8FFF7E4FEDDE9D7
:100B70000C70002609F10105834647E001204B4631
:100B800000904FF000470AAA01A90CA8FFF7D3FE76
:100B9000DDE90DB00C995D46002610B909F10100A0
:100BA0000D18B9EB050003D4C0F1FF3609F10105BA
:100BB000A5EB09002BE0B9F1010F01DA4FF00109B3
:100BC0000020B9F1110F0090484601DD112300E02B
:100BD00003460AAA01A90CA8FFF7ADFEDDE90C70D7
:100BE0004D4600268346207800070AD4AB4500DA3C
:100BF0005D4601A8012D04DD411911F8011C3029C1
:100C000007D04F4502DA17F1040F04DA01208246BB
:100C10000FE06D1EEEE7002F02DCED1B3E4403E00B
:100C2000781CA84200DD7D1CB81B00F1010A4FF0C2
:100C300000472078000703D4AA4501DB4FF0FF3AB4
:100C40000021B7F1004F0DF143088DF8431024D077
:100C500002202B23002F01DA7F422D230A21021EBE
:100C6000A0F1010000DC5FB197FBF1FC97FBF1F212
:100C700001FB1C7C17460CF1300C08F801CDEEE7A7
:100C8000A8F1010003702188090501D5452100E084
:100C90006521A0F1010800F8011C09980FA9A1EB3A
:100CA0000807FF1D00B10120411901EBEA70A1699D
:100CB0003844081A401EA0612078C00602D420469D
:100CC000FFF786FD099828B1D4E901219047206AF1
:100CD000401C20622078C00622D52046FFF778FD10
:100CE0001EE0002E04DBB34502DD01A8805D00E0BC
:100CF0003020D4E901219047206A401C2062761CF4
:100D0000AAF101005FEA000A0AD100F099F9C0686F
:100D10000168405CD4E901219047206A401C2062B0
:100D2000281EA5F10105DCDC07E0D4E9012118F853
:100D3000010B9047206A401C2062381EA7F1010772
:100D4000F3DC2046FFF75AFD032011B043E6000014
:100D500001694A1C02610878704700B58FB0CDE97F
:100D600001310021059105497944CDE9031011466F
:100D70006846FFF797FB0FB000BD0000E5FFFFFFDF
:100D80000A6802F8010B0A607047D1E900239A4211
:100D900002D2531C0B60107070470000074B70B5F7
:100DA0000D467B44FFF7D9FF0446284600F046FC79
:100DB00010B14FF0FF3070BD204670BDE75000000D
:100DC0002DE9FF5F15468A460446DFF8AC80F844FB
:100DD0000027D8E900103E46CDE9001010E03AF8AF
:100DE00016106A4602A800F0C9FC411C07D0217801
:100DF000890603D5E269391891420DD80744761C5B
:100E00002078800602D5E069B84205DDAE42E6DB17
:100E10003AF816000028E2D1A069C01BA061204664
:100E2000FFF7D6FCD8E90010CDE90010002017E04C
:100E30003AF818106A4602A800F0A0FCB0F1FF3F93
:100E400081460BD000250DF1080B05E0D4E9012106
:100E50001BF8050090476D1C4D45F7D308F10100C4
:100E6000B0428046E4DB206A384420622046FFF727
:100E7000C5FCBDE8FF9F0000A65D00002DE9F04124
:100E80008046D21D22F007020025D2E90002F52992
:100E900015A614D0011E72F1000106DA0023D0EB72
:100EA000030063EB020211A608E0D8F800108B07DC
:100EB00001D50FA602E0490701D50EA6012511466E
:100EC000002408F1240704E000F0C2F830323A555B
:100ED000641C50EA0102F7D12B46324621464046B7
:100EE000BDE8F04100F0F9B8000000002D0000005E
:100EF0002B0000002000000030B4002100F1240489
:100F000008E002F00705D208303542EA4372DB08F8
:100F10006554491C52EA0305F3D10468002310A26A
:100F2000250707D5A40600D421B1C46901230DA269
:100F3000641EC46130BC00F0D0B810B50446214630
:100F40001068FFF775FC02462046BDE810400023FC
:100F5000D2E7D21D22F00701D1E90023CCE700003F
:100F60000000000030000000F0B40D4601880905C3
:100F700002D5214C7C4402E01F4C7C440E340021FD
:100F800000F1240608E002F00F071209E75D42EACB
:100F900003721B097754491C52EA0307F3D1027804
:100FA0000023120704D5702D06D009B10223113495
:100FB0002246F0BC00F091B801231034F8E770B578
:100FC00004460D4621461068FFF732FC02462946CA
:100FD0002046BDE870400023C6E7D21D22F007037B
:100FE000D3E90023C0E70368126843F020030360DD
:100FF0000823C3610023B7E7085C00004FF000023C
:101000000429C0F0128010F0030C3FF4AEABCCF119
:10101000040CBCF1020F18BF00F8012BA8BF20F888
:10102000022BA1EB0C01FFF7A0BB5FEAC17C24BF40
:1010300000F8012B00F8012B48BF00F8012B704786
:10104000004870470407002000487047E40600206D
:1010500030B5B0F10A024FEA900E71F100034EEA8A
:10106000817EB0EB0E0061EB91014FEA101E4EEA5B
:10107000017E10EB0E0041EB11114FEA102E4EEAEB
:10108000016E10EB0E0041EB11214FEA104E4EEABB
:10109000014E10EB0E0041EB1141401841F10001EF
:1010A0004FEAD00040EA41704FEAD10110EB8005D1
:1010B0004FEA810444EA907444EB01046D1944EB57
:1010C0000404521BA3414FF0000348BF0A3200D56D
:1010D00030BD401C41F1000130BD2DE9F0470D4607
:1010E00099469246044600F124080168880604D512
:1010F000E06921F01001216000E00120A84201DD3B
:10110000471B00E00027A1697A1902EB0900081AC1
:10111000A0612078C00602D42046FFF759FB0026C4
:1011200008E0D4E901211AF806009047206A401C23
:10113000761C20624E45F4DB2078C0060AD5204696
:10114000FFF746FB06E0D4E9012130209047206AF2
:10115000401C2062381EA7F10107F4DC07E0D4E947
:10116000012118F805009047206A401C2062281EC3
:10117000A5F10105F3DC2046FFF740FB20780006CF
:1011800002D50220BDE8F0870120FBE72DE9F04FF2
:1011900004460D46D21D22F0070089B0D0E9009721
:1011A0004846394604F069FB0246F80F01D02D236A
:1011B00007E02068810701D52B2302E0202101EA06
:1011C000C0038DF820300BB1012000E00020032A7D
:1011D000824601D0072A04DB2946204600F054F954
:1011E0003FE12078800601D40D2500E0E569C7F3D2
:1011F0000A560D2D49DA00214FEA175B08464FF0D9
:101200000000002F00F4400007DA00EB80004FF4EC
:10121000400100EBD07001EA60008115012901DD79
:101220004FF0FF3100224FEA850CBCF1180F06D3B6
:101230001346ACF118004FF08052C24003E04FF467
:10124000801323FA0CF30CF10C0CBCF1200F04D327
:10125000ACF1200C09FA0CF001E007FA0CF00029BF
:101260004FF0004801DD18B90FE00ED140450CD316
:1012700019EB02095F4121B9404502D19F4329EA98
:101280000209BBEB175F00D0761C2088000502D551
:101290007B48784402E07A487844193808AA302319
:1012A00002F80A30037C0AF10101002E0AF1020A59
:1012B00053546A4602DC4FF0300101E04FF0310137
:1012C0004FF001088DF8001002D0A6F2FF3603E0BF
:1012D00059EA470100D06B4E002D02DC2178090746
:1012E00004D54FF002082E218DF80110C4460021CC
:1012F0000BE0C7F303433F01C35C491C6D1E02F8BA
:101300000830052908F1010801DA002DF1DC00217F
:101310000CE000EB1973491C1B786D1E082902F8BC
:1013200008304FEA091908F1010801DA002DF0DC54
:1013300021688B0602D516E0A8F10108E04505DD1D
:1013400002EB080313F8013C302BF5D0B8F1000F85
:1013500009DD02EB080313F8013C2E2B03D109072A
:1013600001D4A8F10108002D05DD3E2102F8081086
:101370006D1E08F10108407C002E02F8080008F1FB
:10138000010804DA2D20764202F8080002E02B2042
:1013900002F808000A214FF47A70864208F1010829
:1013A0000BDB96FBF0F3303302F8083096FBF0F3DA
:1013B00008F1010800FB136601E0642E0CDB6420D9
:1013C00096FBF0F3303302F8083096FBF0F308F1A7
:1013D000010800FB136601E00A2E06DB96FBF1F024
:1013E000303002F8080008F1010896FBF1F001FB2B
:1013F0001060303002F80800A16908F1010808EB1C
:10140000050202EB0A00081AA0612078C00602D487
:101410002046FFF7DDF9216A08AE01EB0A002062E1
:1014200004E0D4E9012116F8010B9047BAF1010A52
:10143000F7D22078C00602D52046FFF7C9F96E46DC
:1014400009E016F8010B3E280FD0D4E9012190479E
:10145000206A401C2062B8F10108F2D22046FFF752
:10146000CDF909B00320BDE8F08F206A284420623E
:1014700003E0D4E90121302090476D1EEBD3F8E75B
:101480002559000002FCFFFF2DE9F0411F460446EC
:1014900003260168072A01F4006004DB08B116A5E1
:1014A00005E016A503E008B115A500E015A521F09B
:1014B00010002060A069C01EA0610FB1401EA06195
:1014C0002046FFF785F94FB1D4E90121384690470E
:1014D000206A401C2062C01C206206E0206AFAE7F5
:1014E000D4E9012115F8010B9047761EF8D2204669
:1014F000FFF784F9BDE8F0814E414E006E616E0049
:10150000494E4600696E660010B5436913B1AFF3EA
:10151000008001E0FFF795F9012010BD127800F17D
:1015200024010A7000224A700122EDE711684FF091
:10153000FF32E9E710B5436913B1AFF3008001E072
:10154000FFF73EFC012010BD128800F124018284C7
:101550000022C2840122EDE711684FF0FF32E9E773
:101560002DE9F047814616468AB0334878440DC8C5
:101570008DE80D0030487844801C03AC0DC884E829
:101580000D0041F69B300844372190FBF1F290FBAF
:10159000F1F5A5F1800501FB12041B3C02D5644264
:1015A000012000E00020DFF890A080460027FA44E8
:1015B000AAF1BE0A0DE0E00709D03246684607EB03
:1015C00047010AEB810100F061FF8DE8070064101C
:1015D0007F1C002CEFD1184F7F44AC3F18E0E80788
:1015E00014D007EB04100DF1180A90E80E008AE8F9
:1015F0000E00C068F04201D198190890324606A941
:1016000003A800F043FF03AB83E807006D10641CE0
:10161000002DE4D132466946B8F1000F03A802D08C
:1016200000F020FF01E000F031FFC9E90001C9F836
:1016300008200AB0BDE8F087DC560000007B00F00F
:101640008000704710B542485421FFF78CF841489C
:101650005421FFF788F840485421FFF784F83F49A8
:101660003B483C4A3F4B08603D490A603A49196093
:10167000531C0365481C1065012008653B48344A2B
:1016800039A1784400F04AF920B9384878440A383A
:1016900000F0E9F937482F4A35A1784400F03EF9C7
:1016A00020B9344878440A3800F0DDF932482A4A33
:1016B0002FA1784400F032F920B92F4878440A3835
:1016C00000F0D1F940232248DC000021224600F03E
:1016D00002F920B125487844543800F0C4F91D4877
:1016E00022464023002100F0F6F820B1214878443A
:1016F000543800F0B8F9184822461023002100F0B1
:10170000EAF8002806D01C487844BDE81040563856
:1017100000F0A9B910BD104870B5006D20F00104AB
:101720000B4800F071F90B4800F06EF90A4800F020
:101730006BF909E0206D20F00105204600F064F906
:10174000204600F0A1F82C46002CF3D170BD00001B
:10175000E80500203C060020900600205C000020E8
:10176000600000206400002072000000DE550000D0
:1017700077000000CA550000B655000070B5164647
:101780000C46054600F078F8036893F8010101283B
:1017900006D0FF2C0FD8185D68B101202C7070BDE9
:1017A000D3F807013246214603F2071303442846C3
:1017B000BDE8704018474FF0FF3070BD0EB5CDE961
:1017C000000100F02EFB029069460120ABBE0EBD69
:1017D00008B5694600900220ABBE08BD1FB58DE874
:1017E000070069460520ABBE04B010BD1FB58DE8EB
:1017F0000F0069460620ABBEF6E708B569460090C3
:101800000920ABBE08BD1CB5CDE9000169460A2020
:10181000ABBE1CBD704708B5694600900C20ABBE3E
:1018200008BD000000487047E40600207546FFF739
:10183000F9FFAE4605006946534620F0070085468D
:1018400018B020B5FEF77EFDBDE820404FF0000641
:101850004FF000074FF000084FF0000B21F0070198
:10186000AC46ACE8C009ACE8C009ACE8C009ACE8DB
:10187000C0098D467047000010B5FFF7E1FB001D61
:1018800010BD00BFF94E000070B50446051F00F002
:1018900033F90068002C14BF446870BD002C18BFD9
:1018A000AC423CBF20466468F8D301680A18AA42DB
:1018B00018BF456003D12A680546114401602868B5
:1018C0004119A1421CBF6C6070BD616869602168EC
:1018D0000844286070BD70B5C468A50713D06502C0
:1018E00011D4B2F5807F09D0B2F5007F06D0B2F5F1
:1018F000806F08D1012300F1240106E05D1E6FF026
:101900007F46B54201D3012070BD0161C3614160D2
:1019100024F470611143C160002070BD2DE9F041D5
:101920000C4607461646104600F06EF82078611CFB
:1019300061280AD0722802D077283CD102E0012524
:10194000002405E00225042402E0082448F20205F0
:1019500011F8010B2B2806D0622809D011F8010CD0
:1019600074280AD00BE045F0030544F00204EFE7C9
:1019700045F0040544F00104EAE744F01004384659
:101980002146FFF71BFF411C15D00021316171601A
:101990004FF40071F560F1617061200704D53046A5
:1019A0000222002100F022F9306D40F00100306584
:1019B0003046BDE8F0810020FBE72DE9F0410D46FF
:1019C0000646104C206DC10704D0410804D020F019
:1019D0000104F7E722460EE0542000F0D8F8070093
:1019E0000ED0206D47F00101084354212065384690
:1019F000FEF7B9FE3A4629463046BDE8F0418DE78C
:101A00000020D6E7E80500202DE9F04704464FF016
:101A100000094FF0FF37C568D4E90486A80707D04E
:101A2000204600F093F93046FFF7D2FE002802DA94
:101A30003846BDE8F087280502D54046FFF724FF69
:101A40004C212046FEF78FFE206D20F0010020651E
:101A50004846EEE710B50446AFF300802046BDE8E7
:101A60001040FEF740BC10B500F0BAF9BDE81040D8
:101A700000F0B0B94FF0013C50F8042B51F8043B92
:101A80009A4221D1A2EB0C03934313EACC1317D152
:101A900050F8042B51F8043B9A4215D1A2EB0C03E9
:101AA000934313EACC130BD150F8042B51F8043BA9
:101AB0009A4209D1A2EB0C03934313EACC13DBD077
:101AC0004FF00000704700BFD01A01BAB1FA81F19F
:101AD00001F0180122FA01F0CB40C1F12001DBB284
:101AE000C0B2C01A2CFA01F3D11A914311EAC31102
:101AF000E6D170477047000000487047EC060020B0
:101B0000704770477047704738B504460A46002052
:101B10006946AFF30080002808BF38BD024600992F
:101B2000204600F0AAF9012038BD012000F072B96A
:101B3000F8B5AFF30080054600200C46102000BF2A
:101B40000646A819A0420DD9324669460020AFF3D7
:101B50000080070008BF00F05DF90098A04218BFA0
:101B60000546C419FFF7C8FF05600746F01D20F0C1
:101B700007004619284600F079F9B44208BFF8BDBD
:101B8000A21B31463868BDE8F84000F076B970B560
:101B90000646FFF7B1FF056806F10B0020F00704C9
:101BA000B4429CBF002070BD2B466A68BAB1106871
:101BB000A04210D304F1080188423CBF506858602D
:101BC00007D35168101941601168091B0160586002
:101BD0001460101D70BD13465268002AE7D12146DB
:101BE0002846FFF791FF0028DED170BD2DE9F041B6
:101BF000044616460D464769007B80072ED03846BE
:101C0000FFF7FBFD50BB3EB3012E02D0022E25D1C3
:101C100004E0204600F04BF905441DE03846FFF78C
:101C2000FAFDE168002841F01001E16005DA204684
:101C300000F058F80120BDE8F081C9030BD56268B7
:101C4000E16A914200D81146A26911442269891AB9
:101C5000814200DD08460544002D01DA0220EAE752
:101C6000E16A6068E268814206D29103E06203D5CE
:101C700022F4003141F01002A6690027AE4213DCC5
:101C8000E16A814201D90B4600E0034603EB060CF2
:101C90002369ACEB030CAC4506DD814201D98C46CF
:101CA00000E084469C4505D1A760276042F02000F3
:101CB000A5620DE0AD1BE669AE1B8142A66000D9AE
:101CC0000846C01A281A20605819606022F02000C7
:101CD00003490840E060002084F84870ABE700004A
:101CE000BFCFD7FFC16821F4001141F08001C1606E
:101CF00000218160016070472DE9F047814614465C
:101D00000E464FF0FF383248D5685769054209D072
:101D10003846A169FFF777FD002811DB2C48C04346
:101D20000540E5602B46324649463846FFF756FDEA
:101D3000A16920F00042B21A11440028A16103D029
:101D40002046FFF7CFFF4046BDE8F08770B5044658
:101D50000569C06A6168884200D80846E16821F4D4
:101D60002011E160C90312D5A84208D02246411BC8
:101D70002846FFF7C1FF10B14FF0FF3070BD0020C3
:101D8000E562C4E90150E06820F48030E0600020A2
:101D900070BD10B50446C06820F02000E060A16A64
:101DA000A06988420DD02046FFF7D0FFE06820F4FC
:101DB000405040F01000E060A06AA0612069E0623D
:101DC000606044F24001E0688843E06010BD0000BC
:101DD00010000200002801D000F042B87047000057
:101DE00010B5014602A000F083F8012010BD0000EC
:101DF00053494752545245443A20526564697265CA
:101E000063743A2063616E2774206F70656E3A20A8
:101E10000000000010B500F085F8BDE81040FFF7A5
:101E2000D9BF10B5431C02E010F8011B71B1810746
:101E3000FAD14FF0013202C88C1A8C4314EAC21155
:101E4000F9D0C01A0A0603D0C01E10BDC01A10BDBA
:101E50000A0401D0801E10BD0902FCD0401E10BD36
:101E600001491820ABBEFEE72600020000210160F8
:101E7000C0E90110704710207047034640688C4647
:101E8000002818BF88423CBF03464068F8D3186852
:101E90001844884207D00CF1030020F00700001D11
:101EA000411A521A0146081D0A60FFF7EDBC10B531
:101EB0000146C268900703D0900607D5886A0AE0F9
:101EC000FFF7C2F801210160881E10BD8B694868C8
:101ED00018440B69C01A91F848301BB191F84910A9
:101EE000401A10BD1103FCD50028FADD401E10BDBC
:101EF00070B505460C460A2000E06D1C00F03AF86B
:101F000035B128780028F8D102E0641C00F032F8DE
:101F100014B120780028F8D1BDE870400A2000F004
:101F200029B8000010B5012805D0002103A0FFF753
:101F3000DFFF012010BD09A1F8E700005349475217
:101F4000544D454D3A204F7574206F662068656189
:101F500070206D656D6F7279000000003A20486551
:101F60006170206D656D6F727920636F727275702C
:101F70007465640008B569468DF800000320ABBEA7
:101F800008BD5FEA400C08BF91F0000F4FEA8C23B8
:101F90004FEAC12243EA51514FEA1C5018BF00F5E5
:101FA000F0404FEA300018BF41F000415FEA6C5C3E
:101FB00000F02980BCF1FF3F08BF40F0804070472F
:101FC000130C06BF12044FF0100C4FF0000C130E50
:101FD00004BF12020CF1080C130F04BF12010CF124
:101FE000040C930F04BF92000CF1020CD30F04BF3A
:101FF00052000CF1010C11464FF00002A0F11F003D
:10200000A0EB0C00704711F0004F08BF704731F093
:1020100000413FF4D5AF0B0C06BF09044FF0100C84
:102020004FF0000C0B0E04BF09020CF1080C0B0F53
:1020300004BF09010CF1040C8B0F04BF89000CF1E3
:10204000020CCB0F04BF49000CF1010CCCF12003B2
:10205000A0EB0C0022FA03F302FA0CF241EA0301AE
:1020600000F10100704720F07F4C80EA030023F06C
:102070007F47ACEB070303F57C5300F0004003F10E
:10208000FF032DE980494FEA154B09B44FEA144389
:1020900025EA0B4E24EA03480FF2042606EB132729
:1020A00049083E785FEA320203FB0667C7F500077E
:1020B00007FB06F64FEA54374FEAD64606F102060A
:1020C00007FB066CCCF1005C4FEA1C472CEA074C7E
:1020D00007FB06F40CFB06F504EB15464FEA9616D3
:1020E00034BF00204FF000404FEAD13706FB07FC19
:1020F0004FEA1C4C0CFB0BF7D21B03FB0CF761EBFC
:1021000007010CFB0EF7B0EB074072EB17420CFB1C
:1021100008F734BFA2EB0742B2EB074261EB17416D
:102120004FEA0C444FEA910706FB07FC4FEA1C4CB0
:102130000CFB0BF7B0EBC74072EB573203FB0CF70D
:1021400034BFA2EBC742B2EBC74261EB57310CFB85
:102150000EF7B0EBC70072EB57720CFB08F734BFF9
:10216000A2EBC702B2EBC70261EB5771039F4FEAC4
:10217000816141EA921104EBCC044FEAD1374FEA76
:10218000826206FB07FC42EA90124FEA80604FEA47
:102190001C4C0CFB0BF7D21B03FB0CF761EB07018C
:1021A0000CFB0EF7B0EB074072EB17420CFB08F785
:1021B00034BFA2EB0742B2EB074261EB17414FEA93
:1021C0008C554FEA910704EB9C2406FB07FC4FEA71
:1021D0001C4C0CFB0BF7B0EBC74072EB573203FB08
:1021E0000CF734BFA2EBC742B2EBC74261EB5731E9
:1021F0000CFB0EF7B0EBC70072EB57720CFB08F745
:1022000034BFA2EBC702B2EBC70261EB577115EB0B
:102210004C254FEA816141EA92114FEA82624FEA0E
:10222000D13742EA901206FB07FC44F100044FEA62
:1022300080604FEA1C4C0CFB0BF7D21B03FB0CF726
:1022400061EB07010CFB0EF7B0EB074072EB174296
:102250000CFB08F734BFA2EB0742B2EB074261EB7D
:10226000174115EB1C154FEA813141EA92414FEAC3
:10227000823242EA90424FEA80304FEA0C7644F1D3
:10228000000448EA03434EEA0B484FF0000EB2EB5D
:10229000080C71EB030724BF624639464EEB0E0E65
:1022A0004FF0000B0018524149414BEB0B0BB2EBC6
:1022B000080C71EB03077BF1000B24BF6246394623
:1022C0004EEB0E0E4FF0000B0018524149414BEB04
:1022D0000B0BB2EB080C71EB03077BF1000B24BF77
:1022E000624639464EEB0E0E51EA020718BF46F021
:1022F000010616EB0E7655F1000254F1000103D5EC
:10230000BDE88901BDE80088BDE88901BDE8004855
:10231000B619524141EB0101A3F1010370478080DE
:102320007F7E7D7C7B7A797877767675747372712F
:1023300071706F6E6E6D6C6C6B6A6A6968686766E7
:1023400066656464636362616160605F5F5E5E5D79
:102350005D5C5C5B5B5A5A595958585757565655ED
:1023600055555454535352525251515050504F4F4F
:102370004F4E4E4D4D4D4C4C4C4B4B4B4A4A4A499F
:1023800049494848484747474746464645454544E2
:102390004444444343434342424242414141002B6F
:1023A00026D4770021D01CB54FEA370703B44FF08D
:1023B00010004FF010014FF000000FBCBDE81040BE
:1023C0000BF1010BBBF1010F08BF5FEA170722BF3A
:1023D00012F1010211F101014FF0004143F100033C
:1023E00000F0004043EA00007047F9D35708DAE7ED
:1023F00046EA064613F1400F4FEA16461FDD13F179
:10240000200FDFBF16430A46002120335B42C8D0AD
:10241000C3F1200746EA064602FA07F74FEA1646D6
:1024200046EA0706C3F1200722FA03F201FA07F78A
:1024300021FA03F14FF0000342EA0702B1E746EA4E
:10244000020646EA06464FEA164646EA0106BCBFC1
:1024500046EA0646360C4FF000034FF000024FF0FC
:1024600000019EE72DE9C048934630B491E838005A
:1024700007C831EA400C48BF34EA430C03D5FFF7E4
:10248000F2FDFFF78CFFF0BCBDE800882DE9C048E5
:10249000934630B491E8380007C810F0804F08BF69
:1024A00013F0804F03D100F005F8FFF778FFF0BC80
:1024B000BDE8008820F07F4780EA030023F07F4CCE
:1024C00007EB0C03A3F57C5300F00040A3F1FE03DF
:1024D00092F0000F00F0B38095F0000F00F07780CD
:1024E0002DE901494FEA11404FEA144621EA00481C
:1024F00000FB06FC24EA064708FB06F607FB08F883
:1025000000FB07F718EB06484CEB164C4FEA124B52
:1025100018EB07484FEA15464CEB174022EA0B4EE2
:102520000BFB06FC25EA06470EFB06F607FB0EFE34
:102530000BFB07F71EEB064E4CEB164C4FF000065C
:102540001EEB074E4CEB174B18EB0B0840F100004D
:1025500018EB0E0B58EB000840F100008F1A4FF0FB
:1025600000013CBFC943661B14BFB5EB040C00213E
:102570003CBFC943F61B4FEA17444EEA8E0E27EACA
:1025800004454FEA1C4704FB07622CEA074C05FB95
:1025900007F70CFB05F604FB0CFC16EB074642EBB9
:1025A000174216EB0C4642EB1C421BEB060658EB9F
:1025B0000202414146EA9E0601D5BDE80189B619ED
:1025C000524141EB0101A3F10103BDE801894FEA4A
:1025D00014454FEA114724EA054621EA074C05FB5A
:1025E00007F406FB07F70CFB06F105FB0CFC11EBEF
:1025F000074144EB17444FEA124711EB0C4144EBFF
:102600001C4422EA074C05FB07F206FB07F70CFB0C
:1026100006F605FB0CFC16EB074642EB174216EBE1
:102620000C4642EB1C456A1854F1000148BF704744
:10263000B619524141EB0101A3F10103704795F036
:10264000000F37D04FEA11424FEA144721EA024601
:1026500024EA074C02FB07F106FB07F70CFB06F424
:1026600002FB0CFC14EB074441EB17414FEA154702
:1026700014EB0C4441EB1C4125EA074C02FB07F527
:1026800006FB07F70CFB06F602FB0CFC16EB0746F5
:1026900045EB174516EB0C4645EB1C42121951F160
:1026A000000148BF7047B619524141EB0101A3F147
:1026B000010370474FEA14454FEA114724EA0546E3
:1026C00021EA074C05FB07F106FB07F70CFB06F2B6
:1026D0004FF0000605FB0CFC12EB074241EB1741E3
:1026E00012EB0C4251EB1C4148BF7047921841EB72
:1026F0000101A3F10103704700BFFEE7704772B606
:1027000000BFFEE770B5044600F0FEF80646254619
:10271000681C10B104480078054400BF00F0F4F8CC
:10272000801BA842FAD370BD54000020F8B50246C1
:102730000B460025002400200021C7E0012606FAF0
:1027400001F51E6806EA0504AC4274D11E7906F054
:102750000306012E04D01E7906F00306022E13D1C3
:1027600090684F000326BE40B0434F00DE68BE4075
:1027700030439060506801268E40B0431E79C6F306
:1027800000168E40304350601E7906F00306032E7B
:1027900009D0D0684F000326BE40B0434F009E686A
:1027A000BE403043D0601E7906F00306022E13D1DE
:1027B000CF0802F1200656F827004E07F70E0F2625
:1027C000BE40B0434F07FF0E1E69BE403043CF08E6
:1027D00002F1200646F8270010684F000326BE408D
:1027E000B0431E7906F003064F00BE403043106030
:1027F0005E6806F44036002E67D000BF00260096C3
:10280000344E366846F48046324F3E603E46366867
:1028100006F48046009600BF00BF2F4E8F0856F882
:1028200027008E07370F0F26BE40B0432B4EB24213
:1028300002D1002615E048E0294EB24201D101261E
:102840000FE0284EB24201D102260AE0264EB242E3
:1028500001D1032605E0254EB24201D1042600E055
:1028600007268F073F0FBE4030431B4E8F0846F8A8
:1028700027001F4E3068A0435E6806F4801606B13C
:1028800020431B4E3060361D3068A0435E6806F45E
:10289000001606B12043164E361D3060144E361F0A
:1028A0003068A0435E6806F4003606B12043104E3F
:1028B000361F3060361F3068A0435E6806F48036ED
:1028C00006B120430A4E083E3060491C1029FFF42F
:1028D00035AFF8BD443802400838014000000240DE
:1028E0000004024000080240000C024000100240B8
:1028F000083C014010B5426921EA020302EA0104E2
:1029000043EA0443836110BD01480068704700003A
:102910004C00002070B504460CB9012070BD94F83D
:102920003D0028B9002084F83C00204600F0BEFBA2
:10293000242084F83D002068006820F00100216810
:1029400008602068006840F4004021680860206842
:10295000006820F400402168086000F0BDFD0546D5
:102960005C496068884206D85B48854201D20120F4
:1029700007E0002005E05948854201D2012000E02F
:102980000020012800D1C9E75548B5FBF0F62068C2
:10299000406820F03F003043216848604D4960683E
:1029A000884201D8701C07E04FF4967070434FF4D2
:1029B0007A71B0FBF1F0401C2168096A21F03F01F7
:1029C00008432168086243496068884214D8681E39
:1029D00061684900B0FBF1F0401CC0F30B00042813
:1029E00001D204203DE0681E61684900B0FBF1F0AF
:1029F000401CC0F30B0034E0A06838B9681E616861
:102A000001EB4101B0FBF1F0401C0AE0681E616877
:102A100001EBC10202EB0111B0FBF1F0401C40F4EC
:102A20008040C0F30B0008B901201AE0A06848B943
:102A3000681E616801EB4101B0FBF1F0401CC0F37E
:102A40000B000CE0681E616801EBC10202EB011192
:102A5000B0FBF1F0401CC0F30B0040F4804040F4A8
:102A600000402168C9694CF6FF7291430843216810
:102A7000C861D4E9070108432168096821F0C00151
:102A8000084321680860D4E9031008432168896875
:102A900048F2FF329143084321688860D4E9050178
:102AA00008432168C96821F0FF0108432168C86014
:102AB0002068006840F00100216808600020206460
:102AC000202084F83D000020206384F83E0000BFF1
:102AD00024E70000A086010080841E0000093D005C
:102AE00040420F002DE9F8430446894616461F462A
:102AF000DDF82080FFF708FF054694F83D00202808
:102B00007ED11923012251492046009501F014FD80
:102B100010B10220BDE8F88300BF94F83C00012802
:102B200001D10220F6E7012084F83C0000BF2068B4
:102B3000006800F0010028B92068006840F001003A
:102B4000216808602068006820F40060216808603F
:102B5000212084F83D00102084F83E0000202064ED
:102B600066626785608D20853948E0622B46424663
:102B70004946204601F032FB08B10120CAE700BFF8
:102B800000200090206840690090206880690090D3
:102B900000BF00BF44E02A464146204601F0B1FD97
:102BA00050B1206C042805D12068006840F4007002
:102BB000216808600120ADE7606A0078216808613B
:102BC000606A401C6062608D401E6085208D401EE2
:102BD000208520684069C0F3800070B1208D60B10D
:102BE000606A007821680861606A401C6062608DDC
:102BF000401E6085208D401E20852A46414600E00B
:102C000022E0204601F06AFC50B1206C042805D176
:102C10002068006840F4007021680860012079E7AE
:102C2000208D0028B7D12068006840F4007021682A
:102C30000860202084F83D00002084F83E0000BF9A
:102C400084F83C0000BF65E7022063E70200100043
:102C50000000FFFF2DE9FC5F04460F4690469946B1
:102C6000DDE90CAB0E9EFFF74FFE054694F83D00E4
:102C7000202870D119230122B0492046009501F087
:102C80005BFC10B10220BDE8FC9F00BF94F83C0043
:102C9000012801D10220F6E7012084F83C0000BFA2
:102CA0002068006800F0010028B92068006840F042
:102CB0000100216808602068006820F40060216835
:102CC0000860222084F83D00402084F83E00002067
:102CD0002064C4F824A0A4F82AB0608D2085984808
:102CE000E0624B46424639462046CDE9006501F098
:102CF000D5FA08B10120C6E7208D88B900BF0020B1
:102D0000019020684069019020688069019000BFAF
:102D100000BF2068006840F400702168086040E04F
:102D2000208D012818D12068006820F48060216877
:102D3000086000BF00200190206840690190206871
:102D40008069019000BF00BF2068006840F40070F7
:102D50002168086025E0EFE0208D022816D1206868
:102D6000006820F48060216808602068006840F4F2
:102D700000602168086000BF002001902068406961
:102D8000019020688069019000BF0AE000BF002028
:102D9000019020684069019020688069019000BF1F
:102DA00000BFBAE0208D03287ED8208D012815D1E0
:102DB0002A463146204601F064FC08B1012062E752
:102DC00020680069616A0870606A401C6062208D3A
:102DD000401E2085608D401E60859EE0208D02286B
:102DE0002AD13346002257492046009501F0A4FB22
:102DF00008B1012047E72068006840F400702168AE
:102E0000086020680069616A0870606A401C60623E
:102E1000208D401E2085608D401E608520680069E1
:102E2000616A0870606A401C6062208D401E2085C7
:102E3000608D401E608570E0334600224149204687
:102E4000009501F079FB08B101201CE720680068BB
:102E500020F480602168086020680069616A087059
:102E6000606A401C6062208D401E2085608D401E7F
:102E700060853346002233492046009501F05CFB13
:102E800008B10120FFE62068006840F40070216866
:102E9000086020680069616A0870606A401C6062AE
:102EA000208D401E208500E010E0608D401E608572
:102EB00020680069616A0870606A401C6062208D49
:102EC000401E2085608D401E608526E02A463146E2
:102ED000204601F0D6FB08B10120D4E62068006945
:102EE000616A0870606A401C6062208D401E208507
:102EF000608D401E608520684069C0F3800060B12D
:102F000020680069616A0870606A401C6062208DF8
:102F1000401E2085608D401E6085208D00287FF436
:102F200041AF202084F83D00002084F83E0000BF1F
:102F300084F83C0000BFA6E60220A4E602001000D0
:102F40000000FFFF040001002DE9FC5F04460F466E
:102F500090469946DDE90CAB0E9EFFF7D5FC054681
:102F600094F83D0020287DD1192301224D492046A7
:102F7000009501F0E1FA10B10220BDE8FC9F00BF0E
:102F800094F83C00012801D10220F6E7012084F8E2
:102F90003C0000BF2068006800F0010028B92068EC
:102FA000006840F00100216808602068006820F493
:102FB000006021680860212084F83D00402084F8EA
:102FC0003E0000202064C4F824A0A4F82AB0608D3C
:102FD00020853548E0624B46424639462046CDE9D9
:102FE000006501F00BFA08B10120C6E731E02A467E
:102FF0003146204601F085FB50B1206C042805D1F4
:103000002068006840F40070216808600120B4E77F
:10301000606A007821680861606A401C6062208DE7
:10302000401E2085608D401E608520684069C0F389
:10303000800070B1208D60B1606A007821680861FD
:10304000606A401C6062208D401E2085608D401E9D
:103050006085208D0028CAD12A463146204601F0DD
:103060003DFA00E01CE050B1206C042805D1206836
:10307000006840F400702168086001207DE7206846
:10308000006840F4007021680860202084F83D004A
:10309000002084F83E0000BF84F83C0000BF6CE7CD
:1030A00002206AE7020010000000FFFF10B586B0A2
:1030B0000446142101A8FDF756FB3C4920688842CC
:1030C00030D100BF002000903948006840F0020075
:1030D000374908600846006800F00200009000BF11
:1030E00000BF4FF4C07001901220029000200390A6
:1030F000032004900420059001A92E48FFF716FB39
:1031000000BF002000902A481030006840F40010F2
:103110002749103108600846006800F4001000904C
:1031200000BF41E02449206888423DD100BF002013
:1031300000901F48006840F002001D4908600846E2
:10314000006800F00200009000BF00BF0815019069
:103150001220029000200390032004900420059088
:1031600001A91448FFF7E2FA08200190122002900A
:1031700000200390032004900920059001A90D4828
:10318000FFF7D4FA00BF0020009009481030006813
:1031900040F480000649103108600846006800F4D9
:1031A0008000009000BF00BF06B010BD005400407A
:1031B00030380240000402400058004003480068D4
:1031C0000349097808440149086070474C00002011
:1031D0005400002010B50D48006840F400700B4901
:1031E00008600846006840F480600860084600688F
:1031F00040F480700860032000F092F80F2000F087
:1032000007F800F02BF8002010BD0000003C024041
:1032100070B504460E4800784FF47A71B1FBF0F0B7
:103220000C490968B1FBF0F5284600F01BFC08B119
:10323000012070BD102C07D200222146501E00F044
:1032400031F80548046001E00120F2E70020F0E7D2
:1032500054000020580000205000002008B500BF96
:10326000002000900E48006840F480400C4908603F
:103270000846006800F48040009000BF00BF00BF17
:1032800000200090081F006840F08050091F08606F
:103290000846006800F08050009000BF00BF08BDE5
:1032A000443802402DE9F05F80460D46164600275F
:1032B00002F00EFB074639462A46334601F0070066
:1032C000C0F1070ABAF1040F02D94FF0040A01E075
:1032D000C0F1070AD14600F1040ABAF1070F02D281
:1032E0004FF0000A01E0A0F1030AD4464FF0010AB2
:1032F0000AFA09FAAAF1010A0AEA020A0AFA0CFA17
:103300004FF0010B0BFA0CFBABF1010B0BEA030BBB
:103310004AEA0B042146404602F0E2FABDE8F09F7B
:1033200000BF00F00702064B19684FF6FF03194073
:10333000044B0B4343EA0221014B196000BF704765
:103340000CED00E00000FA0570B504460D460CB91E
:10335000012070BD5848006800F00700A84209D25B
:1033600055490D700846006800F00700A84201D0DA
:103370000120EEE7207800F0020002281DD120781D
:1033800000F00400042805D14C48006840F4E050E7
:103390004A490860207800F00800082805D147480D
:1033A000006840F46040454908604448006820F0E7
:1033B000F000A168084341490860207800F001004E
:1033C000A8B36068012807D13C4808380068C0F3FA
:1033D0004040B8B90120BCE76068022802D06068AC
:1033E000032807D1354808380068C0F3406048B961
:1033F0000120AEE7314808380068C0F3400008B942
:103400000120A6E72D48006820F00300616808430A
:103410002A490860FFF778FA064609E0FFF774FAD0
:10342000801B41F28831884202D9032091E707E0EE
:103430002248006800F00C006168B0EB810FEDD10C
:103440001D48006800F00700A84209D91A490D700C
:103450000846006800F00700A84201D0012078E784
:10346000207800F00400042807D11448006820F4F4
:10347000E050E168084311490860207800F0080036
:10348000082808D10D48006820F46040216940EA0E
:10349000C1000A49086000F03FF808490968C1F313
:1034A0000311074A515CC840064908600648006895
:1034B000FFF7AEFE00204CE7003C02400838024017
:1034C0004E6B0008580000205000002001480068A2
:1034D000704700005800002000B5FFF7F7FF0449CF
:1034E0000968C1F38221034A515CC84000BD000055
:1034F000083802405E6B000800B5FFF7E7FF04499B
:103500000968C1F34231034A515CC84000BD000064
:10351000083802405E6B00082DE9F04700240025C2
:103520000026A1462548006800F00C0020B10428C0
:1035300005D008283AD105E0DFF8849039E0DFF8BB
:10354000849036E01D48001F006800F03F041B48CF
:10355000001F006800F4800078B11A481749091F5D
:103560000968C1F38811A0FB0170014622460023BF
:103570003846FCF7F9FE05460EE011480F49091FD1
:103580000968C1F38811A0FB01700146224600239F
:103590003846FCF7E9FE05460848001F0068C0F3FE
:1035A0000140401C4600B5FBF6F902E0DFF8109040
:1035B00000BF00BF4846BDE8F08700000838024061
:1035C0000024F40040787D01F8B504460CB90120D0
:1035D000F8BD207800F00100002874D0F948006898
:1035E00000F00C0004280DD0F648006800F00C0034
:1035F000082813D1F348001F006800F48000B0F5DC
:10360000800F0BD1EF4808380068C0F34040002815
:1036100059D06068002856D10120D9E700BF606802
:10362000B0F5803F08D1E7480838006840F48030A2
:10363000E449083908601EE06068B0F5A02F0DD19C
:10364000E0480838006840F48020DE490839086006
:103650000846006840F4803008600CE0D94808381B
:10366000006820F48030D7490839086008460068AF
:1036700020F48020086000BF606890B1FFF744F933
:10368000054606E0FFF740F9401B642801D90320F6
:103690009EE7CC4808380068C0F340400028F1D0CD
:1036A00011E0FFF731F9054606E0FFF72DF9401B61
:1036B000642801D903208BE7C24808380068C0F3AA
:1036C00040400028F1D1207800F0020002285FD1AC
:1036D000BC48006800F00C0058B1BA48006800F01F
:1036E0000C0008281CD1B748001F006800F48000B7
:1036F000B0B9B44808380068C0F3400020B1E068B1
:10370000012801D0012063E7AE480838006820F0A6
:10371000F800216940EAC100AA490839086037E089
:10372000E06800B30120A8490860FFF7EDF80546FE
:1037300006E0FFF7E9F8401B022801D9032047E71C
:10374000A04808380068C0F340000028F1D09D4828
:103750000838006820F0F800216940EAC100994962
:103760000839086014E0002097490860FFF7CCF89A
:10377000054606E0FFF7C8F8401B022801D90320E0
:1037800026E7904808380068C0F340000028F1D1CF
:10379000207800F0080008282CD16069A8B1012029
:1037A0008A490860FFF7B0F8054606E0FFF7ACF875
:1037B000401B022801D903200AE782486C300068C8
:1037C000C0F340000028F1D014E000207F490860D9
:1037D000FFF79AF8054606E0FFF796F8401B022827
:1037E00001D90320F4E677486C300068C0F340004C
:1037F0000028F1D1207800F00400042870D10027BF
:1038000070483830006800F0805090B900BF002048
:1038100000906C483830006840F080506949383179
:1038200008600846006800F08050009000BF00BFAC
:1038300001276748006800F48070B0B964480068E8
:1038400040F4807062490860FFF75EF8054606E0C4
:10385000FFF75AF8401B022801D90320B8E65C485C
:10386000006800F480700028F2D000BFA068012832
:1038700008D154486830006840F00100514968316F
:1038800008601DE0A06805280DD14E48683000682A
:1038900040F004004B49683108600846006840F079
:1038A000010008600CE047486830006820F0010023
:1038B0004449683108600846006820F00400086048
:1038C00000BFA068A8B1FFF71FF8054609E0FFF7A1
:1038D0001BF8401B41F28831884202D9032077E669
:1038E00026E0384868300068C0F340000028EED079
:1038F00013E0FFF709F8054608E0FFF705F8401B5D
:1039000041F28831884201D9032061E62D486830B0
:103910000068C0F340000028EFD1012F07D12948EB
:103920003830006820F0805026493831086000BFE8
:10393000A069002845D02348006800F00C00082842
:103940005DD0A069022845D100201F490866FEF716
:10395000DBFF054606E0FEF7D7FF401B022801D932
:10396000032035E6174808380068C0F34060002897
:10397000F1D1D4E907010843616A40EA81110122CB
:10398000A06AC2EB500041EA00412C20005D41EAF0
:1039900000600C49091F086001200B490866FEF70A
:1039A000B3FF054606E0FEF7AFFF401B022801D932
:1039B00003200DE6034808380068C0F34060002883
:1039C000F1D049E00838024000004742800E4742EB
:1039D00000700040002021490866FEF795FF05466B
:1039E00006E0FEF791FF401B022801D90320EFE516
:1039F0001B480068C0F340600028F2D12CE0A069A9
:103A0000012800D1E4E51648001D0668A0690128D8
:103A100020D006F48001E06981421BD106F03F010D
:103A2000206A814216D147F6C0703040616AB0EB1F
:103A3000811F0FD106F440310122A06AC2EB500071
:103A4000B1EB004F06D106F070612C20005DB1EBA8
:103A5000006F01D00120BBE50020B9E5000047421E
:103A60000038024070B504462546681EB0F1807FDC
:103A700001D301200FE0681E4FF0E02148610F21C3
:103A80004FF0FF3001F02CFF00204FF0E021886163
:103A900007200861002070BD10B50346002200BF5A
:103AA00093F83C00012801D1022010BD012083F8C9
:103AB0003C0000BF22F0FF00CC6840EA040222F480
:103AC00040708C6840EA040222F480604C6840EA4E
:103AD000040222F400600C6840EA040222F48050E0
:103AE0000C6940EA040222F400504C6940EA0402E6
:103AF00022F48040CC6940EA04021868426400BFA6
:103B0000002083F83C0000BF00BFCEE730B502467E
:103B10000B4600BF92F83C00012801D1022030BDC5
:103B2000012082F83C0000BF022082F83D001068AE
:103B300044681068816824F07004186804431068B1
:103B40004460144D1068A84213D01068B0F1804F43
:103B50000FD0114D1068A8420BD0104D1068A8422C
:103B600007D00F4D1068A84203D00E4D1068A84230
:103B700005D121F08001586801431068816001205F
:103B800082F83D0000BF002082F83C0000BF00BF6B
:103B9000C5E70000000001400004004000080040AC
:103BA000000C00400040014010B504460CB9012053
:103BB00010BD94F83D0028B9002084F83C00204650
:103BC00000F026F8022084F83D00211D206801F055
:103BD000A9FB012084F8460000BF84F83E000121C3
:103BE0003F200155402001554120015500BF00BF35
:103BF000012084F84200432001554420015545200E
:103C0000015500BF012084F83D000020D0E70000EE
:103C100008B5154A016891420FD100BF00210091FB
:103C20001249096841F00101104A11601146096802
:103C300001F00101009100BF15E00168B1F1804F72
:103C400011D100BF002100910849091F096841F006
:103C50000101064A121F11601146096801F00101B5
:103C6000009100BF00BF08BD000001404438024081
:103C70002DE9F04104460D46002700BF94F83C00B2
:103C8000012802D10220BDE8F081012084F83C0027
:103C900000BF022084F83D002068866826F0770681
:103CA00026F47F46206886602868502833D00CDCD4
:103CB000202850D004DC00284BD0102851D149E0F6
:103CC000302849D040284CD139E060282DD07028C8
:103CD00007D0B0F5805F03D0B0F5005F41D10DE0B3
:103CE00041E0D5E902136A68206801F06DFB2068A5
:103CF000866846F077062068866034E0D5E90213CE
:103D00006A68206801F060FB2068806840F48040A9
:103D10002168886027E0EA686968206801F024FC6F
:103D20005021206801F05BFB1DE0EA6869682068AB
:103D300001F02DFC6021206801F051FB13E0EA68DE
:103D40006968206801F010FC4021206801F047FB01
:103D500009E000BF00BF00BF2968206801F03FFBF9
:103D600001E0012700BF00BF012084F83D0000BF33
:103D7000002084F83C0000BF384684E710B586B0C8
:103D80000446142101A8FCF7EEFC23492068884270
:103D90001ED100BF002000902048006840F00100C4
:103DA0001E4908600846006800F00100009000BF4E
:103DB00000BF4FF440700190022002900020039059
:103DC00004900120059001A91548FEF7AFFC20E002
:103DD0002068B0F1804F1CD100BF002000900F4838
:103DE000006840F001000D4908600846006800F0D6
:103DF0000100009000BF00BF03200190022002904C
:103E00000020039004900120059001A90448FEF7CA
:103E10008DFC06B010BD00000000014030380240AB
:103E2000000002402DE9F04104460D4616460027E9
:103E300000BF94F83C00012802D10220BDE8F081C7
:103E4000012084F83C0000BF36B1042E1BD0082EA0
:103E500031D00C2E5ED145E02946206801F0C8FA29
:103E60002068806940F008002168886120688069C6
:103E700020F004002168886120688069296908436E
:103E80002168886148E02946206801F0E1FA20684D
:103E9000806940F40060216888612068806920F4AE
:103EA00080602168886120688069296940EA012072
:103EB0002168886130E02946206801F0FDFA206819
:103EC000C06940F008002168C8612068C06920F01E
:103ED00004002168C8612068C06929690843216815
:103EE000C86119E02946206801F01AFB2068C06902
:103EF00040F400602168C8612068C06920F48060D7
:103F00002168C8612068C069296940EA01202168E8
:103F1000C86101E0012700BF00BF00BF002084F896
:103F20003C0000BF384689E710B504460CB90120B3
:103F300010BD94F83D0028B9002084F83C002046CC
:103F400000F025F8022084F83D00211D206801F0D2
:103F5000E9F9012084F8460000BF84F83E00012101
:103F60003F200155402001554120015500BF00BFB1
:103F7000012084F84200432001554420015545208A
:103F8000015500BF012084F83D000020D0E77047B4
:103F900010B504460CB9012010BDA06900B100E0C5
:103FA00000BF94F83D0028B9002084F83C0020466A
:103FB00000F028F8242084F83D002068C06820F430
:103FC00000502168C860204601F0F6FA20680069B8
:103FD00020F49040216808612068406920F02A00A0
:103FE000216848612068C06840F400502168C860BA
:103FF00000202064202084F83D0084F83E0000204A
:10400000CAE7000010B586B00446142101A8FCF7E9
:10401000AAFB2949206888424CD100BF00200090AB
:104020002648006840F010002449086008460068EF
:1040300000F01000009000BF00BF00BF0020009003
:104040001E481438006840F001001C49143908600B
:104050000846006800F00100009000BF00BF00BFEC
:10406000002000900846006840F002000860084602
:10407000006800F00200009000BF00BF081501902A
:104080000220029000200390032004900720059056
:1040900001A90B48FEF74AFB402001900220029044
:1040A00000200390032004900720059001A90548F3
:1040B000FEF73CFB06B010BD001001404438024042
:1040C00000000240000402402DE9F84F04460E466D
:1040D000174699464FF0000A94F83D0020285AD11F
:1040E00006B117B90120BDE8F88F00BF94F83C0075
:1040F000012801D10220F6E7012084F83C0000BF2E
:1041000000202064212084F83D00FEF7FDFB82465C
:10411000A784E784A068B0F5805F04D1206910B956
:104120000025B04602E035464FF0000800BF0020F1
:1041300084F83C0000BF1BE053460022802120464B
:10414000CDF8009001F04EFB08B10320CBE745B954
:10415000B8F80000C0F308002168486008F10208C0
:1041600003E02878216848606D1CE08C401EE084E4
:10417000E08C0028E0D15346002240212046CDF8B3
:10418000009001F02FFB08B10320ACE7202084F859
:104190003D000020A7E70220A5E700BFFEE701469B
:1041A00008684069C0F38020B0B16FF480600A688D
:1041B000506100200863202081F83D00002081F834
:1041C0003E00086C40F00400086400BF002081F845
:1041D0003C0000BF012070470020FCE72DE9F843B8
:1041E00004460D4617469846E66A082E04D0012E6E
:1041F00002D016F5803F06D12068006840F4807038
:104200002168086008E0206B122805D1206800684A
:1042100040F48070216808603B4600224FF0011195
:104220002046CDF8008000F087F960B12068006872
:1042300000F48070B0F5807F02D14FF400702064EC
:104240000320BDE8F8832069B0F5804F04D105F064
:10425000FE002168086112E005F44070F02141EA97
:10426000E0102168086143463A460B49204600F0B9
:10427000A6F908B10120E4E7E8B2216808614346E5
:104280003A460549891F204600F099F908B10120F6
:10429000D7E70020D5E70000080001002DE9F8432A
:1042A00004460F4615469946DDE9088620680068F1
:1042B00040F48060216808602068006840F48070E5
:1042C00021680860434600224FF001112046009605
:1042D00000F032F960B12068006800F48070B0F539
:1042E000807F02D14FF4007020640320BDE8F88382
:1042F00007F0FE0021680861334642463E492046E9
:1043000000F05DF908B10120F0E700BF0020009047
:1043100020684069009020688069009000BF00BF5D
:1043200032464146204600F0ECF950B1206C04289A
:1043300005D12068006840F4007021680860012001
:10434000D4E7B9F1010F03D1E8B22168086117E0A1
:10435000C5F307202168086132464146204600F037
:10436000D0F950B1206C042805D12068006840F4D1
:104370000070216808600120B8E7E8B22168086190
:1043800032464146204600F0BCF950B1206C04286A
:1043900005D12068006840F40070216808600120A1
:1043A000A4E72068006840F48070216808604346F4
:1043B00000224FF001112046009600F0BDF858B1E0
:1043C0002068006800F48070B0F5807F02D14FF45F
:1043D00000702064032089E7F8B240F001002168F2
:1043E0000861334642460449204600F0E8F808B127
:1043F00001207BE7002079E7020001002DE9F84366
:104400000446884615469946DDE908672068006835
:1044100040F4807021680860334600224FF001119B
:104420002046009700F088F860B12068006800F42A
:104430008070B0F5807F02D14FF4007020640320BB
:10444000BDE8F88308F0FE00216808613B4632466B
:104450002149204600F0B3F808B10120F0E700BF81
:1044600000200090206840690090206880690090DA
:1044700000BF00BF3A463146204600F042F950B135
:10448000206C042805D12068006840F40070216881
:1044900008600120D4E7B9F1010F03D1E8B2216827
:1044A000086117E0C5F30720216808613A463146E4
:1044B000204600F026F950B1206C042805D1206870
:1044C000006840F40070216808600120B8E7E8B295
:1044D000216808610020B3E70200010070B50446BE
:1044E0000D46164620E02046FFF759FE08B1012090
:1044F00070BD681CC0B1FEF707FA801BA84200D847
:1045000095B900202063202084F83D00002084F825
:104510003E00206C40F02000206400BF002084F8A2
:104520003C0000BF0120E3E720684069C0F3800041
:104530000028D8D00020DBE72DE9F04104460D46E5
:1045400017461E46DDF818801CE0701CD0B1FEF73F
:10455000DBF9A0EB0800B04200D89EB90020206330
:10456000202084F83D00002084F83E00206C40F0BC
:104570002000206400BF002084F83C0000BF012020
:10458000BDE8F081C5F3074001280AD120684069E1
:10459000A9B20840A9B2884201D101200BE0002055
:1045A00009E020688069A9B20840A9B2884201D117
:1045B000012000E00020B842C7D00020E0E72DE94C
:1045C000F04104460D4616461F463DE0206840690E
:1045D000C0F38020E8B12068006840F400702168D2
:1045E00008606FF48060216848610020206320200B
:1045F00084F83D00002084F83E00206C40F0040068
:10460000206400BF002084F83C0000BF0120BDE80A
:10461000F081701CC0B1FEF777F9C01BB04200D822
:1046200096B900202063202084F83D00002084F803
:104630003E00206C40F02000206400BF002084F881
:104640003C0000BF0120E2E7C5F3074001280AD182
:1046500020684069A9B20840A9B2884201D101206E
:104660000BE0002009E020688069A9B20840A9B2E7
:10467000884201D1012000E000200028A6D00020BF
:10468000C5E770B504460D46164632E0206840691D
:10469000C0F30010A0B16FF0100021684861002045
:1046A0002063202084F83D00002084F83E00206C28
:1046B000206400BF002084F83C0000BF012070BDD2
:1046C000FEF722F9801BA84200D895B9002020638C
:1046D000202084F83D00002084F83E00206C40F04B
:1046E0002000206400BF002084F83C0000BF0120AF
:1046F000E5E720684069C0F380100028C6D000209C
:10470000DDE770B504460D46164620E02046FFF76B
:1047100046FD08B1012070BD681CC0B1FEF7F4F879
:10472000801BA84200D895B900202063202084F87F
:104730003D00002084F83E00206C40F02000206402
:1047400000BF002084F83C0000BF0120E3E72068A0
:104750004069C0F3C0100028D8D00020DBE700007B
:104760009FED120A80ED000A9FED110A80ED010A0B
:104770009FED100A80ED020A9FED0F0A80ED030AFB
:104780009FED0D0A80ED040A9FED0B0A80ED050AEE
:104790009FED090A80ED060A9FED070A80ED070AE2
:1047A0009FED050A80ED080A704700006F12833AFA
:1047B000A69B443B8FC2F53C000000000CB5F0EE18
:1047C000401A90ED030A90ED044A30EEC44A01EE1F
:1047D000040A80ED030A90ED060A90ED084A11EEF6
:1047E000040A90ED074A30EE440A90ED004A30EE9C
:1047F000044A90ED050A01EE040A80ED050A90EDE9
:10480000060A90ED084A01EE440A80ED060A90ED92
:10481000070A90ED084A01EE440A80ED070A90ED80
:10482000080A90ED014A04EE010A80ED080A90EDB5
:10483000050A90ED024A30EE040AB0EE402A90EDEF
:10484000050A80EE024A8DED004A90ED070A80EEDF
:10485000024A8DED014A90ED030A31EEC00AF0EEF6
:10486000402A90ED030A9DED004A04EE220A80EDF5
:10487000030A90ED040A9DED014A04EE220A80ED40
:10488000040A90ED050AB0EE403A90ED060AF0EE0B
:10489000403A90ED050A9DED004A04EE430A80ED92
:1048A000050A90ED060A9DED004A04EE630A80EDCC
:1048B000060A90ED070A9DED014A04EE430A80EDD9
:1048C000070A90ED080A9DED014A04EE630A80EDA7
:1048D000080A90ED030A0CBD0048704794040020BC
:1048E00010B586B06420012105AA0B46CDE9002150
:1048F00002907522D0216648FEF7ACF904461CB937
:104900009DF81400682802D0012006B010BD802058
:1049100004906420012104AA0B46CDE900210290F5
:104920006B22D0215A48FEF70FFB04460CB12046FB
:10493000EBE76420FDF7E6FE0020049064200121EF
:1049400004AA0B46CDE9002102906B22D0215048E9
:10495000FEF7FAFA04460CB12046D6E70920049087
:104960006420012104AA0B46CDE9002102901922FE
:10497000D0214748FEF7E8FA04460CB12046C4E7C8
:10498000032004906420012104AA0B46CDE90021F4
:1049900002901A22D0213E48FEF7D6FA04460CB106
:1049A0002046B2E7102004906420012104AA0B469F
:1049B000CDE9002102901B22D0213548FEF7C4FA30
:1049C00004460CB12046A0E7102030B108280AD0D8
:1049D00010280ED0182818D111E09FED2E0A2E486D
:1049E00080ED000A17E09FED2D0A2B4880ED000AAC
:1049F00011E09FED2B0A284880ED000A0BE09FEDA7
:104A0000290A254880ED000A05E09FED250A224885
:104A100080ED000A00BF00BF102004906420012137
:104A200004AA0B46CDE9002102901C22D02118488F
:104A3000FEF78AFA04460CB1204666E7102030B132
:104A400008280AD010280ED0182818D111E09FEDA0
:104A5000160A164880ED000A17E09FED150A134864
:104A600080ED000A11E09FED130A104880ED000A66
:104A70000BE09FED110A0D4880ED000A05E09FED67
:104A80000D0A0A4880ED000A00BF00BF00203CE785
:104A9000000100200000FA3B4400002000007A3CA6
:104AA0000000FA3C00007A3D0000803848000020F9
:104AB00000000039000080390000003A2DE9F04F75
:104AC00089B0044664200E2105AA0123CDE9002106
:104AD00002903B22D0214948FEF7BCF8049004988C
:104AE00018B1049809B0BDE8F08F9DF815009DF845
:104AF000141040EA012005B29DF817009DF8161029
:104B000040EA012006B29DF819009DF8181040EA0D
:104B1000012007B29DF81B009DF81A1040EA012001
:104B20000FFA80F89DF81D009DF81C1040EA012046
:104B30000FFA80F99DF81F009DF81E1040EA012031
:104B40000FFA80FA9DF821009DF8201040EA01201C
:104B50000FFA80FB00EE105AB8EEC00A2848D0EDDC
:104B6000000A20EE200A84ED000A00EE106AB8EE7A
:104B7000C00AD0ED000A20EE200A84ED010A00EE02
:104B8000107AB8EEC00AD0ED000A20EE200A84EDBB
:104B9000020A00EE108AB8EEC00A9FED1A1AC0EEA3
:104BA000010A9FED190A30EE800A84ED060A00EE34
:104BB000109AB8EEC00A1548D0ED000A20EE200A7F
:104BC00084ED030A00EE10AAB8EEC00AD0ED000A88
:104BD00020EE200A84ED040A00EE10BAB8EEC00AF6
:104BE000D0ED000A20EE200A84ED050A1C222146A1
:104BF0000748FBF77EFD002074E70000000100205D
:104C0000480000200000AA43B81E124244000020C1
:104C10009404002008B500BF0020009015480068EB
:104C200040F08000134908600846006800F08000EA
:104C3000009000BF00BF00BF002000900846006841
:104C400040F0010008600846006800F00100009094
:104C500000BF00BF00BF002000900846006840F081
:104C6000020008600846006800F00200009000BFE3
:104C700000BF08BD3038024010B50B480B49086032
:104C80000B484860002109488160C1604FF48041B1
:104C90000161002141618161C1610162FDF73AFE5C
:104CA00008B1FDF72CFD10BD0054004000010020AC
:104CB000A086010010B50B480B4908600B484860FE
:104CC000002109488160C1604FF4804101610021E9
:104CD00041618161C1610162FDF71CFE08B1FDF710
:104CE0000EFD10BD0058004054010020A0860100B8
:104CF00000B595B0002011901290139014900F9071
:104D000010901C2108A8FBF72EFD20216846FBF718
:104D10002AFD2F482F4908600020486000212D48B7
:104D200081604FF6FF71C1600021016141618161C5
:104D3000FEF73AFF08B1FDF7E2FC4FF48050119006
:104D400011A92448FEF794FF08B1FDF7D8FC2148CB
:104D5000FFF7EAF808B1FDF7D2FC00200F901090A1
:104D60000FA91C48FEF7D2FE08B1FDF7C8FC602071
:104D70000890002009900A900B900C900D900E90D6
:104D8000002208A91348FFF74DF808B1FDF7B7FC5A
:104D9000042208A90F48FFF745F808B1FDF7AFFC5A
:104DA0000020009001900290039004904FF4005076
:104DB00005900020079069460648FEF76DFE08B191
:104DC000FDF79DFC0348FEF7D9FF15B000BD0000BC
:104DD00000000140A801002000B58DB0002009901E
:104DE0000A900B900C90079008901C216846FBF7E6
:104DF000BAFC4FF080402349086000204860002141
:104E000020488160491EC160002101618161FEF777
:104E1000CBFE08B1FDF773FC4FF48050099009A94F
:104E20001848FEF725FF08B1FDF769FC1548FFF7A4
:104E30007BF808B1FDF763FC00200790089007A9F4
:104E40001048FEF763FE08B1FDF759FC60200090A2
:104E50000020019002900490002269460948FEF764
:104E6000E1FF08B1FDF74BFC042269460548FEF757
:104E7000D9FF08B1FDF743FC0248FEF77FFF0DB0F4
:104E800000BD0000F001002010B50B480B49086080
:104E90004FF4E1304860002108488160C160016141
:104EA0000C21416100218161C161FFF771F808B1F6
:104EB000FDF725FC10BD0000001001403802002065
:104EC00000BFFEE700BFFEE770B5002515E005F165
:104ED000B001C8B200F094F9002000F091F9102060
:104EE00000F08EF9002604E0002000F09BF9701C11
:104EF000C6B2802EF8DB681CC5B2082DE7DB0020A7
:104F00000F4908700F490870002415E004EB4401B4
:104F100001EBC4010C4A02EB410020221521FBF7F2
:104F20001AFC002004EB440101EBC401064A02EB29
:104F300041014875601CC4B2082CE7DB70BD00005D
:104F40002C0000202D0000205403002010B5AF20BD
:104F500000F056F910BD000010B56420FDF7D2FB3B
:104F6000AE2000F04DF9D52000F04AF9802000F085
:104F700047F9A82000F044F93F2000F041F9D32080
:104F800000F03EF9002000F03BF9402000F038F935
:104F9000A12000F035F9C82000F032F9DA2000F045
:104FA0002FF9122000F02CF9812000F029F9CF20F0
:104FB00000F026F9D92000F023F9F12000F020F9C3
:104FC000DB2000F01DF9402000F01AF9A42000F0C9
:104FD00017F9A62000F014F9202000F011F90020A4
:104FE00000F00EF9FFF770FF002415E004EB440118
:104FF00001EBC4010B4A02EB410020221521FBF713
:10500000AAFB002004EB440101EBC401054A02EBBA
:1050100041014875601CC4B2082CE7DBFFF796FF1E
:1050200010BD0000540300200FB410B5A2B025A895
:105030000190802102A8019B249AFBF70DFA002021
:10504000019002AC03E014F8010B00F079F820782D
:105050000028F8D122B010BC5DF814FB2DE9F04116
:10506000002412E0621C02EB420303EBC202294B54
:1050700003EB420104EB440202EBC40203EB4200E7
:105080001522FBF7F1FA601CC4B2072CEADB2022E0
:10509000152120489A30FBF75EFB00211D4880F85F
:1050A000AF10002431E02146002000F037F8002541
:1050B00027E004EB440000EBC400164901EB40007C
:1050C000465D202E12DB7E2E10DC00270BE0A6F1C1
:1050D000200101EB410107EB41010F4A505C00F058
:1050E000A1F8781CC7B2062FF1DB08E0002704E026
:1050F000002000F097F8781CC7B2062FF8DB681C78
:10510000C5B2152DD5DB601CC4B2082CCBDBBDE8C5
:10511000F0810000540300201469000870B50446B3
:105120000D4605F1B001C8B200F06AF8102141EA5D
:10513000141000F065F804F00F0000F061F870BD85
:105140002DE9F04104464FF000080A2C03D028480E
:105150000078152814DB27480078401C2549087082
:1051600000202349087023480078082804DBFFF753
:1051700075FF07201F4908700A2C01D1BDE8F08196
:10518000202C06DB7E2C04DCA4F1200000F0FF08BC
:1051900001E04FF000081748007800EB400101EBF8
:1051A000C000154901EB40001149097844541048EA
:1051B000007800EB40004006060E0E48077839469E
:1051C0003046FFF7ABFF002509E008EB480105EB8F
:1051D00041010A4A505C00F025F8681CC5B2062D52
:1051E000F3DB03480078401C0149087000BFC5E7A5
:1051F0002D0000202C00002054030020146900081A
:105200001CB50446002001908DF80540642002235F
:1052100001AA782100900248FDF764FC1CBD000043
:10522000000100201CB5044606A0006801908DF81E
:1052300005406420022301AA782100900248FDF76E
:1052400051FC1CBD40000000000100207047704769
:1052500010B5FDF7B3FF10BD00B593B0302107A81E
:10526000FBF781FA142102A8FBF77DFA00BF0020AA
:1052700001902548006840F08050234908600846A6
:10528000006800F08050019000BF00BF00BF002008
:1052900001901E48006820F4404040F400401B4943
:1052A00008600846006800F44040019000BF00BF5D
:1052B0000220079001200A9010200B9002200D90F0
:1052C00000210E9108210F9154211091022111917A
:1052D0000421129107A8FEF777F908B1FDF70FFA3C
:1052E0000F20029002200390002004904FF4805081
:1052F000059000200690022102A8FEF725F808B1CB
:10530000FDF7FDF913B000BD4038024000700040C9
:105310000348006840F470000149086070470000CD
:1053200088ED00E010B50268204B98420BD0B0F138
:10533000804F08D01E4B984205D01E4B984202D099
:105340001D4B984203D122F070024B681A43174B51
:10535000984214D0B0F1804F11D0154B98420ED026
:10536000144B98420BD0144B984208D0134B9842E0
:1053700005D0134B984202D0124B984203D122F42D
:105380004072CB681A4322F080034C6943EA04025E
:1053900002608B68C3620B688362044B984201D140
:1053A0000B6903630123436110BD0000000001404D
:1053B0000004004000080040000C00400040014094
:1053C000004401400048014030B50C46816821F49A
:1053D0007F4142EA032525432943816030BD0A46C7
:1053E000816821F0700142F0070319438160704722
:1053F00030B5056A25F001050562026A43688469D3
:1054000024F0700424F003040D682C4322F00202FF
:105410008D682A430D4DA84206D100BF22F0080234
:10542000CD682A4322F00402084DA84207D123F494
:10543000807323F400734D692B438D692B434360C4
:1054400084614D684563026230BD00000000014088
:1054500030B5056A25F010050562026A4368846963
:1054600024F4E04424F440740D6844EA052422F056
:1054700020028D6842EA05120E4DA84207D100BFF6
:1054800022F08002CD6842EA051222F04002094D66
:10549000A84209D123F4806323F400634D6943EAF1
:1054A00085038D6943EA8503436084614D688563A4
:1054B000026230BD0000014030B5056A25F48075F8
:1054C0000562026A4368C46924F0700424F003048E
:1054D0000D682C4322F400728D6842EA05220F4DBC
:1054E000A84207D100BF22F40062CD6842EA05223B
:1054F00022F48062094DA84209D123F4805323F499
:1055000000534D6943EA05138D6943EA051343606F
:10551000C4614D68C563026230BD000000000140F7
:1055200030B5056A25F480550562036A4468C2698E
:1055300022F4E04222F440720D6842EA052223F48C
:1055400000538D6843EA0533064DA84204D124F484
:1055500080444D6944EA85144460C2614D68056425
:10556000036230BD0000014030B50B461446026AAC
:10557000056A25F001050562816921F0F00141EA23
:10558000041122F00A021A438161026230BD30B573
:105590000B461446056A25F0100505628169026A0A
:1055A00021F4704141EA043122F0A00242EA0312E0
:1055B0008161026230BD00002DE9F84F0446206889
:1055C000006920F44050E1680843216808612169BE
:1055D000A068084361690843E169084300902068B6
:1055E000C06849F20C618843009908432168C8608B
:1055F0002068406920F44070A1690843216848612F
:1056000076492068884203D075492068884203D1D2
:10561000FDF772FF814602E0FDF75EFF8146E0691B
:10562000B0F5004F6CD102206168A0FB0150034629
:105630001920A9FB007001462A463846FAF794FE65
:105640006421B0FBF1F04FEA001A02206168A0FB70
:1056500001510B461920A9FB00712A463846FAF77A
:1056600083FE834602206168A0FB01500346192097
:10567000A9FB00712A463846FAF776FE6421B0FB92
:10568000F1F000EBC00101EB0010ABEB8000322128
:1056900001EBC0006421B0FBF1F000F0F8000AEB70
:1056A000400A02206168A0FB015003461920A9FBB3
:1056B000007001462A463846FAF756FE8346022015
:1056C0006168A0FB015003461920A9FB00712A461E
:1056D0003846FAF749FE6421B0FBF1F000EBC00157
:1056E00001EB0010ABEB8000322101EBC000642124
:1056F000B0FBF1F000F007005044216888606AE0D8
:1057000004206168A0FB015003461920A9FB00702A
:1057100001462A463846FAF727FE82460420616889
:10572000A0FB015003461920A9FB007001462A4640
:105730003846FAF719FE6421B0FBF1F000EBC00126
:1057400001EB0010AAEB8000322101EB0010642174
:10575000B0FBF1F000F0F00A04206168A0FB0170DA
:1057600003461920A9FB00513A462846FAF7FCFDEA
:105770006421B0FBF1F00AEB001A04206168A0FB81
:1057800001510B461920A9FB00712A463846FAF749
:10579000EBFD834604206168A0FB015003461920FD
:1057A000A9FB007001462A463846FAF7DDFD642160
:1057B000B0FBF1F000EBC00101EB0010ABEB80009F
:1057C000322101EB00106421B0FBF1F000F00F007A
:1057D000504421688860BDE8F88F00000010014047
:1057E000001401402DE9F04104460D461746984645
:1057F000069E34E0701C88B32EB1FDF785F8A0EB4F
:105800000800B0422BD900BF00BF21680C3151E81D
:10581000001F21F4D07021680C3141E80002002AF9
:10582000F3D100BF00BF00BF2168143151E8001F51
:1058300021F001002168143141E80002002AF3D16F
:1058400000BF202084F83D0084F83E0000BF002007
:1058500084F83C0000BF0320BDE8F081FFE720682A
:1058600000682840A84201D1012000E00020B84291
:10587000C0D00020F0E700BFFEE703B4019841006C
:10588000009850EAC12018BF04204A0D18BF40F00C
:10589000010040F2FF72B2EB515F08BF40F002001E
:1058A000012808BF052002B070474100080218BF58
:1058B00004200A0E18BF40F001004FF07F4232EA88
:1058C000010108BF40F00200012808BF0520704711
:1058D00002480068C0F30220704700000CED00E0B1
:1058E00010B5002804DB0A07130E054A135406E01E
:1058F0000A07140E034A00F00F031B1FD45410BDF7
:1059000000E400E018ED00E010EE100A10B510EE13
:10591000901A4FF0684202EB40032DED028BB3F179
:10592000654F3CBF02EB4102B2F1654F7CD200BF34
:10593000C0F3C753C1F3C7529A1A1B2A09DD10F0EE
:10594000004F14BF9FED6E0A9FED6E0ABDEC028BF7
:1059500010BD12F11A0F1BDA11F0004F09D010F030
:10596000004F0CBF9FED680A9FED680ABDEC028BEB
:1059700010BD80EE208A18EE100AFFF796FF04286B
:1059800008BF00F051F9B0EE480ABDEC028B10BD23
:105990004200B2EB410F37D910F0004F19BFDFEDD5
:1059A0005C1A9FED5C1ADFED5C1A9FED5C1AB0EE9D
:1059B000602A0A46F1EE400A80F00041B0EE420A49
:1059C00010460A1A5200B2F1807F34D2484010F0DB
:1059D000004FDFED532A9FED533A1DBFBEEE002A64
:1059E00071EEE21A31EE431AB6EE002A04BF71EEF0
:1059F000A21A31EE031AF0EE402A42EE602A40EE7F
:105A0000020A82EEA02A18E011F0004F04BF9FEDB9
:105A1000461AF0EE411AD4D010F0004F1CBFDFED53
:105A2000431A9FED431A00E026E004BFDFED411A60
:105A30009FED411AC5E780EE202A22EE020ADFED33
:105A40003F0ADFED3F2ABDEC028B40EE202ADFED5E
:105A50003D0A40EE220ADFED3C2A40EE202ADFED2F
:105A60003B0A40EE220A22EE000A00EE201A31EE36
:105A7000020A30EE210A10BD4FF07F42B2EB400F18
:105A800028BFB2EB410F05D2BDEC028BBDE8104040
:105A900000F0C7B840EA01035B0008BF41F0FF41D6
:105AA0000BD0B2EB400F08BFB2EB410F08D120F092
:105AB000804000EE100A21F0804100EE901A37E796
:105AC000B2EB400F12BF5FEA410240F0FF4001F02D
:105AD00000413FF42DAF4A0092EA40033FF528AF62
