:020000040800F2
:10000000B80B002029030008D14300081B3E00085C
:10001000CD430008F9260008A74D000800000000A5
:100020000000000000000000000000005B47000826
:10003000FD26000800000000594700085D47000841
:100040004303000843030008430300084303000878
:100050004303000843030008430300084303000868
:100060004303000843030008430300084303000858
:100070004303000843030008430300084303000848
:100080004303000843030008430300080000000086
:100090000000000000000000000000004303000812
:1000A0004303000843030008430300084303000818
:1000B0004303000843030008430300084303000808
:1000C00043030008430300084303000843030008F8
:1000D0004303000843030008430300080000000036
:1000E0004303000843030008430300080000000026
:1000F00000000000000000000000000043030008B2
:100100000000000043030008430300084303000805
:1001100000000000000000000000000000000000DF
:100120004303000843030008430300084303000897
:100130004303000800000000000000000000000071
:100140000000000000000000000000004303000861
:100150004303000843030008430300084303000867
:1001600043030008430300080000000000000000F3
:10017000000000000000000000000000000000007F
:100180000000000043030008000000000000000021
:100190004303000800F002F800F09CF80AA090E881
:1001A000000C82448344AAF10107DA4501D100F032
:1001B00091F8AFF2090EBAE80F0013F0010F18BF63
:1001C000FB1A43F0010318477861000098610000B2
:1001D000103A24BF78C878C1FAD8520724BF30C873
:1001E00030C144BF04680C60704700000023002445
:1001F00000250026103A28BF78C1FBD8520728BF37
:1002000030C148BF0B6070476E2900F04D837029E4
:1002100000F0B786662905F0D186652905F0CE86FF
:10022000672905F0CB86612905F0CA8603681B0A99
:1002300028BF41F08001692900F0FA82642900F0AA
:10024000F782752900F0F4826F2900F0448678293E
:1002500000F08386E92900F0DF85E42900F0DC85E1
:10026000F52900F0D985EF2900F04186F82900F042
:1002700082860368DB0928BF41F08001632901F011
:100280004D81732901F05281E32901F05D81F32949
:1002900001F06281002070471FB505F08AFE9DE8DD
:1002A000030001F045FC00F0D6F900F0C9FE04009F
:1002B0000020002105F024FD401C6060002000218A
:1002C00005F008FDE06001F0BDF91FBD10B501F0BB
:1002D00022FA10BD01F0AAFA1146FFF7DDFF05F082
:1002E000D9F801F0B7FB03B4FFF7F0FF03BC01F04E
:1002F000B7FD00000B49D1F800C04A685CF8043B28
:100300001068184442F8040B8C4528BFA1F1DC0C9E
:100310008A4228BFA1F1DC02C1F800C04A6020F087
:1003200000407047540400200948804709480047AE
:10033000FEE7FEE7FEE7FEE7FEE7FEE7FEE7FEE795
:10034000FEE7FEE704480549054A064B70470000F2
:100350001D48000895010008B8050020B80B0020D2
:10036000B8070020B807002053EA020C00F06980AB
:100370002DE9F04B4FF00006002B1FBFB3FA83F5B9
:1003800003FA05F424FA05F65E4012BF1643B2FAEA
:1003900082F502FA05F4C5F120051EBF22FA05FC1C
:1003A00044EA0C04203556EA044C4FEA144418BFC2
:1003B000641C4FF000084FF00009904271EB030CF1
:1003C00039D3002919BFB1FA81F701FA07F6B0FA5B
:1003D00080F700FA07F6C7F120071EBF20FA07FCD6
:1003E00046EA0C062037B6FBF4FCA7EB0507103FE6
:1003F00007F01F0BCBF120060CFA0BFB2CFA06F6CC
:1004000044BFB3460026202FA4BF5E464FF0000B2A
:100410005BEA060C08BF4FF0010B19EB0B09ABFBB5
:10042000027C48EB0608C01B06FB02CC0BFB03CC8E
:1004300071EB0C01C1E70B46024641464846BDE858
:10044000F08B13B54FF000004FF00001AFF30080C8
:10045000BDE81C40704700007CB51D4616460C00E8
:10046000009001D02044401E074B7B442A46694639
:100470000190304600F03FFC05461CB10020694663
:1004800000F04CFC28467CBDB90800000FB40449BC
:1004900010B503AA029800F04FFC10BC5DF814FBE5
:1004A000B00400202DE9F05F894604464FF0000AB1
:1004B000DFF874B1FB44C0F820A02046E16888470B
:1004C000002874D0252806D0D4E901219047206A5D
:1004D000401C2062F1E700265F462046E16888471D
:1004E0002028054607DB312D05D2781910F8200C9D
:1004F00008B10643F1E7B00701D526F00406C4F8B9
:100500001CA00027C4F818A02A2D09D0284604F002
:1005100013FF38B304EB8708303DC8F8185019E0D2
:1005200059F8041B204604EB87029161E168884773
:10053000012F054618D1E069002820DA26F02006B0
:100540001DE0D8F8180000EB800005EB40003038C3
:10055000C8F818002046E1688847054604F0ECFE1C
:100560000028EED1012F0AD02E2D08D12046E168B7
:1005700088477F1C0546022F46F02006C4DBA06991
:10058000002803DA404246F00106A061F00701D0DE
:1005900026F010066C2D0BD0682D09D04C2D39D0CB
:1005A0006A2D35D0742D35D07A2D33D016E038E051
:1005B000E1682F4620468847B842054609D16C2F8E
:1005C00026D04FF48060E168064320468847054600
:1005D00004E06C2F1AD04FF4807006430DB3A5F1E0
:1005E0004100192802D8203546F400664A462946BB
:1005F000204626604E46FFF707FE80B101280BD04B
:10060000F61D26F0070000F1080956E74020E4E750
:100610008020D8E70020D6E706F104094DE72846F8
:1006200052E7206ABDE8F09F5E5D00000B4910B5FF
:10063000A1F17C020A4CC2E93712372106E000EB37
:10064000104342F82130074B00FB03400B1EA1F181
:100650000101F4DC10BD0120E8E70000F4030020F4
:10066000E119D666CD0D0100032A40F2308010F06A
:10067000030C00F0158011F8013BBCF1020F62443D
:1006800098BF11F801CB00F8013B38BF11F8013BCE
:10069000A2F1040298BF00F801CB38BF00F8013B7B
:1006A00011F0030300F07884083AC0F0088051F894
:1006B000043B083A51F804CBA0E80810F5E7121DF6
:1006C0005CBF51F8043B40F8043BAFF30080D20715
:1006D00024BF11F8013B11F801CB48BF11F8012BE1
:1006E00024BF00F8013B00F801CB48BF00F8012B04
:1006F000704702F0FF0343EA032242EA024200F09D
:100700007FBC4FF0000200B5134694469646203950
:1007100022BFA0E80C50A0E80C50B1F12001BFF4BA
:10072000F7AF090728BFA0E80C5048BF0CC05DF820
:1007300004EB890028BF40F8042B08BF704748BF6E
:1007400020F8022B11F0804F18BF00F8012B7047E2
:1007500070477047704710B500F076FC006810BD18
:1007600010B5044600F070FC046010BD70B504467E
:1007700085690068C10601D5302600E02026C00743
:1007800007D070BDD4E9012130469047206A401C53
:1007900020626D1EF6D570BD70B50446856900787F
:1007A000C00707D170BDD4E9012120209047206AFD
:1007B000401C20626D1EF6D570BD09684A0501D542
:1007C00040B27047C905FCD500B2704709684A05B8
:1007D00001D5C0B27047C905FCD580B2704770B56D
:1007E0000C460546012A05D02878800600D5EA691E
:1007F000002302E0012305E05B1C934202D2E05C8F
:100800000028F9D1A869E618C01AA861286A184416
:1008100028622846FFF7AAFF04E0D5E9012114F871
:10082000010B9047B442F8D32846FFF7B5FF70BDDF
:100830002DE9F0410646002410687529314616A5B9
:1008400010D0FFF7BAFF002802DA404213A507E0F4
:1008500031688A0701D512A502E0490704D511A520
:10086000012401E0FFF7B2FF00210A2206F124076C
:1008700009E0B0FBF2FCB0FBF2F302FB1C003030ED
:1008800078541846491C0028F3D123462A4630469E
:10089000BDE8F04100F021BC000000002D00000088
:1008A0002B0000002000000011680268006A530558
:1008B00001D508700AE0D30501D5088006E01306CB
:1008C00003D5C217C1E9000200E0086001207047AB
:1008D00070472DE9FF4F0C461E464FF0FF378BB097
:1008E000D2E90001DDF860800A908A46C1F30A551A
:1008F00005B93D46002108464FF00000BAF1000F4F
:1009000000F4400005DA00EB80004FF4400101EAFA
:1009100050004FEA9059B9F1010F00DDB9460A982D
:1009200050EA4A000ED044F61050A5F2FF35454378
:100930002F14B8F1000F1ED07542291E1EDDC9F11B
:1009400000021CE0B8F1010F4FF0000001D030218F
:1009500003E0F24305E02154401CB042FBDB30468B
:100960000022002121540B99C1F80880C1E9002020
:100970000FB0BDE8F08FBD1B6D1CDEE74A4600DA04
:10098000694206A800F0ECFD06AB93E8070003AB54
:1009900083E8070050460A9901F0F3FA8DE8070052
:1009A000A0F500501F3800900398002D09DD42F299
:1009B0001F014A46084403A90390684601F052FD0E
:1009C00008E0A0F500504A461F3803A90390684686
:1009D00001F05CFD8DE807000004000C03D04FF02F
:1009E000FF30410800E01046B8F1000F03D00022AC
:1009F000009215461EE0751E05D400F029FB30322A
:100A000062556D1EF9D5B3460122084302D000227B
:100A10007F1C04E02078302801D100227F1E002AAC
:100A2000099786D01DE0112D07DA00F011FB303256
:100A300062556D1C50EA0102F5D1084302D00098BE
:100A4000C8B10EE00021681E05E0235C625C6354BF
:100A50002254401E491C8142F7DBAB46A81B401EB6
:100A60000990002004F80B000B98099AC0F8088040
:100A7000C0E9002B7CE711264FF0000859E72DE96B
:100A8000F04F88460446D21D22F0070191B0D1E90B
:100A90000001CDE90A0104F088F902460B98C00F65
:100AA00001D02D2007E02068810701D52B2002E02E
:100AB000202101EAC000032A099001D0072A05DBA2
:100AC00003464146204600F0DFFC0BE1207880061B
:100AD00001D5E06900E00620B8F1650F814606D037
:100AE000B8F1660F18D0B8F1670F70D131E000206F
:100AF000B9F1110F009001DB112301E009F10103AD
:100B00000AAA01A90CA8FFF7E4FEDDE90C70002693
:100B100009F10105834647E001204B4600904FF064
:100B200000470AAA01A90CA8FFF7D3FEDDE90DB022
:100B30000C995D46002610B909F101000D18B9EBBA
:100B4000050003D4C0F1FF3609F10105A5EB09004A
:100B50002BE0B9F1010F01DA4FF001090020B9F1E2
:100B6000110F0090484601DD112300E003460AAA58
:100B700001A90CA8FFF7ADFEDDE90C704D4600267B
:100B80008346207800070AD4AB4500DA5D4601A809
:100B9000012D04DD411911F8011C302907D04F4502
:100BA00002DA17F1040F04DA012082460FE06D1E0D
:100BB000EEE7002F02DCED1B3E4403E0781CA84268
:100BC00000DD7D1CB81B00F1010A4FF000472078C2
:100BD000000703D4AA4501DB4FF0FF3A0021B7F12B
:100BE000004F0DF143088DF8431024D002202B2331
:100BF000002F01DA7F422D230A21021EA0F10100FD
:100C000000DC5FB197FBF1FC97FBF1F201FB1C7C70
:100C100017460CF1300C08F801CDEEE7A8F1010001
:100C200003702188090501D5452100E06521A0F167
:100C3000010800F8011C09980FA9A1EB0807FF1D86
:100C400000B10120411901EBEA70A1693844081A8A
:100C5000401EA0612078C00602D42046FFF786FD22
:100C6000099828B1D4E901219047206A401C2062EC
:100C70002078C00622D52046FFF778FD1EE0002E22
:100C800004DBB34502DD01A8805D00E03020D4E93B
:100C900001219047206A401C2062761CAAF10100C5
:100CA0005FEA000A0AD100F0CBF9C0680168405C35
:100CB000D4E901219047206A401C2062281EA5F13A
:100CC0000105DCDC07E0D4E9012118F8010B9047AD
:100CD000206A401C2062381EA7F10107F3DC204681
:100CE000FFF75AFD032011B043E6000001694A1CDA
:100CF00002610878704700B58FB0CDE9013100215D
:100D0000059105497944CDE9031011466846FFF77E
:100D1000C9FB0FB000BD0000E5FFFFFF0A6802F845
:100D2000010B0A607047D1E900239A4202D2531C9A
:100D30000B60107070470000074B70B50D467B4488
:100D4000FFF7D9FF0446284600F078FC10B14FF0B9
:100D5000FF3070BD204670BDE74600002DE9FF5F03
:100D600015468A460446DFF8AC80F8440027D8E9E7
:100D700000103E46CDE9001010E03AF816106A4621
:100D800002A800F0FBFC411C07D02178890603D59E
:100D9000E269391891420DD80744761C2078800604
:100DA00002D5E069B84205DDAE42E6DB3AF816004E
:100DB0000028E2D1A069C01BA0612046FFF7D6FC45
:100DC000D8E90010CDE90010002017E03AF818101B
:100DD0006A4602A800F0D2FCB0F1FF3F81460BD07A
:100DE00000250DF1080B05E0D4E901211BF80500F1
:100DF00090476D1C4D45F7D308F10100B042804685
:100E0000E4DB206A384420622046FFF7C5FCBDE8D9
:100E1000FF9F0000BA5400002DE9F0418046D21D2A
:100E200022F007020025D2E90002F52915A614D008
:100E3000011E72F1000106DA0023D0EB030063EB20
:100E4000020211A608E0D8F800108B0701D50FA602
:100E500002E0490701D50EA601251146002408F13C
:100E6000240704E000F0F4F830323A55641C50EAEC
:100E70000102F7D12B46324621464046BDE8F041FB
:100E800000F02BB9000000002D0000002B00000036
:100E90002000000030B4002100F1240408E002F03A
:100EA0000705D208303542EA4372DB086554491C15
:100EB00052EA0305F3D10468002310A2250707D5E1
:100EC000A40600D421B1C46901230DA2641EC4612B
:100ED00030BC00F002B910B5044621461068FFF797
:100EE00075FC02462046BDE810400023D2E7D21D23
:100EF00022F00701D1E90023CCE700000000000048
:100F000030000000F0B40D460188090502D5214CDF
:100F10007C4402E01F4C7C440E34002100F1240686
:100F200008E002F00F071209E75D42EA03721B09AD
:100F30007754491C52EA0307F3D1027800231207C1
:100F400004D5702D06D009B1022311342246F0BC1D
:100F500000F0C3B801231034F8E770B504460D461D
:100F600021461068FFF732FC024629462046BDE8BC
:100F700070400023C6E7D21D22F00703D3E9002307
:100F8000C0E70368126843F0200303600823C361CD
:100F90000023B7E71C53000010B5203AC0F00B80C7
:100FA000B1E81850203AA0E81850B1E81850A0E86D
:100FB0001850BFF4F5AF5FEA027C24BFB1E81850C7
:100FC000A0E8185044BF18C918C0BDE810405FEA37
:100FD000827C24BF51F8043B40F8043B08BF7047B3
:100FE000D20728BF31F8023B48BF11F8012B28BFB8
:100FF00020F8023B48BF00F8012B70474FF0000279
:101000000429C0F0128010F0030C3FF47CABCCF14B
:10101000040CBCF1020F18BF00F8012BA8BF20F888
:10102000022BA1EB0C01FFF76EBB5FEAC17C24BF72
:1010300000F8012B00F8012B48BF00F8012B704786
:101040000048704778050020004870475805002088
:1010500030B5B0F10A024FEA900E71F100034EEA8A
:10106000817EB0EB0E0061EB91014FEA101E4EEA5B
:10107000017E10EB0E0041EB11114FEA102E4EEAEB
:10108000016E10EB0E0041EB11214FEA104E4EEABB
:10109000014E10EB0E0041EB1141401841F10001EF
:1010A0004FEAD00040EA41704FEAD10110EB8005D1
:1010B0004FEA810444EA907444EB01046D1944EB57
:1010C0000404521BA3414FF0000348BF0A3200D56D
:1010D00030BD401C41F1000130BD2DE9F0470D4607
:1010E00099469246044600F124080168880604D512
:1010F000E06921F01001216000E00120A84201DD3B
:10110000471B00E00027A1697A1902EB0900081AC1
:10111000A0612078C00602D42046FFF727FB0026F6
:1011200008E0D4E901211AF806009047206A401C23
:10113000761C20624E45F4DB2078C0060AD5204696
:10114000FFF714FB06E0D4E9012130209047206A24
:10115000401C2062381EA7F10107F4DC07E0D4E947
:10116000012118F805009047206A401C2062281EC3
:10117000A5F10105F3DC2046FFF70EFB2078000601
:1011800002D50220BDE8F0870120FBE72DE9F04FF2
:1011900004460D46D21D22F0070089B0D0E9009721
:1011A0004846394603F001FE0246F80F01D02D23D0
:1011B00007E02068810701D52B2302E0202101EA06
:1011C000C0038DF820300BB1012000E00020032A7D
:1011D000824601D0072A04DB2946204600F054F954
:1011E0003FE12078800601D40D2500E0E569C7F3D2
:1011F0000A560D2D49DA00214FEA175B08464FF0D9
:101200000000002F00F4400007DA00EB80004FF4EC
:10121000400100EBD07001EA60008115012901DD79
:101220004FF0FF3100224FEA850CBCF1180F06D3B6
:101230001346ACF118004FF08052C24003E04FF467
:10124000801323FA0CF30CF10C0CBCF1200F04D327
:10125000ACF1200C09FA0CF001E007FA0CF00029BF
:101260004FF0004801DD18B90FE00ED140450CD316
:1012700019EB02095F4121B9404502D19F4329EA98
:101280000209BBEB175F00D0761C2088000502D551
:101290007B48784402E07A487844193808AA302319
:1012A00002F80A30037C0AF10101002E0AF1020A59
:1012B00053546A4602DC4FF0300101E04FF0310137
:1012C0004FF001088DF8001002D0A6F2FF3603E0BF
:1012D00059EA470100D06B4E002D02DC2178090746
:1012E00004D54FF002082E218DF80110C4460021CC
:1012F0000BE0C7F303433F01C35C491C6D1E02F8BA
:101300000830052908F1010801DA002DF1DC00217F
:101310000CE000EB1973491C1B786D1E082902F8BC
:1013200008304FEA091908F1010801DA002DF0DC54
:1013300021688B0602D516E0A8F10108E04505DD1D
:1013400002EB080313F8013C302BF5D0B8F1000F85
:1013500009DD02EB080313F8013C2E2B03D109072A
:1013600001D4A8F10108002D05DD3E2102F8081086
:101370006D1E08F10108407C002E02F8080008F1FB
:10138000010804DA2D20764202F8080002E02B2042
:1013900002F808000A214FF47A70864208F1010829
:1013A0000BDB96FBF0F3303302F8083096FBF0F3DA
:1013B00008F1010800FB136601E0642E0CDB6420D9
:1013C00096FBF0F3303302F8083096FBF0F308F1A7
:1013D000010800FB136601E00A2E06DB96FBF1F024
:1013E000303002F8080008F1010896FBF1F001FB2B
:1013F0001060303002F80800A16908F1010808EB1C
:10140000050202EB0A00081AA0612078C00602D487
:101410002046FFF7ABF9216A08AE01EB0A00206213
:1014200004E0D4E9012116F8010B9047BAF1010A52
:10143000F7D22078C00602D52046FFF797F96E460E
:1014400009E016F8010B3E280FD0D4E9012190479E
:10145000206A401C2062B8F10108F2D22046FFF752
:101460009BF909B00320BDE8F08F206A2844206270
:1014700003E0D4E90121302090476D1EEBD3F8E75B
:10148000F54F000002FCFFFF2DE9F0411F46044626
:1014900003260168072A01F4006004DB08B116A5E1
:1014A00005E016A503E008B115A500E015A521F09B
:1014B00010002060A069C01EA0610FB1401EA06195
:1014C0002046FFF753F94FB1D4E901213846904740
:1014D000206A401C2062C01C206206E0206AFAE7F5
:1014E000D4E9012115F8010B9047761EF8D2204669
:1014F000FFF752F9BDE8F0814E414E006E616E007B
:10150000494E4600696E660010B5436913B1AFF3EA
:10151000008001E0FFF763F9012010BD127800F1AF
:1015200024010A7000224A700122EDE711684FF091
:10153000FF32E9E710B5436913B1AFF3008001E072
:10154000FFF70CFC012010BD128800F124018284F9
:101550000022C2840122EDE711684FF0FF32E9E773
:101560002DE9F047814616468AB0334878440DC8C5
:101570008DE80D0030487844801C03AC0DC884E829
:101580000D0041F69B300844372190FBF1F290FBAF
:10159000F1F5A5F1800501FB12041B3C02D5644264
:1015A000012000E00020DFF890A080460027FA44E8
:1015B000AAF1BE0A0DE0E00709D03246684607EB03
:1015C00047010AEB810100F061FF8DE8070064101C
:1015D0007F1C002CEFD1184F7F44AC3F18E0E80788
:1015E00014D007EB04100DF1180A90E80E008AE8F9
:1015F0000E00C068F04201D198190890324606A941
:1016000003A800F043FF03AB83E807006D10641CE0
:10161000002DE4D132466946B8F1000F03A802D08C
:1016200000F020FF01E000F031FFC9E90001C9F836
:1016300008200AB0BDE8F087AC4D0000007B00F048
:101640008000704710B542485421FFF75AF84148CE
:101650005421FFF756F840485421FFF752F83F490C
:101660003B483C4A3F4B08603D490A603A49196093
:10167000531C0365481C1065012008653B48344A2B
:1016800039A1784400F04AF920B9384878440A383A
:1016900000F0E9F937482F4A35A1784400F03EF9C7
:1016A00020B9344878440A3800F0DDF932482A4A33
:1016B0002FA1784400F032F920B92F4878440A3835
:1016C00000F0D1F940232248DC000021224600F03E
:1016D00002F920B125487844543800F0C4F91D4877
:1016E00022464023002100F0F6F820B1214878443A
:1016F000543800F0B8F9184822461023002100F0B1
:10170000EAF8002806D01C487844BDE81040563856
:1017100000F0A9B910BD104870B5006D20F00104AB
:101720000B4800F071F90B4800F06EF90A4800F020
:101730006BF909E0206D20F00105204600F064F906
:10174000204600F0A1F82C46002CF3D170BD00001B
:101750005C040020B00400200405002030000020BC
:10176000340000203800002072000000AE4C000061
:10177000770000009A4C0000864C000070B51646B9
:101780000C46054600F078F8036893F8010101283B
:1017900006D0FF2C0FD8185D68B101202C7070BDE9
:1017A000D3F807013246214603F2071303442846C3
:1017B000BDE8704018474FF0FF3070BD0EB5CDE961
:1017C000000100F02EFB029069460120ABBE0EBD69
:1017D00008B5694600900220ABBE08BD1FB58DE874
:1017E000070069460520ABBE04B010BD1FB58DE8EB
:1017F0000F0069460620ABBEF6E708B569460090C3
:101800000920ABBE08BD1CB5CDE9000169460A2020
:10181000ABBE1CBD704708B5694600900C20ABBE3E
:1018200008BD000000487047580500207546FFF7C6
:10183000F9FFAE4605006946534620F0070085468D
:1018400018B020B5FEF77EFDBDE820404FF0000641
:101850004FF000074FF000084FF0000B21F0070198
:10186000AC46ACE8C009ACE8C009ACE8C009ACE8DB
:10187000C0098D467047000010B5FFF7E1FB001D61
:1018800010BD00BF7D44000070B50446051F00F088
:1018900033F90068002C14BF446870BD002C18BFD9
:1018A000AC423CBF20466468F8D301680A18AA42DB
:1018B00018BF456003D12A680546114401602868B5
:1018C0004119A1421CBF6C6070BD616869602168EC
:1018D0000844286070BD70B5C468A50713D06502C0
:1018E00011D4B2F5807F09D0B2F5007F06D0B2F5F1
:1018F000806F08D1012300F1240106E05D1E6FF026
:101900007F46B54201D3012070BD0161C3614160D2
:1019100024F470611143C160002070BD2DE9F041D5
:101920000C4607461646104600F06EF82078611CFB
:1019300061280AD0722802D077283CD102E0012524
:10194000002405E00225042402E0082448F20205F0
:1019500011F8010B2B2806D0622809D011F8010CD0
:1019600074280AD00BE045F0030544F00204EFE7C9
:1019700045F0040544F00104EAE744F01004384659
:101980002146FFF71BFF411C15D00021316171601A
:101990004FF40071F560F1617061200704D53046A5
:1019A0000222002100F022F9306D40F00100306584
:1019B0003046BDE8F0810020FBE72DE9F0410D46FF
:1019C0000646104C206DC10704D0410804D020F019
:1019D0000104F7E722460EE0542000F0D8F8070093
:1019E0000ED0206D47F00101084354212065384690
:1019F000FEF787FE3A4629463046BDE8F0418DE7BE
:101A00000020D6E75C0400202DE9F04704464FF0A3
:101A100000094FF0FF37C568D4E90486A80707D04E
:101A2000204600F093F93046FFF7D2FE002802DA94
:101A30003846BDE8F087280502D54046FFF724FF69
:101A40004C212046FEF75DFE206D20F00100206550
:101A50004846EEE710B50446AFF300802046BDE8E7
:101A60001040FEF740BC10B500F0BAF9BDE81040D8
:101A700000F0B0B94FF0013C50F8042B51F8043B92
:101A80009A4221D1A2EB0C03934313EACC1317D152
:101A900050F8042B51F8043B9A4215D1A2EB0C03E9
:101AA000934313EACC130BD150F8042B51F8043BA9
:101AB0009A4209D1A2EB0C03934313EACC13DBD077
:101AC0004FF00000704700BFD01A01BAB1FA81F19F
:101AD00001F0180122FA01F0CB40C1F12001DBB284
:101AE000C0B2C01A2CFA01F3D11A914311EAC31102
:101AF000E6D170477047000000487047600500203D
:101B0000704770477047704738B504460A46002052
:101B10006946AFF30080002808BF38BD024600992F
:101B2000204600F0AAF9012038BD012000F072B96A
:101B3000F8B5AFF30080054600200C46102000BF2A
:101B40000646A819A0420DD9324669460020AFF3D7
:101B50000080070008BF00F05DF90098A04218BFA0
:101B60000546C419FFF7C8FF05600746F01D20F0C1
:101B700007004619284600F079F9B44208BFF8BDBD
:101B8000A21B31463868BDE8F84000F076B970B560
:101B90000646FFF7B1FF056806F10B0020F00704C9
:101BA000B4429CBF002070BD2B466A68BAB1106871
:101BB000A04210D304F1080188423CBF506858602D
:101BC00007D35168101941601168091B0160586002
:101BD0001460101D70BD13465268002AE7D12146DB
:101BE0002846FFF791FF0028DED170BD2DE9F041B6
:101BF000044616460D464769007B80072ED03846BE
:101C0000FFF7FBFD50BB3EB3012E02D0022E25D1C3
:101C100004E0204600F04BF905441DE03846FFF78C
:101C2000FAFDE168002841F01001E16005DA204684
:101C300000F058F80120BDE8F081C9030BD56268B7
:101C4000E16A914200D81146A26911442269891AB9
:101C5000814200DD08460544002D01DA0220EAE752
:101C6000E16A6068E268814206D29103E06203D5CE
:101C700022F4003141F01002A6690027AE4213DCC5
:101C8000E16A814201D90B4600E0034603EB060CF2
:101C90002369ACEB030CAC4506DD814201D98C46CF
:101CA00000E084469C4505D1A760276042F02000F3
:101CB000A5620DE0AD1BE669AE1B8142A66000D9AE
:101CC0000846C01A281A20605819606022F02000C7
:101CD00003490840E060002084F84870ABE700004A
:101CE000BFCFD7FFC16821F4001141F08001C1606E
:101CF00000218160016070472DE9F047814614465C
:101D00000E464FF0FF383248D5685769054209D072
:101D10003846A169FFF777FD002811DB2C48C04346
:101D20000540E5602B46324649463846FFF756FDEA
:101D3000A16920F00042B21A11440028A16103D029
:101D40002046FFF7CFFF4046BDE8F08770B5044658
:101D50000569C06A6168884200D80846E16821F4D4
:101D60002011E160C90312D5A84208D02246411BC8
:101D70002846FFF7C1FF10B14FF0FF3070BD0020C3
:101D8000E562C4E90150E06820F48030E0600020A2
:101D900070BD10B50446C06820F02000E060A16A64
:101DA000A06988420DD02046FFF7D0FFE06820F4FC
:101DB000405040F01000E060A06AA0612069E0623D
:101DC000606044F24001E0688843E06010BD0000BC
:101DD00010000200002801D000F042B87047000057
:101DE00010B5014602A000F083F8012010BD0000EC
:101DF00053494752545245443A20526564697265CA
:101E000063743A2063616E2774206F70656E3A20A8
:101E10000000000010B500F085F8BDE81040FFF7A5
:101E2000D9BF10B5431C02E010F8011B71B1810746
:101E3000FAD14FF0013202C88C1A8C4314EAC21155
:101E4000F9D0C01A0A0603D0C01E10BDC01A10BDBA
:101E50000A0401D0801E10BD0902FCD0401E10BD36
:101E600001491820ABBEFEE72600020000210160F8
:101E7000C0E90110704710207047034640688C4647
:101E8000002818BF88423CBF03464068F8D3186852
:101E90001844884207D00CF1030020F00700001D11
:101EA000411A521A0146081D0A60FFF7EDBC10B531
:101EB0000146C268900703D0900607D5886A0AE0F9
:101EC000FFF7C2F801210160881E10BD8B694868C8
:101ED00018440B69C01A91F848301BB191F84910A9
:101EE000401A10BD1103FCD50028FADD401E10BDBC
:101EF00070B505460C460A2000E06D1C00F03AF86B
:101F000035B128780028F8D102E0641C00F032F8DE
:101F100014B120780028F8D1BDE870400A2000F004
:101F200029B8000010B5012805D0002103A0FFF753
:101F3000DFFF012010BD09A1F8E700005349475217
:101F4000544D454D3A204F7574206F662068656189
:101F500070206D656D6F7279000000003A20486551
:101F60006170206D656D6F727920636F727275702C
:101F70007465640008B569468DF800000320ABBEA7
:101F800008BD5FEA400C08BF91F0000F4FEA8C23B8
:101F90004FEAC12243EA51514FEA1C5018BF00F5E5
:101FA000F0404FEA300018BF41F000415FEA6C5C3E
:101FB00000F02980BCF1FF3F08BF40F0804070472F
:101FC000130C06BF12044FF0100C4FF0000C130E50
:101FD00004BF12020CF1080C130F04BF12010CF124
:101FE000040C930F04BF92000CF1020CD30F04BF3A
:101FF00052000CF1010C11464FF00002A0F11F003D
:10200000A0EB0C00704711F0004F08BF704731F093
:1020100000413FF4D5AF0B0C06BF09044FF0100C84
:102020004FF0000C0B0E04BF09020CF1080C0B0F53
:1020300004BF09010CF1040C8B0F04BF89000CF1E3
:10204000020CCB0F04BF49000CF1010CCCF12003B2
:10205000A0EB0C0022FA03F302FA0CF241EA0301AE
:1020600000F10100704720F07F4C80EA030023F06C
:102070007F47ACEB070303F57C5300F0004003F10E
:10208000FF032DE980494FEA154B09B44FEA144389
:1020900025EA0B4E24EA03480FF2042606EB132729
:1020A00049083E785FEA320203FB0667C7F500077E
:1020B00007FB06F64FEA54374FEAD64606F102060A
:1020C00007FB066CCCF1005C4FEA1C472CEA074C7E
:1020D00007FB06F40CFB06F504EB15464FEA9616D3
:1020E00034BF00204FF000404FEAD13706FB07FC19
:1020F0004FEA1C4C0CFB0BF7D21B03FB0CF761EBFC
:1021000007010CFB0EF7B0EB074072EB17420CFB1C
:1021100008F734BFA2EB0742B2EB074261EB17416D
:102120004FEA0C444FEA910706FB07FC4FEA1C4CB0
:102130000CFB0BF7B0EBC74072EB573203FB0CF70D
:1021400034BFA2EBC742B2EBC74261EB57310CFB85
:102150000EF7B0EBC70072EB57720CFB08F734BFF9
:10216000A2EBC702B2EBC70261EB5771039F4FEAC4
:10217000816141EA921104EBCC044FEAD1374FEA76
:10218000826206FB07FC42EA90124FEA80604FEA47
:102190001C4C0CFB0BF7D21B03FB0CF761EB07018C
:1021A0000CFB0EF7B0EB074072EB17420CFB08F785
:1021B00034BFA2EB0742B2EB074261EB17414FEA93
:1021C0008C554FEA910704EB9C2406FB07FC4FEA71
:1021D0001C4C0CFB0BF7B0EBC74072EB573203FB08
:1021E0000CF734BFA2EBC742B2EBC74261EB5731E9
:1021F0000CFB0EF7B0EBC70072EB57720CFB08F745
:1022000034BFA2EBC702B2EBC70261EB577115EB0B
:102210004C254FEA816141EA92114FEA82624FEA0E
:10222000D13742EA901206FB07FC44F100044FEA62
:1022300080604FEA1C4C0CFB0BF7D21B03FB0CF726
:1022400061EB07010CFB0EF7B0EB074072EB174296
:102250000CFB08F734BFA2EB0742B2EB074261EB7D
:10226000174115EB1C154FEA813141EA92414FEAC3
:10227000823242EA90424FEA80304FEA0C7644F1D3
:10228000000448EA03434EEA0B484FF0000EB2EB5D
:10229000080C71EB030724BF624639464EEB0E0E65
:1022A0004FF0000B0018524149414BEB0B0BB2EBC6
:1022B000080C71EB03077BF1000B24BF6246394623
:1022C0004EEB0E0E4FF0000B0018524149414BEB04
:1022D0000B0BB2EB080C71EB03077BF1000B24BF77
:1022E000624639464EEB0E0E51EA020718BF46F021
:1022F000010616EB0E7655F1000254F1000103D5EC
:10230000BDE88901BDE80088BDE88901BDE8004855
:10231000B619524141EB0101A3F1010370478080DE
:102320007F7E7D7C7B7A797877767675747372712F
:1023300071706F6E6E6D6C6C6B6A6A6968686766E7
:1023400066656464636362616160605F5F5E5E5D79
:102350005D5C5C5B5B5A5A595958585757565655ED
:1023600055555454535352525251515050504F4F4F
:102370004F4E4E4D4D4D4C4C4C4B4B4B4A4A4A499F
:1023800049494848484747474746464645454544E2
:102390004444444343434342424242414141002B6F
:1023A00026D4770021D01CB54FEA370703B44FF08D
:1023B00010004FF010014FF000000FBCBDE81040BE
:1023C0000BF1010BBBF1010F08BF5FEA170722BF3A
:1023D00012F1010211F101014FF0004143F100033C
:1023E00000F0004043EA00007047F9D35708DAE7ED
:1023F00046EA064613F1400F4FEA16461FDD13F179
:10240000200FDFBF16430A46002120335B42C8D0AD
:10241000C3F1200746EA064602FA07F74FEA1646D6
:1024200046EA0706C3F1200722FA03F201FA07F78A
:1024300021FA03F14FF0000342EA0702B1E746EA4E
:10244000020646EA06464FEA164646EA0106BCBFC1
:1024500046EA0646360C4FF000034FF000024FF0FC
:1024600000019EE72DE9C048934630B491E838005A
:1024700007C831EA400C48BF34EA430C03D5FFF7E4
:10248000F2FDFFF78CFFF0BCBDE800882DE9C048E5
:10249000934630B491E8380007C810F0804F08BF69
:1024A00013F0804F03D100F005F8FFF778FFF0BC80
:1024B000BDE8008820F07F4780EA030023F07F4CCE
:1024C00007EB0C03A3F57C5300F00040A3F1FE03DF
:1024D00092F0000F00F0B38095F0000F00F07780CD
:1024E0002DE901494FEA11404FEA144621EA00481C
:1024F00000FB06FC24EA064708FB06F607FB08F883
:1025000000FB07F718EB06484CEB164C4FEA124B52
:1025100018EB07484FEA15464CEB174022EA0B4EE2
:102520000BFB06FC25EA06470EFB06F607FB0EFE34
:102530000BFB07F71EEB064E4CEB164C4FF000065C
:102540001EEB074E4CEB174B18EB0B0840F100004D
:1025500018EB0E0B58EB000840F100008F1A4FF0FB
:1025600000013CBFC943661B14BFB5EB040C00213E
:102570003CBFC943F61B4FEA17444EEA8E0E27EACA
:1025800004454FEA1C4704FB07622CEA074C05FB95
:1025900007F70CFB05F604FB0CFC16EB074642EBB9
:1025A000174216EB0C4642EB1C421BEB060658EB9F
:1025B0000202414146EA9E0601D5BDE80189B619ED
:1025C000524141EB0101A3F10103BDE801894FEA4A
:1025D00014454FEA114724EA054621EA074C05FB5A
:1025E00007F406FB07F70CFB06F105FB0CFC11EBEF
:1025F000074144EB17444FEA124711EB0C4144EBFF
:102600001C4422EA074C05FB07F206FB07F70CFB0C
:1026100006F605FB0CFC16EB074642EB174216EBE1
:102620000C4642EB1C456A1854F1000148BF704744
:10263000B619524141EB0101A3F10103704795F036
:10264000000F37D04FEA11424FEA144721EA024601
:1026500024EA074C02FB07F106FB07F70CFB06F424
:1026600002FB0CFC14EB074441EB17414FEA154702
:1026700014EB0C4441EB1C4125EA074C02FB07F527
:1026800006FB07F70CFB06F602FB0CFC16EB0746F5
:1026900045EB174516EB0C4645EB1C42121951F160
:1026A000000148BF7047B619524141EB0101A3F147
:1026B000010370474FEA14454FEA114724EA0546E3
:1026C00021EA074C05FB07F106FB07F70CFB06F2B6
:1026D0004FF0000605FB0CFC12EB074241EB1741E3
:1026E00012EB0C4251EB1C4148BF7047921841EB72
:1026F0000101A3F10103704700BFFEE7704772B606
:1027000000BFFEE770B5044600F0F4F80646254623
:10271000681C10B104480078054400BF00F0EAF8D6
:10272000801BA842FAD370BD28000020F8B50246ED
:102730000B460025002400200021C7E0012606FAF0
:1027400001F51E6806EA0504AC4274D11E7906F054
:102750000306012E04D01E7906F00306022E13D1C3
:1027600090684F000326BE40B0434F00DE68BE4075
:1027700030439060506801268E40B0431E79C6F306
:1027800000168E40304350601E7906F00306032E7B
:1027900009D0D0684F000326BE40B0434F009E686A
:1027A000BE403043D0601E7906F00306022E13D1DE
:1027B000CF0802F1200656F827004E07F70E0F2625
:1027C000BE40B0434F07FF0E1E69BE403043CF08E6
:1027D00002F1200646F8270010684F000326BE408D
:1027E000B0431E7906F003064F00BE403043106030
:1027F0005E6806F44036002E67D000BF00260096C3
:10280000344E366846F48046324F3E603E46366867
:1028100006F48046009600BF00BF2F4E8F0856F882
:1028200027008E07370F0F26BE40B0432B4EB24213
:1028300002D1002615E048E0294EB24201D101261E
:102840000FE0284EB24201D102260AE0264EB242E3
:1028500001D1032605E0254EB24201D1042600E055
:1028600007268F073F0FBE4030431B4E8F0846F8A8
:1028700027001F4E3068A0435E6806F4801606B13C
:1028800020431B4E3060361D3068A0435E6806F45E
:10289000001606B12043164E361D3060144E361F0A
:1028A0003068A0435E6806F4003606B12043104E3F
:1028B000361F3060361F3068A0435E6806F48036ED
:1028C00006B120430A4E083E3060491C1029FFF42F
:1028D00035AFF8BD443802400838014000000240DE
:1028E0000004024000080240000C024000100240B8
:1028F000083C0140014800687047000020000020AB
:1029000070B504460CB9012070BD94F83D0028B99B
:10291000002084F83C00204600F092F9242084F83E
:102920003D002068006820F00100216808602068F0
:10293000006840F40040216808602068006820F4C6
:1029400000402168086000F091FB05465C49606822
:10295000884206D85B48854201D2012007E000206A
:1029600005E05948854201D2012000E000200128FD
:1029700000D1C9E75548B5FBF0F62068406820F063
:102980003F003043216848604D496068884201D863
:10299000701C07E04FF4967070434FF47A71B0FBEF
:1029A000F1F0401C2168096A21F03F0108432168C9
:1029B000086243496068884214D8681E616849000B
:1029C000B0FBF1F0401CC0F30B00042801D204203E
:1029D0003DE0681E61684900B0FBF1F0401CC0F3A7
:1029E0000B0034E0A06838B9681E616801EB410152
:1029F000B0FBF1F0401C0AE0681E616801EBC10207
:102A000002EB0111B0FBF1F0401C40F48040C0F338
:102A10000B0008B901201AE0A06848B9681E616877
:102A200001EB4101B0FBF1F0401CC0F30B000CE0E6
:102A3000681E616801EBC10202EB0111B0FBF1F00D
:102A4000401CC0F30B0040F4804040F4004021687B
:102A5000C9694CF6FF72914308432168C861D4E903
:102A6000070108432168096821F0C0010843216873
:102A70000860D4E9031008432168896848F2FF32EE
:102A80009143084321688860D4E90501084321681F
:102A9000C96821F0FF0108432168C8602068006808
:102AA00040F001002168086000202064202084F8A4
:102AB0003D000020206384F83E0000BF24E70000B2
:102AC000A086010080841E0000093D0040420F00E6
:102AD0002DE9F8430446894616461F46DDF8208056
:102AE000FFF708FF054694F83D0020287ED1192302
:102AF000012251492046009501F03EFA10B1022012
:102B0000BDE8F88300BF94F83C00012801D1022001
:102B1000F6E7012084F83C0000BF2068006800F060
:102B2000010028B92068006840F0010021680860B1
:102B30002068006820F4006021680860212084F883
:102B40003D00102084F83E00002020646662678506
:102B5000608D20853948E0622B4642464946204632
:102B600001F07CF908B10120CAE700BF0020009005
:102B700020684069009020688069009000BF00BF15
:102B800044E02A464146204601F09BFA50B1206CB1
:102B9000042805D12068006840F4007021680860AE
:102BA0000120ADE7606A007821680861606A401C16
:102BB0006062608D401E6085208D401E20852068EB
:102BC0004069C0F3800070B1208D60B1606A007808
:102BD00021680861606A401C6062608D401E6085EB
:102BE000208D401E20852A46414600E022E02046F6
:102BF00001F094F950B1206C042805D120680068D8
:102C000040F4007021680860012079E7208D0028D9
:102C1000B7D12068006840F4007021680860202067
:102C200084F83D00002084F83E0000BF84F83C009A
:102C300000BF65E7022063E7020010000000FFFF0D
:102C400010B586B00446142101A8FDF75AFD3C4991
:102C50002068884230D100BF0020009039480068C9
:102C600040F00200374908600846006800F00200A2
:102C7000009000BF00BF4FF4C0700190122002907E
:102C800000200390032004900420059001A92E4801
:102C9000FFF74CFD00BF002000902A48103000686C
:102CA00040F400102749103108600846006800F41D
:102CB0000010009000BF41E02449206888423DD1C7
:102CC00000BF002000901F48006840F002001D492E
:102CD00008600846006800F00200009000BF00BFD6
:102CE0000815019012200290002003900320049008
:102CF0000420059001A91448FFF718FD0820019051
:102D000012200290002003900320049009200590D7
:102D100001A90D48FFF70AFD00BF002000900948F7
:102D20001030006840F48000064910310860084601
:102D3000006800F48000009000BF00BF06B010BD26
:102D40000054004030380240000402400058004067
:102D5000034800680349097808440149086070473E
:102D6000200000202800002010B50D48006840F425
:102D700000700B4908600846006840F480600860F5
:102D80000846006840F480700860032000F092F864
:102D90000F2000F007F800F02BF8002010BD000015
:102DA000003C024070B504460E4800784FF47A713A
:102DB000B1FBF0F00C490968B1FBF0F5284600F0D2
:102DC0001BFC08B1012070BD102C07D20022214647
:102DD000501E00F031F80548046001E00120F2E7E0
:102DE0000020F0E7280000202C0000202400002014
:102DF00008B500BF002000900E48006840F48040F5
:102E00000C4908600846006800F48040009000BF4C
:102E100000BF00BF00200090081F006840F08050F5
:102E2000091F08600846006800F08050009000BF4D
:102E300000BF08BD443802402DE9F05F80460D46D2
:102E40001646002701F0DCFF074639462A4633467E
:102E500001F00700C0F1070ABAF1040F02D94FF0E0
:102E6000040A01E0C0F1070AD14600F1040ABAF1F0
:102E7000070F02D24FF0000A01E0A0F1030AD44686
:102E80004FF0010A0AFA09FAAAF1010A0AEA020A4B
:102E90000AFA0CFA4FF0010B0BFA0CFBABF1010B29
:102EA0000BEA030B4AEA0B042146404601F0B0FF4F
:102EB000BDE8F09F00BF00F00702064B19684FF60F
:102EC000FF031940044B0B4343EA0221014B1960F5
:102ED00000BF70470CED00E00000FA0570B5044635
:102EE0000D460CB9012070BD5848006800F007007D
:102EF000A84209D255490D700846006800F0070045
:102F0000A84201D00120EEE7207800F0020002285C
:102F10001DD1207800F00400042805D14C48006839
:102F200040F4E0504A490860207800F00800082882
:102F300005D14748006840F460404549086044486E
:102F4000006820F0F000A16808434149086020783B
:102F500000F00100A8B36068012807D13C48083898
:102F60000068C0F34040B8B90120BCE7606802289F
:102F700002D06068032807D1354808380068C0F3DC
:102F8000406048B90120AEE7314808380068C0F316
:102F9000400008B90120A6E72D48006820F0030092
:102FA000616808432A490860FFF7A4FC064609E067
:102FB000FFF7A0FC801B41F28831884202D9032030
:102FC00091E707E02248006800F00C006168B0EB70
:102FD000810FEDD11D48006800F00700A84209D913
:102FE0001A490D700846006800F00700A84201D099
:102FF000012078E7207800F00400042807D1144865
:10300000006820F4E050E168084311490860207826
:1030100000F00800082808D10D48006820F460403E
:10302000216940EAC1000A49086000F03FF80849F8
:103030000968C1F30311074A515CC840064908609A
:1030400006480068FFF7AEFE00204CE7003C024057
:1030500008380240FE6100082C00002024000020F7
:1030600001480068704700002C00002000B5FFF701
:10307000F7FF04490968C1F38221034A515CC84043
:1030800000BD0000083802400E62000800B5FFF7DE
:10309000E7FF04490968C1F34231034A515CC84063
:1030A00000BD0000083802400E6200082DE9F0471C
:1030B000002400250026A1462548006800F00C00E9
:1030C00020B1042805D008283AD105E0DFF8849023
:1030D00039E0DFF8849036E01D48001F006800F0FA
:1030E0003F041B48001F006800F4800078B11A48B4
:1030F0001749091F0968C1F38811A0FB0170014637
:10310000224600233846FDF72FF905460EE0114808
:103110000F49091F0968C1F38811A0FB017001461E
:10312000224600233846FDF71FF905460848001FD0
:103130000068C0F30140401C4600B5FBF6F902E010
:10314000DFF8109000BF00BF4846BDE8F0870000E0
:10315000083802400024F40040787D01F8B50446A8
:103160000CB90120F8BD207800F00100002874D0CF
:10317000F948006800F00C0004280DD0F6480068FB
:1031800000F00C00082813D1F348001F006800F479
:103190008000B0F5800F0BD1EF4808380068C0F30D
:1031A0004040002859D06068002856D10120D9E756
:1031B00000BF6068B0F5803F08D1E7480838006874
:1031C00040F48030E449083908601EE06068B0F5DA
:1031D000A02F0DD1E0480838006840F48020DE4977
:1031E000083908600846006840F4803008600CE048
:1031F000D9480838006820F48030D7490839086079
:103200000846006820F48020086000BF606890B124
:10321000FFF770FB054606E0FFF76CFB401B6428D8
:1032200001D903209EE7CC4808380068C0F340402D
:103230000028F1D011E0FFF75DFB054606E0FFF73F
:1032400059FB401B642801D903208BE7C24808388A
:103250000068C0F340400028F1D1207800F002005F
:1032600002285FD1BC48006800F00C0058B1BA4891
:10327000006800F00C0008281CD1B748001F006847
:1032800000F48000B0B9B44808380068C0F34000CA
:1032900020B1E068012801D0012063E7AE4808387A
:1032A000006820F0F800216940EAC100AA49083905
:1032B000086037E0E06800B30120A8490860FFF724
:1032C00019FB054606E0FFF715FB401B022801D954
:1032D000032047E7A04808380068C0F340000028F2
:1032E000F1D09D480838006820F0F800216940EAD4
:1032F000C10099490839086014E000209749086026
:10330000FFF7F8FA054606E0FFF7F4FA401B02283B
:1033100001D9032026E7904808380068C0F3400030
:103320000028F1D1207800F0080008282CD160692D
:10333000A8B101208A490860FFF7DCFA054606E0DB
:10334000FFF7D8FA401B022801D903200AE7824878
:103350006C300068C0F340000028F1D014E0002079
:103360007F490860FFF7C6FA054606E0FFF7C2FA94
:10337000401B022801D90320F4E677486C3000682E
:10338000C0F340000028F1D1207800F004000428A8
:1033900070D1002770483830006800F0805090B934
:1033A00000BF002000906C483830006840F080502A
:1033B0006949383108600846006800F08050009084
:1033C00000BF00BF01276748006800F48070B0B9F3
:1033D0006448006840F4807062490860FFF78AFA28
:1033E000054606E0FFF786FA401B022801D90320B4
:1033F000B8E65C48006800F480700028F2D000BF96
:10340000A068012808D154486830006840F00100E5
:103410005149683108601DE0A06805280DD14E486B
:103420006830006840F004004B4968310860084685
:10343000006840F0010008600CE047486830006810
:1034400020F001004449683108600846006820F017
:103450000400086000BFA068A8B1FFF74BFA05465A
:1034600009E0FFF747FA401B41F28831884202D950
:10347000032077E626E0384868300068C0F3400053
:103480000028EED013E0FFF735FA054608E0FFF715
:1034900031FA401B41F28831884201D9032061E6AC
:1034A0002D4868300068C0F340000028EFD1012F9C
:1034B00007D129483830006820F08050264938313B
:1034C000086000BFA069002845D02348006800F0CC
:1034D0000C0008285DD0A069022845D100201F49B2
:1034E0000866FFF707FA054606E0FFF703FA401BF8
:1034F000022801D9032035E6174808380068C0F3D0
:1035000040600028F1D1D4E907010843616A40EA2C
:1035100081110122A06AC2EB500041EA00412C2037
:10352000005D41EA00600C49091F086001200B4959
:103530000866FFF7DFF9054606E0FFF7DBF9401BF9
:10354000022801D903200DE6034808380068C0F3BB
:1035500040600028F1D049E00838024000004742AE
:10356000800E474200700040002021490866FFF7A6
:10357000C1F9054606E0FFF7BDF9401B022801D955
:103580000320EFE51B480068C0F340600028F2D13B
:103590002CE0A069012800D1E4E51648001D06686A
:1035A000A069012820D006F48001E06981421BD186
:1035B00006F03F01206A814216D147F6C0703040C4
:1035C000616AB0EB811F0FD106F440310122A06A7D
:1035D000C2EB5000B1EB004F06D106F070612C2019
:1035E000005DB1EB006F01D00120BBE50020B9E523
:1035F000000047420038024070B504462546681E68
:10360000B0F1807F01D301200FE0681E4FF0E02170
:1036100048610F214FF0FF3001F0FAFB00204FF01E
:10362000E021886107200861002070BD10B50346C5
:10363000002200BF93F83C00012801D1022010BDF8
:10364000012083F83C0000BF22F0FF00CC6840EA74
:10365000040222F440708C6840EA040222F4806084
:103660004C6840EA040222F400600C6840EA04025C
:1036700022F480500C6940EA040222F400504C69A4
:1036800040EA040222F48040CC6940EA040218684F
:10369000426400BF002083F83C0000BF00BFCEE7BB
:1036A00030B502460B4600BF92F83C00012801D11C
:1036B000022030BD012082F83C0000BF022082F8C9
:1036C0003D00106844681068816824F07004186830
:1036D000044310684460144D1068A84213D0106869
:1036E000B0F1804F0FD0114D1068A8420BD0104D93
:1036F0001068A84207D00F4D1068A84203D00E4DA5
:103700001068A84205D121F0800158680143106873
:103710008160012082F83D0000BF002082F83C005B
:1037200000BF00BFC5E700000000014000040040EA
:1037300000080040000C00400040014010B5044665
:103740000CB9012010BD94F83D0028B9002084F880
:103750003C00204600F026F8022084F83D00211DA0
:10376000206801F065F8012084F8460000BF84F865
:103770003E0001213F2001554020015541200155C7
:1037800000BF00BF012084F84200432001554420BF
:1037900001554520015500BF012084F83D0000205F
:1037A000D0E7000008B5154A016891420FD100BF6B
:1037B000002100911249096841F00101104A11608D
:1037C0001146096801F00101009100BF15E0016890
:1037D000B1F1804F11D100BF002100910849091FAC
:1037E000096841F00101064A121F1160114609687B
:1037F00001F00101009100BF00BF08BD00000140C1
:10380000443802402DE9F04104460D46002700BF30
:1038100094F83C00012802D10220BDE8F08101208B
:1038200084F83C0000BF022084F83D0020688668D0
:1038300026F0770626F47F462068866028685028A0
:1038400033D00CDC202850D004DC00284BD01028CA
:1038500051D149E0302849D040284CD139E0602886
:103860002DD0702807D0B0F5805F03D0B0F5005F91
:1038700041D10DE041E0D5E902136A68206801F00A
:103880003AF82068866846F077062068866034E05B
:10389000D5E902136A68206801F02DF82068806875
:1038A00040F480402168886027E0EA686968206801
:1038B00001F0F2F85021206801F028F81DE0EA68D4
:1038C0006968206801F0FBF86021206801F01EF8AB
:1038D00013E0EA686968206801F0DEF8402120689A
:1038E00001F014F809E000BF00BF00BF296820689C
:1038F00001F00CF801E0012700BF00BF012084F8AF
:103900003D0000BF002084F83C0000BF384684E73B
:1039100010B586B00446142101A8FCF7F2FE234935
:10392000206888421ED100BF002000902048006817
:1039300040F001001E4908600846006800F00100E0
:10394000009000BF00BF4FF4407001900220029031
:103950000020039004900120059001A91548FEF76E
:10396000E5FE20E02068B0F1804F1CD100BF0020B0
:1039700000900F48006840F001000D4908600846BB
:10398000006800F00100009000BF00BF032001901C
:10399000022002900020039004900120059001A9CC
:1039A0000448FEF7C3FE06B010BD00000000014051
:1039B00030380240000002402DE9F04104460D4637
:1039C0001646002700BF94F83C00012802D10220CF
:1039D000BDE8F081012084F83C0000BF36B1042E20
:1039E0001BD0082E31D00C2E5ED145E02946206830
:1039F00000F096FF2068806940F008002168886127
:103A00002068806920F0040021688861206880694E
:103A1000296908432168886148E02946206800F048
:103A2000AFFF2068806940F40060216888612068E9
:103A3000806920F480602168886120688069296934
:103A400040EA01202168886130E02946206800F0C2
:103A5000CBFF2068C06940F008002168C861206879
:103A6000C06920F004002168C8612068C069296924
:103A700008432168C86119E02946206800F0E8FF82
:103A80002068C06940F400602168C8612068C0698E
:103A900020F480602168C8612068C069296940EA13
:103AA00001202168C86101E0012700BF00BF00BFFD
:103AB000002084F83C0000BF384689E710B5044672
:103AC0000CB9012010BD94F83D0028B9002084F8FD
:103AD0003C00204600F025F8022084F83D00211D1E
:103AE000206800F0A5FE012084F8460000BF84F89D
:103AF0003E0001213F200155402001554120015544
:103B000000BF00BF012084F842004320015544203B
:103B100001554520015500BF012084F83D000020DB
:103B2000D0E7704770B504460D4615B994F83E00CD
:103B30000BE0042D02D13F20005D06E0082D02D1EC
:103B40004020005D01E04120005D012801D00120FE
:103B500070BD1DB9022084F83E000EE0042D03D193
:103B600002213F20015508E0082D03D10221402009
:103B7000015502E002214120015501222946206819
:103B800000F0A8FE1D492068884201D1012000E014
:103B9000002028B12068406C40F40040216848644F
:103BA00016492068884213D02068B0F1804F0FD0AA
:103BB0001349206888420BD012492068884207D0F8
:103BC00011492068884203D01049206888420CD1EE
:103BD0002068806800F00706062E0CD02068006878
:103BE00040F001002168086005E02068006840F0AE
:103BF0000100216808600020AAE7000000000140E1
:103C00000004004000080040000C0040004001405B
:103C100010B504460CB9012010BDA06900B100E048
:103C200000BF94F83D0028B9002084F83C002046ED
:103C300000F028F8242084F83D002068C06820F4B3
:103C400000502168C860204600F04EFF20680069DF
:103C500020F49040216808612068406920F02A0023
:103C6000216848612068C06840F400502168C8603D
:103C700000202064202084F83D0084F83E000020CD
:103C8000CAE7000010B586B00446142101A8FCF76D
:103C900038FD2949206888424CD100BF002000909F
:103CA0002648006840F01000244908600846006873
:103CB00000F01000009000BF00BF00BF0020009087
:103CC0001E481438006840F001001C49143908608F
:103CD0000846006800F00100009000BF00BF00BF70
:103CE000002000900846006840F002000860084686
:103CF000006800F00200009000BF00BF08150190AE
:103D000002200290002003900320049007200590D9
:103D100001A90B48FEF70AFD402001900220029005
:103D200000200390032004900720059001A9054876
:103D3000FEF7FCFC06B010BD001001404438024004
:103D400000000240000402402DE9F84F04460E46F0
:103D5000174699464FF0000A94F83D0020285AD1A2
:103D600006B117B90120BDE8F88F00BF94F83C00F8
:103D7000012801D10220F6E7012084F83C0000BFB1
:103D800000202064212084F83D00FEF7B3FD824628
:103D9000A784E784A068B0F5805F04D1206910B9DA
:103DA0000025B04602E035464FF0000800BF002075
:103DB00084F83C0000BF1BE05346002280212046CF
:103DC000CDF8009000F0A6FF08B10320CBE745B97D
:103DD000B8F80000C0F308002168486008F1020844
:103DE00003E02878216848606D1CE08C401EE08468
:103DF000E08C0028E0D15346002240212046CDF837
:103E0000009000F087FF08B10320ACE7202084F881
:103E10003D000020A7E70220A5E700BFFEE701461E
:103E200008684069C0F38020B0B16FF480600A6810
:103E3000506100200863202081F83D00002081F8B7
:103E40003E00086C40F00400086400BF002081F8C8
:103E50003C0000BF012070470020FCE72DE9F8433B
:103E600004460D4617469846E66A082E04D0012EF1
:103E700002D016F5803F06D12068006840F48070BB
:103E80002168086008E0206B122805D120680068CE
:103E900040F48070216808603B4600224FF0011119
:103EA0002046CDF8008000F067F860B12068006817
:103EB00000F48070B0F5807F02D14FF40070206470
:103EC0000320BDE8F8832069B0F5804F04D105F0E8
:103ED000FE002168086112E005F44070F02141EA1B
:103EE000E0102168086143463A460B49204600F03D
:103EF00086F808B10120E4E7E8B22168086143468A
:103F00003A460549891F204600F079F808B101209A
:103F1000D7E70020D5E700000800010070B504468F
:103F20000D46164620E02046FFF779FF08B1012034
:103F300070BD681CC0B1FEF7DDFC801BA84200D834
:103F400095B900202063202084F83D00002084F8EB
:103F50003E00206C40F02000206400BF002084F868
:103F60003C0000BF0120E3E720684069C0F3800007
:103F70000028D8D00020DBE72DE9F04104460D46AB
:103F800017461E46DDF818801CE0701CD0B1FEF705
:103F9000B1FCA0EB0800B04200D89EB9002020631D
:103FA000202084F83D00002084F83E00206C40F082
:103FB0002000206400BF002084F83C0000BF0120E6
:103FC000BDE8F081C5F3074001280AD120684069A7
:103FD000A9B20840A9B2884201D101200BE000201B
:103FE00009E020688069A9B20840A9B2884201D1DD
:103FF000012000E00020B842C7D00020E0E72DE912
:10400000F04104460D4616461F463DE020684069D3
:10401000C0F38020E8B12068006840F40070216897
:1040200008606FF4806021684861002020632020D0
:1040300084F83D00002084F83E00206C40F004002D
:10404000206400BF002084F83C0000BF0120BDE8D0
:10405000F081701CC0B1FEF74DFCC01BB04200D80F
:1040600096B900202063202084F83D00002084F8C9
:104070003E00206C40F02000206400BF002084F847
:104080003C0000BF0120E2E7C5F3074001280AD148
:1040900020684069A9B20840A9B2884201D1012034
:1040A0000BE0002009E020688069A9B20840A9B2AD
:1040B000884201D1012000E000200028A6D0002085
:1040C000C5E770B504460D46164620E02046FFF7CA
:1040D000A6FE08B1012070BD681CC0B1FEF70AFC45
:1040E000801BA84200D895B900202063202084F8C6
:1040F0003D00002084F83E00206C40F02000206449
:1041000000BF002084F83C0000BF0120E3E72068E6
:104110004069C0F3C0100028D8D00020DBE70000C1
:1041200008B500BF002000901548006840F08000EE
:10413000134908600846006800F08000009000BF46
:1041400000BF00BF002000900846006840F001005A
:1041500008600846006800F00100009000BF00BF42
:1041600000BF002000900846006840F00200086090
:104170000846006800F00200009000BF00BF08BDC4
:104180003038024010B50B480B4908600B484860B6
:10419000002109488160C1604FF480410161002124
:1041A00041618161C1610162FEF7AAFB08B1FEF7BE
:1041B000A6FA10BD00540040D4000020A0860100E3
:1041C00010B50B480B4908600B48486000210948AE
:1041D0008160C1604FF480410161002141618161D2
:1041E000C1610162FEF78CFB08B1FEF788FA10BDD1
:1041F0000058004028010020A086010000B595B0BD
:10420000002011901290139014900F9010901C2188
:1042100008A8FCF776FA20216846FCF772FA2F48C6
:104220002F4908600020486000212D4881604FF62A
:10423000FF71C1600021016141618161FFF77EFA78
:1042400008B1FEF75CFA4FF48050119011A9244890
:10425000FFF7D8FA08B1FEF752FA2148FFF72EFC13
:1042600008B1FEF74CFA00200F9010900FA91C48DF
:10427000FFF716FA08B1FEF742FA60200890002016
:1042800009900A900B900C900D900E90002208A9B6
:104290001348FFF791FB08B1FEF731FA042208A991
:1042A0000F48FFF789FB08B1FEF729FA00200090BC
:1042B00001900290039004904FF40050059000206C
:1042C000079069460648FFF7B1F908B1FEF717FAFB
:1042D0000348FFF71DFB15B000BD000000000140C2
:1042E0007C01002000B58DB0002009900A900B9051
:1042F0000C90079008901C216846FCF702FA4FF0DA
:1043000080402349086000204860002120488160E7
:10431000491EC160002101618161FFF70FFA08B1F8
:10432000FEF7EDF94FF48050099009A91848FFF7FE
:1043300069FA08B1FEF7E3F91548FFF7BFFB08B1CA
:10434000FEF7DDF900200790089007A91048FFF755
:10435000A7F908B1FEF7D3F9602000900020019082
:1043600002900490002269460948FFF725FB08B136
:10437000FEF7C5F9042269460548FFF71DFB08B1A1
:10438000FEF7BDF90248FFF7C3FA0DB000BD00000B
:10439000C401002010B50B480B4908604FF4E13010
:1043A0004860002108488160C16001610C214161C1
:1043B00000218161C161FFF72BFC08B1FEF79FF975
:1043C00010BD0000001001400C02002000BFFEE7FD
:1043D00000BFFEE770B5002515E005F1B001C8B2D9
:1043E00000F094F9002000F091F9102000F08EF90F
:1043F000002604E0002000F09BF9701CC6B2802E5D
:10440000F8DB681CC5B2082DE7DB00200F490870F7
:104410000F490870002415E004EB440101EBC401CE
:104420000C4A02EB410020221521FCF762F9002022
:1044300004EB440101EBC401064A02EB410148755B
:10444000601CC4B2082CE7DB70BD00001C0000201B
:104450001D000020C802002010B5AF2000F056F962
:1044600010BD000010B56420FEF74CF9AE2000F03E
:104470004DF9D52000F04AF9802000F047F9A82036
:1044800000F044F93F2000F041F9D32000F03EF95C
:10449000002000F03BF9402000F038F9A12000F0A6
:1044A00035F9C82000F032F9DA2000F02FF9122097
:1044B00000F02CF9812000F029F9CF2000F026F936
:1044C000D92000F023F9F12000F020F9DB2000F0E2
:1044D0001DF9402000F01AF9A42000F017F9A620D9
:1044E00000F014F9202000F011F9002000F00EF97E
:1044F000FFF770FF002415E004EB440101EBC40159
:104500000B4A02EB410020221521FCF7F2F80020B3
:1045100004EB440101EBC401054A02EB410148757B
:10452000601CC4B2082CE7DBFFF796FF10BD00004B
:10453000C80200200FB410B5A2B025A801908021B8
:1045400002A8019B249AFBF787FF0020019002AC90
:1045500003E014F8010B00F079F820780028F8D176
:1045600022B010BC5DF814FB2DE9F041002412E0EC
:10457000621C02EB420303EBC202294B03EB420134
:1045800004EB440202EBC40203EB42001522FCF7E9
:104590006BF8601CC4B2072CEADB202215212048EE
:1045A0009A30FCF7A6F800211D4880F8AF100024CF
:1045B00031E02146002000F037F8002527E004EB29
:1045C000440000EBC400164901EB4000465D202E7C
:1045D00012DB7E2E10DC00270BE0A6F1200101EBA0
:1045E000410107EB41010F4A505C00F0A1F8781C33
:1045F000C7B2062FF1DB08E0002704E0002000F03E
:1046000097F8781CC7B2062FF8DB681CC5B2152DC9
:10461000D5DB601CC4B2082CCBDBBDE8F081000008
:10462000C8020020C45F000870B504460D4605F1BD
:10463000B001C8B200F06AF8102141EA141000F08D
:1046400065F804F00F0000F061F870BD2DE9F0414D
:1046500004464FF000080A2C03D02848007815289B
:1046600014DB27480078401C2549087000202349A6
:10467000087023480078082804DBFFF775FF07203F
:104680001F4908700A2C01D1BDE8F081202C06DBFF
:104690007E2C04DCA4F1200000F0FF0801E04FF0C4
:1046A00000081748007800EB400101EBC0001549F5
:1046B00001EB40001149097844541048007800EBA0
:1046C00040004006060E0E48077839463046FFF790
:1046D000ABFF002509E008EB480105EB41010A4A60
:1046E000505C00F025F8681CC5B2062DF3DB0348CA
:1046F0000078401C0149087000BFC5E71D0000207C
:104700001C000020C8020020C45F00081CB504463D
:10471000002001908DF805406420022301AA782131
:1047200000900248FEF7D4F91CBD0000D400002020
:104730001CB5044606A0006801908DF80540642071
:10474000022301AA782100900248FEF7C1F91CBD9E
:1047500040000000D40000207047704710B5FEF7FD
:10476000F7FA10BD00B593B0302107A8FBF7C9FFD9
:10477000142102A8FBF7C5FF00BF002001902548C7
:10478000006840F08050234908600846006800F047
:104790008050019000BF00BF00BF002001901E4864
:1047A000006820F4404040F400401B49086008467F
:1047B000006800F44040019000BF00BF0220079055
:1047C00001200A9010200B9002200D9000210E91E4
:1047D00008210F915421109102211191042112916D
:1047E00007A8FEF7BBFC08B1FDF789FF0F20029078
:1047F00002200390002004904FF480500590002088
:104800000690022102A8FEF769FB08B1FDF777FFC9
:1048100013B000BD403802400070004003480068FB
:1048200040F47000014908607047000088ED00E026
:1048300010B50268204B98420BD0B0F1804F08D0E1
:104840001E4B984205D01E4B984202D01D4B9842F9
:1048500003D122F070024B681A43174B984214D0D0
:10486000B0F1804F11D0154B98420ED0144B9842A6
:104870000BD0144B984208D0134B984205D0134BE1
:10488000984202D0124B984203D122F44072CB6876
:104890001A4322F080034C6943EA040202608B68E9
:1048A000C3620B688362044B984201D10B690363B6
:1048B0000123436110BD00000000014000040040DE
:1048C00000080040000C004000400140004401404E
:1048D0000048014030B501F01F05012404FA05F33A
:1048E000046A9C430462046A01F01F0502FA05F59C
:1048F0002C43046230BD30B50C46816821F47F4101
:1049000042EA032525432943816030BD0A46816878
:1049100021F0700142F007031943816070470000E5
:1049200030B5056A25F001050562026A43688469AD
:1049300024F0700424F003040D682C4322F00202DA
:104940008D682A430D4DA84206D100BF22F008020F
:10495000CD682A4322F00402084DA84207D123F46F
:10496000807323F400734D692B438D692B4343609F
:1049700084614D684563026230BD00000000014063
:1049800030B5056A25F010050562026A436884693E
:1049900024F4E04424F440740D6844EA052422F031
:1049A00020028D6842EA05120E4DA84207D100BFD1
:1049B00022F08002CD6842EA051222F04002094D41
:1049C000A84209D123F4806323F400634D6943EACC
:1049D00085038D6943EA8503436084614D6885637F
:1049E000026230BD0000014030B5056A25F48075D3
:1049F0000562026A4368C46924F0700424F0030469
:104A00000D682C4322F400728D6842EA05220F4D96
:104A1000A84207D100BF22F40062CD6842EA052215
:104A200022F48062094DA84209D123F4805323F473
:104A300000534D6943EA05138D6943EA051343604A
:104A4000C4614D68C563026230BD000000000140D2
:104A500030B5056A25F480550562036A4468C26969
:104A600022F4E04222F440720D6842EA052223F467
:104A700000538D6843EA0533064DA84204D124F45F
:104A800080444D6944EA85144460C2614D68056400
:104A9000036230BD0000014030B50B461446026A87
:104AA000056A25F001050562816921F0F00141EAFE
:104AB000041122F00A021A438161026230BD30B54E
:104AC0000B461446056A25F0100505628169026AE5
:104AD00021F4704141EA043122F0A00242EA0312BB
:104AE0008161026230BD00002DE9F84F0446206864
:104AF000006920F44050E168084321680861216999
:104B0000A068084361690843E16908430090206890
:104B1000C06849F20C618843009908432168C86065
:104B20002068406920F44070A16908432168486109
:104B300076492068884203D075492068884203D1AD
:104B4000FEF7A4FA814602E0FEF790FA8146E0699A
:104B5000B0F5004F6CD102206168A0FB0150034604
:104B60001920A9FB007001462A463846FBF7FCFBDA
:104B70006421B0FBF1F04FEA001A02206168A0FB4B
:104B800001510B461920A9FB00712A463846FBF754
:104B9000EBFB834602206168A0FB0150034619200D
:104BA000A9FB00712A463846FBF7DEFB6421B0FB07
:104BB000F1F000EBC00101EB0010ABEB8000322103
:104BC00001EBC0006421B0FBF1F000F0F8000AEB4B
:104BD000400A02206168A0FB015003461920A9FB8E
:104BE000007001462A463846FBF7BEFB834602208A
:104BF0006168A0FB015003461920A9FB00712A46F9
:104C00003846FBF7B1FB6421B0FBF1F000EBC001CB
:104C100001EB0010ABEB8000322101EBC0006421FE
:104C2000B0FBF1F000F007005044216888606AE0B2
:104C300004206168A0FB015003461920A9FB007005
:104C400001462A463846FBF78FFB824604206168FE
:104C5000A0FB015003461920A9FB007001462A461B
:104C60003846FBF781FB6421B0FBF1F000EBC0019B
:104C700001EB0010AAEB8000322101EB001064214F
:104C8000B0FBF1F000F0F00A04206168A0FB0170B5
:104C900003461920A9FB00513A462846FBF764FB5E
:104CA0006421B0FBF1F00AEB001A04206168A0FB5C
:104CB00001510B461920A9FB00712A463846FBF723
:104CC00053FB834604206168A0FB01500346192072
:104CD000A9FB007001462A463846FBF745FB6421D4
:104CE000B0FBF1F000EBC00101EB0010ABEB80007A
:104CF000322101EB00106421B0FBF1F000F00F0055
:104D0000504421688860BDE8F88F00000010014021
:104D1000001401402DE9F04104460D46174698461F
:104D2000069E34E0701C88B32EB1FDF7E3FDA0EBC6
:104D30000800B0422BD900BF00BF21680C3151E8F8
:104D4000001F21F4D07021680C3141E80002002AD4
:104D5000F3D100BF00BF00BF2168143151E8001F2C
:104D600021F001002168143141E80002002AF3D14A
:104D700000BF202084F83D0084F83E0000BF0020E2
:104D800084F83C0000BF0320BDE8F081FFE7206805
:104D900000682840A84201D1012000E00020B8426C
:104DA000C0D00020F0E700BFFEE703B40198410047
:104DB000009850EAC12018BF04204A0D18BF40F0E7
:104DC000010040F2FF72B2EB515F08BF40F00200F9
:104DD000012808BF052002B070474100080218BF33
:104DE00004200A0E18BF40F001004FF07F4232EA63
:104DF000010108BF40F00200012808BF05207047EC
:104E000002480068C0F30220704700000CED00E08B
:104E100010B5002804DB0A07130E054A135406E0F8
:104E20000A07140E034A00F00F031B1FD45410BDD1
:104E300000E400E018ED00E010EE101A08B5444A56
:104E40006846B2EB410F28D94FF0E640B0EB410F76
:104E500094BF00204FF0FF3000900098002861DBE5
:104E600060EE000A10F0010F45D010F0020FDFEDE8
:104E7000391A9FED391A00EEE11ADFED381A40EECB
:104E8000811A21EEA01AF0EE400A40EE010A08BF96
:104E9000F1EE600AB0EE600A08BD314B21F000422D
:104EA00093423CD911F0004FDFED2E0A20EE201A7C
:104EB000DFED2D0A19BF31EE601A71EE200A31EED6
:104EC000201A71EE600ABDEEE01A11EE100A9FED95
:104ED000271A00F0030000EEC10A9FED251A00908A
:104EE00000EEC10A9FED231A00EEC10A9FED221ABF
:104EF00000EEC10AB1E79FED211A9FED210A10F0E3
:104F0000020F00EE810A9FED1F1A00EE801AB7EE25
:104F1000000A00EE810A18BFB1EE400A08BD00F099
:104F200061F99AE710EE100A4000B0F17F4F3CBFE4
:104F3000B7EE000A08BD07D14FF00100FBF710FCE7
:104F4000BDE8084000F03EB9BDE8084000F036B9C1
:104F5000B61F927E336D4C39DA82083CA0AA2ABE75
:104F6000490E494683F9223F0000004B0000C93F2B
:104F700000A0FD390020A2331A61342CB93AB2BA2C
:104F8000CA9F2A3DDDFFFFBE2DED020B019820F0E8
:104F9000004001909DED000B02B0704710B52DED63
:104FA000028BB0EE608AF0EE408A18EE101A18EE0E
:104FB000900A00F08FFF00F07040B0F1005F0CD05D
:104FC00018EE100A20F00040C0F1FF40C00F02BFF1
:104FD000B0EE480ABDEC028B10BDB0EE680ABDEC25
:104FE000028B10BD10B52DED028BB0EE608AF0EE95
:104FF000408A18EE101A18EE900A00F06BFF00F0CD
:105000007040B0F1004F0CD018EE100A20F00040B4
:10501000C0F1FF40C00F02BFB0EE480ABDEC028BEA
:1050200010BDB0EE680ABDEC028B10BD00B510EEED
:10503000101A2DED028B81B0524A6846B2EB410F37
:105040002ED94FF0E640B0EB410F94BF00204FF057
:10505000FF3000900098B0EE408A00286ADB10F024
:10506000010F4BD068EE080A9FED471A9FED470AE3
:1050700000EE810A9FED461A10F0020F00EE801A32
:10508000B7EE000A00EE810A02BF01B0BDEC028B50
:1050900000BD00BF01B0B1EE400ABDEC028B00BD07
:1050A0003C4B21F00042934241D911F0004FDFED1B
:1050B0003A0A20EE201ADFED390A19BF31EE601AE4
:1050C00071EE200A31EE201A71EE600ABDEEE01A90
:1050D00011EE100A9FED321A00F0030000EEC10A33
:1050E0009FED301A009000EEC10A9FED2F1A00EEDE
:1050F000C10A9FED2E1A00EEC10AABE728EE080A9E
:105100009FED2B1ADFED2B0A10F0020F40EE410A43
:105110009FED291A00EE201A61EE000AB0EE480A4F
:1051200008EE200AB6D101B0BDEC028B00BD00F044
:1051300059F88FE718EE100A4000B0F17F4F0DD2FA
:1051400018EE100AFFF749FE042808BF00F042F8E5
:10515000B0EE480A01B0BDEC028B00BD09D10120C0
:10516000FBF7FEFA01B0BDEC028B5DF804EB00F03A
:1051700029B801B0B0EE480ABDEC028B5DF804EB33
:1051800000F01CB8B61F927EB93AB2BACA9F2A3D47
:10519000DDFFFFBE490E494683F9223F0000004B68
:1051A0000000C93F00A0FD390020A2331A61342C51
:1051B000336D4C39DA82083CA0AA2ABE30EE000AD0
:1051C00070470000DFED020A80EEA00A7047000081
:1051D000000000009FED020A20EE000A7047000068
:1051E000000000102DE9F0014FF07F42B2EB410FBB
:1051F0009FBF4FF0FF310160BDE8F00170474FF0F5
:10520000004242EA0123C1F3C752783A551112F025
:105210001F0C434CCCF120067C44C1F3C752A2F1D1
:1052200078024FEA621204EB820254F8254008BF6C
:10523000D2E9015612D0556804FA0CF425FA06F7A3
:105240003C43976805FA0CF527FA06F8D26807FA86
:105250000CFCF24045EA08054CEA0206A4FB034CAC
:10526000A5FB0352A6FB03631D449D4234BF0126E8
:1052700000261319334416B1934202D903E0934236
:1052800001D2012200E00022624402F1200C9206C9
:10529000DC0C42EA443200EE102A5B03DFED210A07
:1052A000F8EEC01A00EE103A4FEA9C1C11F0004FC5
:1052B000B8EE400AC0F800C020EE201A00EE105AE6
:1052C000DFED190AB8EE400A20EE200A71EE810ADD
:1052D00070EE800A10EE902A02F500626FF30B0266
:1052E00000EE902A70EEE11A31EEC11ADFED101ACD
:1052F00030EE411A9FED0D0A20EE800A01EE210AE0
:105300009FED0C1A00EE810A04BFBDE8F001704762
:10531000CCF180510160BDE8F001B1EE400A704768
:105320003C100000000000360000802C22AAFD295D
:10533000DB0FC92F0000C92F30380A2801D2012005
:10534000704700207047000010B500F0EDF9DFED68
:10535000251AB6EE001ADFED240AB0EE000A234843
:1053600000F0CEF9DFED1F1AB6EE001ADFED1E0ACF
:10537000B0EE000A1E4800F0C3F9DFED1E1A9FEDE3
:105380001E1ADFED1E0AB7EE080A1D4800F0B8F934
:10539000F7EE001A9FED1B1ADFED1B0A9FED1B0AAB
:1053A0001B4800F0ADF9F7EE001A9FED161ADFED7D
:1053B000160A9FED160A174800F0A2F940F2DC51D8
:1053C000002000F0FFF940F2DC51012000F0FAF972
:1053D00040F24C41022000F0D1F901200E49087042
:1053E00010BD000000003442CDCC4C3D50020020E6
:1053F000680200200000B4429A99993E0AD7A33C63
:1054000080020020CDCC4C3E0AD7233CCDCC4C3F73
:1054100098020020B00200200900002010B50446C8
:105420002046FDF76FF910BD13B50C464FF0FF3362
:10543000012269461348FEF787FC00980D280DD01D
:10544000114800787F2809D20098C1B20E4802782E
:105450000078401C0C4B18700C48815400980A28A6
:1054600003D0094800787F280AD300200749064A5C
:105470001278885406A0FFF75DF8002002490870F2
:1054800000981CBD0C0200200800002054000020E1
:10549000257300002DED068B84B0FDF765FCFFF74A
:1054A00061F9FEF73DFEFEF76DFEFEF789FEFEF7A1
:1054B000A5FEFEF717FFFEF76DFFFDF71BFA04468A
:1054C000FBF7B4F8FEF7CEFF6420FDF71BF9FEF7FB
:1054D00081FF31A0FAF7DAFFFFF736FF36A0FAF7BF
:1054E000D5FF57E0414800F08FF94049404800F0AF
:1054F00007FA404A3E493D4800F036FB3B4890EDF4
:10550000020A10EE101A084600F0ACFC41EC180B31
:10551000364890ED010A10EE101A084600F0A2FC81
:1055200041EC190B314890ED000A10EE101A0846B4
:1055300000F098FC41EC1A0B8DED028B8DED009B79
:1055400053EC1A2B2CA0FAF7A1FF2948007AD8B106
:10555000274890ED010A10EE101A084600F082FC70
:1055600041EC180B224890ED000A10EE101A084684
:1055700000F078FC41EC190B8DED008B53EC192BEE
:1055800028A0FAF783FF02E030A0FAF77FFF0A2095
:10559000FFF744FFA6E700000A0DE9A39EE99596F0
:1055A000E9A39EE68EA7E7B3BBE7BB9FE590AFE517
:1055B0008AA82E2E2E0A0D00E7B3BBE7BB9FE58815
:1055C0009DE5A78BE58C96E5AE8CE68890EFBC8CCC
:1055D000E5BC80E5A78BE68EA7E588B6E5BEAAE721
:1055E0008EAF2E2E2E0A0D0A0D0000003C0000206A
:1055F0004800002000000020E5A7BFE680813A2097
:10560000526F6C6C3D252E31662C20506974636896
:105610003D252E31662C205961773D252E3166209F
:105620007C200000E79BAEE6A0873A20583D252E5F
:1056300032662C20593D252E3266205BE6A380E69B
:10564000B58BE588B05D0A0D00000000E79BAEE673
:10565000A0873A20E69CAAE6A380E6B58BE588B051
:105660000A0D0000F0EE401AB0EE602A71EEC24A58
:10567000F0EE640AD0ED004A64EEA04AF0EE642A2F
:10568000D0ED034A40EE814AC0ED034AD0ED014A15
:1056900090ED035A64EE854AF0EE643AD0ED044A88
:1056A00070EEE44A84EE815AB0EE453AD0ED024AFB
:1056B00064EE834AB0EE644AC0ED040A72EEA34A77
:1056C00074EE844AB0EE640AD0ED054AF4EEC04AA6
:1056D000F1EE10FA04D2D0ED054AB0EE640A0EE005
:1056E000D0ED054AF1EE644AF4EEC04AF1EE10FA4C
:1056F00005DDD0ED054AF1EE644AB0EE640A70476C
:1057000080ED000AC0ED010A80ED021A9FED052A26
:1057100080ED032A9FED032A80ED042AC0ED051ACF
:10572000704700000000000010B500211148FEF78E
:10573000F9F904210F48FEF7F5F900210E48FEF7AC
:10574000F1F904210C48FEF7EDF940F2DC5100209C
:1057500000F038F840F2DC51012000F033F84FF44B
:105760007A71022000F00AF84FF47A71032000F0F9
:1057700005F810BD7C010020C401002030B5B1F552
:105780007A7F02DA4FF47A7104E0B1F5FA6F01DD45
:105790004FF4FA610A4C2468E36A01FB03F444F60F
:1057A0002065B4FBF5F2022803D1054C246862633E
:1057B00004E0032802D1024C2468A26330BD00003B
:1057C000C401002030B5B1F57A7F02DA4FF47A7166
:1057D00004E0B1F5FA6F01DD4FF4FA61094C246879
:1057E000E36A01FB03F444F62065B4FBF5F218B953
:1057F000044C2468626304E0012802D1014C24684F
:10580000A26330BD7C01002010B52DED028B044653
:10581000364890ED000ADFED360A30EE200A80EDC2
:10582000000A90ED000AFFF701FCF1EE040A20EEF9
:10583000208AFAF75FFD00EE100AB8EEC00ADFED2D
:105840002D0A80EE201AB6EE000A31EE400AF0EE84
:10585000000A00EE208A84ED008A2448D0ED000A78
:105860009FED251A60EE810AB0EE600AFFF7E4FAB8
:10587000F0EE080A20EE208AFAF73CFD00EE100A4E
:10588000B8EEC00ADFED1B0A80EE201AB6EE000A61
:1058900031EE400AF0EE000A00EE208A84ED018A23
:1058A0001248D0ED000A9FED151A60EE810AB0EEA5
:1058B000600AFFF7BBFBF2EE040A20EE208AFAF73B
:1058C00019FD00EE100AB8EEC00A9FED0A1AC0EEEC
:1058D000010AB6EE000A30EEC00AF1EE040A00EE4C
:1058E000208A84ED028ABDEC028B10BD0C000020E2
:1058F0000AD7233C0000004F3333333F9A99993E37
:1059000070B52DED028B04460D46474890ED000A18
:10591000DFED460A30EE600A80ED000A90ED000AE5
:10592000F6EE000AB4EEE00AF1EE10FA2DD2B2EE75
:10593000040A80ED000AFAF7DDFC00EE100AF8EE2A
:10594000C00A9FED3B1A80EE810AF6EE000A30EEA7
:10595000600ADFED380A20EE200A374880ED000AA1
:10596000FAF7C8FC00EE100AF8EEC00A9FED301AF4
:1059700080EE810AF6EE000A30EE600ADFED2D0AB5
:1059800020EE200A2D4880ED000A95ED000ADFED9B
:105990002C0A80EE201A284890ED000A31EE000A09
:1059A00084ED000AD5ED010A9FED251A80EE810AEB
:1059B0002248D0ED000A30EEC00A84ED010A94EDD1
:1059C000000AF0EE400AB7EE000AFFF70BFBB0EE5C
:1059D000408AF0EE480ABFEE000AFFF7DFFA84EDD6
:1059E000000A94ED010AF0EE400AB7EE000AFFF754
:1059F000F9FAB0EE408AF0EE480ABFEE000AFFF76F
:105A0000CDFA84ED010A084890ED000AF2EE020A90
:105A1000B4EEE00AF1EE10FA01D2012000E000201D
:105A20002072BDEC028B70BD10000020CDCC4C3D2F
:105A30000000004FCDCC4C3F140000201800002087
:105A40000000B44270B52DED068B06460C46154697
:105A50009FED3E0AB0EE408A207AE0B394ED000A52
:105A6000F0EE400AB0EE481A9FED390A3948FFF7C8
:105A7000F9FD94ED010AF0EE400AB0EE481A9FEDF0
:105A8000340A3548FFF7EEFD02203449087094EDE2
:105A9000000A10EE101A084600F0E4F941EC1A0B67
:105AA000B0EE4A0AF0EE6A0AFFF76EFAB0EE409ADC
:105AB000F0EE609A9FED2A0B53EC102B51EC190B72
:105AC00000F040F924D294ED010A10EE101A0846B5
:105AD00000F0C8F900E018E041EC1A0BB0EE4A0AF9
